:020000040000FA
:10000000E8212020890200008D0200008F020000FC
:1000100000000000000000000000000000000000E0
:10002000000000000000000000000000910200003D
:100030000000000000000000930200009502000094
:10004000970200009702000097020000970200004C
:10005000970200009702000097020000970200003C
:10006000970200009702000097020000970200002C
:10007000970200009702000097020000970200001C
:10008000970200009702000097020000970200000C
:1000900097020000970200009702000097020000FC
:1000A00097020000970200009702000097020000EC
:1000B00097020000970200009702000097020000DC
:1000C00000F002F800F0D1F812A030C80838241867
:1000D0002D18AC4201D100F0C8F80FCCA246AB46B7
:1000E0000CA730CF2D1B083F3F197C427F1E544484
:1000F0002D090426F441641EAC4201D300F0B5F88A
:100100000126334200D0FB1A3343984754465D46DC
:10011000DFE70000F451000014520000000000006E
:10012000103A02D378C878C1FAD8520701D330C840
:1001300030C101D504680C60704700000000000069
:100140007047000000000000002300240025002666
:10015000103A01D378C1FBD8520700D330C100D583
:100160000B60704710B56E2902D100F071FB10BD15
:10017000702902D100F0ADFC10BD662902D104F057
:100180007DFD10BD652902D104F078FD10BD672901
:1001900002D104F073FD10BD612902D104F076FD97
:1001A00010BD03681B0A01D380231943692902D1BA
:1001B00000F018FB10BD642902D100F013FB10BD44
:1001C000752902D100F00EFB10BD6F2902D100F09D
:1001D0002BFC10BD782902D100F068FC10BDE92984
:1001E00002D100F0C7FB10BDE42902D100F0C2FB30
:1001F00010BDF52902D100F0BDFB10BDEF2902D1E1
:1002000000F01EFC10BDF82902D100F05DFC10BD0D
:100210000368DB0901D380231943632902D101F06C
:1002200040F910BD732902D101F043F910BDE32953
:1002300002D101F04DF910BDF32902D101F050F9BE
:1002400010BD002010BD1FB501F02EFA04000020E3
:10025000002104F03FFB401C60600020002104F0FE
:1002600023FBE0601FBD10B510BD01F0F5F911468C
:10027000FFF7E9FF03F076FD01F08AFD03B4FFF715
:10028000F2FF03BC01F02EFE06480047FEE7FEE742
:10029000FEE7FEE7FEE7FEE703480449024A044B97
:1002A00070470000C1000000E8012020E821202064
:1002B000E80120200FB41CB50C0007AA009007D05D
:1002C0004142A14202D30019401E01E00020C04378
:1002D000074B7B4469460190069800F0D2FA002152
:1002E000002C01D0009A11701CBC08BC04B0184747
:1002F000D3050000002203098B422CD3030A8B4252
:1003000011D300239C464EE003460B433CD400220D
:1003100043088B4231D303098B421CD3030A8B421F
:1003200001D394463FE0C3098B4201D3CB01C01AED
:10033000524183098B4201D38B01C01A52414309B8
:100340008B4201D34B01C01A524103098B4201D3A6
:100350000B01C01A5241C3088B4201D3CB00C01A13
:10036000524183088B4201D38B00C01A524143088B
:100370008B4201D34B00C01A5241411A00D20146B0
:100380005241104670475DE0CA0F00D04942031049
:1003900000D3404253409C46002203098B422DD398
:1003A000030A8B4212D38901FC2212BA030A8B4240
:1003B0000CD3890192118B4208D3890192118B428F
:1003C00004D389013AD0921100E08909C3098B4214
:1003D00001D3CB01C01A524183098B4201D38B0157
:1003E000C01A524143098B4201D34B01C01A5241FA
:1003F00003098B4201D30B01C01A5241C3088B423F
:1004000001D3CB00C01A524183088B4201D38B0029
:10041000C01A5241D9D243088B4201D34B00C01AB3
:100420005241411A00D201465241104663465B10C8
:1004300001D34042002B00D54942704763465B1010
:1004400000D3404201B50549002802DC491C0840A0
:1004500000E00846C046C04602BD00BFFFFFFF7F68
:100460007047704770471F22030C02D10F2200040F
:1004700002D0030E03D004E00020014670470002C2
:10048000083A030F01D10001121F830F01D1800030
:10049000921E002801DB4000521E12055118420531
:1004A000C012411810467047C10FC90700D0404222
:1004B000012292071143D6E701218907D3E7000003
:1004C0000121C9050123411842001B06D3185B0E08
:1004D0000AD0C1100722D206891840075242D142E1
:1004E00001D5520089187047090208D50146002A33
:1004F00003D0C10FC9070020704710467047420261
:1005000002D0002002497047072109050143F4E7A2
:100510000000F87FF0B5FF252D04C609C209FF27AA
:1005200004462E400137CB093E4348402A402B4029
:100530000746002A6BD0002B69D0AA4267D0AB4295
:1005400065D0002800DA32460125ED0529432C4309
:1005500009022002090AD21A4B0C7F24E31A434CE9
:10056000000A7C44E35C7D242404121914145B000B
:10057000A218884201D3521C00E0400049420C46B8
:100580005C4324115C43DB016415E318040A5C43FB
:10059000C502200D0C4644436419250A5D4323031C
:1005A000EC0C0D46654300030019EB184C42A342C6
:1005B00001D35B18401CD4052018002B07D05B002A
:1005C000C91804D3401C002901D1400840003F2134
:1005D00089048A4209D3002A08DC1106090F04D0D5
:1005E000032149074018C00FC007F0BD0122410098
:1005F000120689187F2252069142F6D20521490738
:10060000C84201D59010F0BDFF20C005F0BD002FFD
:1006100000DA32461648AA4207D2AB4205D2190286
:10062000090E17D0F80FC007F0BDFF2563002D0697
:10063000AB42F9D84900A942F6D8AB4201D1A94250
:10064000F2D0A94201D1002101E061004908D005A2
:100650000843F0BD1102090EFBD0FF200243D00574
:10066000F0BD0A460146104654E700003647000038
:100670000000C07F10B501469E240002CA15A307E2
:10068000002A02D01843002A04DBA21A002A0CDD3B
:10069000D04010BD1206120E01D140004008A21A2F
:1006A00003D4D04040420028F3DDFF224800120668
:1006B000904201D9002010BDC817C043584010BD5A
:1006C0001F22030C02D10F2200041CD0030E01D103
:1006D0000002083A030F01D10001121F830F01D15C
:1006E0008000921E002801DB4000521ED2055118E6
:1006F000021251181922904004D3491C002801D13C
:100700004908490008467047C10FC90700D0404258
:10071000012292071143D3E701218907D0E770B581
:10072000044685690068C10601D5302600E0202610
:10073000C00707D070BD62683046A1689047206A44
:10074000401C20626D1EF6D570BD70B504468569EB
:100750000078C00707D170BD6268A168202090476B
:10076000206A401C20626D1EF6D570BD09684A05DE
:1007700001D540B27047C905FCD500B27047096881
:100780004A0501D5C0B27047C905FCD580B2704793
:1007900070B50C460546012A05D02878800600D59C
:1007A000EA69002302E0012305E05B1C934202D2C8
:1007B000E05C0028F9D1A869E618C01AA861286A87
:1007C000C01828622846FFF7AAFF04E06A6820786C
:1007D000A968641C9047B442F8D32846FFF7B5FFD8
:1007E00070BD0000F7B5002575291068009914A6A2
:1007F00011D0FFF7BBFF002802DA404211A608E043
:10080000009909688A0701D50FA602E0490704D5B7
:100810000EA6012501E0FFF7B2FF009F0024243758
:1008200004E000F082FE30313955641C0028F8D114
:100830002B4632462146009800F059FAFEBD0000D2
:10084000000000002D0000002B0000002000000030
:1008500011680268006A530501D5087009E0D305E4
:1008600001D5088005E0130602D5C21705C100E0D6
:10087000086001207047000001694A1C0261087885
:10088000704700B58FB00291002105910549019391
:100890007944039111460490684600F027F90FB09F
:1008A00000BD0000E5FFFFFF0CC908399A4202D2E3
:1008B000531C0B6010707047F7B50446154686B0A0
:1008C0002B487844002703C83E460090019111E070
:1008D00007986A467100415A02A800F005FE411CC3
:1008E00007D02178890603D5E269391891420ED8DC
:1008F0003F18761C2078800602D5E069B84206DDF4
:10090000AE42E5DB07987100405A0028E0D1A069AB
:10091000C01BA0612046FFF702FF154878445A38F3
:1009200003C800900020019116E041006A46079834
:10093000415A02A800F0D8FD0590401C0AD00025BD
:1009400005E0626802A8A168405D90476D1C0598AB
:100950008542F6D30498401CB0420490E5DB206A3F
:10096000C01920622046FFF7F0FE09B0F0BD00007C
:1009700016440000F7B5D21D0025D20815A6D200F6
:10098000F52905CA11D0002A05DA0021404291411B
:1009900011A60A4608E0009909688B0701D50FA641
:1009A00002E0490701D50EA601251146009F00244B
:1009B000243704E000F05EF930323A55641C0246F8
:1009C0000A43F7D12B4632462146009800F08FF9B2
:1009D000FEBD0000000000002D0000002B00000004
:1009E0002000000070B504460021243408E05507BB
:1009F000D2086D0F303565545D072A43DB08491C6A
:100A000015461D43F3D10468002310A2250708D51D
:100A100020252C400C4304D0C46901230CA2641E81
:100A2000C46100F064F970BD10B504462146106839
:100A3000FFF7A5FE002302462046FFF7D3FF10BDB7
:100A4000D21DD108C9000CC9CCE70000000000008D
:100A500030000000F8B50F460188090502D5224C88
:100A60007C4402E0204C7C440E34054600212435B1
:100A700008E016071209360FA65D6E541E073243B2
:100A80001B09491C16461E43F3D122460478002355
:100A9000240705D5702F06D0002901D0022311327A
:100AA00000F025F9F8BD01231032F9E770B50446CE
:100AB0000D4621461068FFF762FE002302462946D4
:100AC0002046FFF7C7FF70BDD21DD308DB000CCB5B
:100AD000C0E730B40368202412682343036008236E
:100AE000C36130BC0023B5E780420000F3B5044683
:100AF000002081B020622046E1688847002872D03B
:100B0000252802D06268A168ABE0594F00267F44D7
:100B10002046E16888472028054608DB312D06D2AB
:100B2000781920380078002801D00643F0E7B00794
:100B300001D5042086430020E0610746A0612A2DEC
:100B40000AD0284603F0A8FE002827D0B8000019D4
:100B5000303D0090856119E00298BA00121902C870
:100B6000916102902046E1688847012F054617D120
:100B7000E06900281FDA202086431CE000980A2143
:100B80008069484300994019303888612046E168FF
:100B90008847054603F080FE0028EFD1012F0AD0D8
:100BA0002E2D08D12046E1688847054620200643BF
:100BB0007F1C022FC3DBA069002803DA4042A0613A
:100BC00001200643F00701D0102086436C2D0BD086
:100BD000682D09D04C2D3CD06A2D38D0742D38D0DA
:100BE0007A2D36D016E040E0E1682F46204688474F
:100BF000B842054609D16C2F29D001208002E16856
:100C0000064320468847054604E06C2F1DD0FF2090
:100C100001300643002D28D028464138192803D832
:100C20000120C00206432035204626602946029A4C
:100C30001646FFF797FA002810D001280BD0F61DB2
:100C4000F008C0000830029055E74020E1E780201E
:100C5000D5E70020D3E7361D02964CE762682846A8
:100C6000A1689047206A401C44E7206AFEBD00004E
:100C7000FA4100000B4670B5024689078008084318
:100C800019469D08141AA9412509080705430809B2
:100C90002C194841250A01060D43010A2C1941412E
:100CA000200C0D0428430D0C00194D410021401962
:100CB0004D41C00869070843E908840F8D002543AA
:100CC000840024184D4124196D41121BAB4107E0EB
:100CD0000925ED432C11521963410024401C614148
:100CE0001C460A250026551BB441F1D270BDFFB544
:100CF00004460D4681B0243000902168880604D552
:100D00001022E0699143216000E00120A84201DD4A
:100D1000471B00E000270498A1697A191018081AE7
:100D2000A0612078C00602D42046FFF7F8FC002618
:100D300008E003986268A168805D9047206A401CC3
:100D4000761C206204988642F3DB2078C0060AD520
:100D50002046FFF7E4FC06E06268A1683020904777
:100D6000206A401C206238467F1E0028F4DC07E021
:100D700000986268A168405D9047206A401C20622C
:100D800028466D1E0028F3DC2046FFF7DEFC2078A5
:100D9000000602D5022005B0F0BD0120FBE70000EF
:100DA000FFB50C461E468FB003CA089009914F004C
:100DB0007D0D00D16D1E002108460020C046032194
:100DC000099A89050840002A03DA82008018400841
:100DD0000840800D01280A9002DD0020C0430A90DF
:100DE000089807430DD0F048F049281848430714E5
:100DF000189800281DD07542291E1DDD0A98424210
:100E00001BE01898012802D00020302104E00020C7
:100E1000F24305E02154401CB042FBDB3046002287
:100E2000189B002121540F998B600A60486013B011
:100E3000F0BDBD1B6D1CDFE70A9A002900DA69428C
:100E40000BA800F079FC0BAB07CB03AB07C30899E9
:100E5000099800F0DDFC6B4607C30146D448091829
:100E6000002D00910BDDD24903980A9A494240189F
:100E7000002303A90390684600F03AFF08E00399B5
:100E80000A9A0023081803A90390684600F0DAFEC6
:100E90006B4607C30004000C03D00020C043410888
:100EA00000E01046189A002A03D00022009215464E
:100EB0001EE0751E05D4FFF7DDFE303262556D1E53
:100EC000F9D501220843079602D000227F1C04E0D6
:100ED0002078302801D100227F1E002A069787D073
:100EE0001EE0112D07DAFFF7C5FE303262556D1C8A
:100EF00002460A43F5D1084303D00098002819D0D0
:100F00000EE00021681E05E0235C625C63542254FD
:100F1000401E491C8142F7DBA81B401E0795069026
:100F2000079A18990020A0540F98079B069A816091
:100F30000CC07CE711260020189059E7D21DF0B5AF
:100F40000D460446D10893B0C90003C90C900D9119
:100F500003F05CFC02460D98C00F01D02D2007E085
:100F60002068810701D52B2002E04007C00F400117
:100F7000032A0F9001D0072A05DB034629462046A5
:100F800000F096FB0EE12078800601D5E76900E0CD
:100F900006272846652D04D0662814D0672D69D110
:100FA0002DE00020112F009001DB112300E07B1CBD
:100FB0000CAA03A910A8FFF7F3FE119900261098B8
:100FC0007D1C0E9142E001203B460CAAC0070B900D
:100FD0000120009003A910A8FFF7E2FE119D1298CE
:100FE0001099002600280E9501D1781C0D18781B49
:100FF00002D446427D1C761EE81B00903AE0012F89
:1010000000DA01270020112F009001DD112300E0FC
:101010003B460CAA03A910A8FFF7C2FE11993D4652
:10102000109800260E91217809070BD40E99A94239
:1010300000DA0D4603A9012D04DD4A19203AD27FBA
:10104000302A06D0B84201DA011D04DA01210091EC
:101050000FE06D1EEFE7002802DC86192D1A03E071
:10106000411CA94200DD0D46801B401C0090012060
:10107000C0070B902078000705D40098A84202DB37
:101080000020C043009069460020C8720B980121DF
:1010900002AF0337C907884225D0022010902B20C9
:1010A00011900B9800280BDA40420B902D201190E4
:1010B00006E00B9800F039FA30317F1E0B90397042
:1010C0001099481E00291090F3DC0B980028F0D1ED
:1010D00011987F1E38702088000501D5452000E05A
:1010E00065207F1E387001A8C01BC01D0B900F9893
:1010F000002800D0012041190098C01709180B984A
:101100000818A169081A401EA0612078C00602D400
:101110002046FFF704FB0F98002805D06268A168FD
:101120009047206A401C20622078C00625D52046C2
:10113000FFF7F5FA21E0002E07DB0E98B04204DD40
:1011400003A86268805DA16802E06268A16830203F
:101150009047206A761C401C20620098401E0028A0
:1011600000900AD100F0A0FAC06862680168405C93
:10117000A1689047206A401C206228466D1E002806
:10118000D9DC07E062683878A1687F1C9047206A44
:10119000401C20620B99481E00290B90F2DC20466F
:1011A000FFF7D3FA032042E601FCFFFF104D0000D9
:1011B000E1DFFFFFD21DF0B504460D46D0088DB02B
:1011C000C000466807683146384603F01FFB0246F8
:1011D000F00F01D02D2307E02068810701D52B23D4
:1011E00002E04007C00F43016846002B037001D0A6
:1011F000012000E00020032A0A9001D0072A04DB26
:101200002946204600F054FA2DE12078800601D4CA
:101210000D2500E0E5697000400D0D2D01904BDAC1
:10122000300D00210B9008460020C046032189059F
:101230000840002E05DA82008018C20F10184010F6
:1012400008408015012801DD0020C043A9000023CB
:10125000182906D39C460A460123183A1B07D34097
:1012600003E001221205CA4094460C31202902D322
:101270003A46203900E032468A40002802DD002A42
:1012800006D119E0002817D10121C9078A4213D3DA
:10129000194663467F185E41002806D10120C00729
:1012A000824202D1084687439E430B98310D81420A
:1012B00002D00198401C01902088000502D5714998
:1012C000794402E06F49794419396B460A98302213
:1012D0001A540A980A7C401C1A54401C0A9001981F
:1012E000002801DC302000E031201872019A012032
:1012F000002A02D0644BD21804E072003A4302D0B4
:10130000614A521C0192002D02DC2278120703D59B
:101310006A462E20507202200022864694460CE037
:1013200032033601120F6D1E8B5C02AA1354624603
:10133000521C401C9446052A01DA002DF0DC0022E4
:1013400002AE08E03B0F3F01CB5C521C6D1E3354D4
:10135000401C082A01DA002DF4DC23689A0601D526
:1013600011E0401E704504DD3218203AD27F302A49
:10137000F7D0002807DD3218203AD27F2E2A02D17A
:101380001A0700D4401E002D03DD3E223254401CBB
:101390006D1E497C31540199401C002906DA2D212B
:1013A000471C315401984042019003E02B21471C17
:1013B000315401987D21C900884206DBFEF7A4FF65
:1013C0003030F0557F1C019101E0642808DB019862
:1013D0006421FEF799FF3030F0557F1C019101E048
:1013E0000A2806DB01980A21FEF78EFF3030F055FF
:1013F0007F1C01980A21FEF787FF3031F1550A98CA
:10140000A1697F1C7A191018081AA0612078C006FB
:1014100002D42046FFF783F9216A6E460A9808181D
:10142000206204E062683078A168761C90470A98D0
:10143000401E0A90401CF5D12078C00602D52046F7
:10144000FFF76DF902AE09E03078761C3E280DD02A
:101450006268A1689047206A401C20627F1EF3D218
:101460002046FFF772F90DB00320F0BD206A401945
:10147000206203E06268A168302090476D1EEDD3C2
:10148000F8E700006C3A000001FCFFFF10B543696B
:10149000002B02D0C046C04601E0FFF779F90120D9
:1014A00010BD1278014624310A7000224A700122D0
:1014B000ECE711680022D243E8E710B54369002B3E
:1014C00002D0C046C04601E0FFF7F6F9012010BD8A
:1014D00012880146243182840022C2840122ECE772
:1014E00011680022D243E8E7F8B516460C460546D7
:1014F00000F0D2F80368FF200230C05C012807D05A
:10150000FF2C0FD8185D00280CD001202C70F8BDDE
:10151000FF333246214608331868C718284600238F
:10152000B847F8BD0020C043F8BD01468008081A3E
:1015300002091018020A1018020C1018C0088200C4
:1015400012185200891A01E0401C0A390A29FBD2FC
:1015500070470000F8B5264C4E00069DA6420AD8FA
:10156000A64201D1002806D15E00A64203D8A642B9
:101570000AD1002A08D00D242404254233D029465C
:10158000002000F00DFCF8BD0C461C4311D499421C
:1015900007D0C81A02D3EFF30080F8BDEFF3008044
:1015A000F8BD801A02D3EFF30080F8BDEFF300809E
:1015B000F8BD09242407E5008B4207D0581A02D34E
:1015C000EFF3008006E0EFF3008007E0101A03D38A
:1015D000EFF30080A04303E0EFF30080A043284333
:1015E00080F30088F8BD009500F0F2FBF8BD000024
:1015F0000000E0FF10B5FF231B0644009C421DD8ED
:101600004C009C421AD80346124A0B4307D4401A96
:1016100002D3EFF3008010BDEFF3008010BD081A75
:1016200003D3EFF30080904305E0EFF30080012146
:101630009043C907084380F3008810BD0D231B04A5
:101640001A4204D01146002000F0AAFB10BD00F0A1
:10165000C9FB10BD00000090754600F0CBFBAE4604
:10166000050069465346C008C000854618B020B53D
:10167000FEF712FE60BCB64600260027C0C5C0C5F6
:10168000C0C5C0C5C0C5C0C5C0C5C0C5403D49086E
:1016900049008D467047000010B500F005F8001DA8
:1016A00010BD00BF31320000004870477800202094
:1016B000F8B51F46044601230068DB0203260146F5
:1016C0001840072A05DB002801D017A506E017A55A
:1016D00004E0002801D016A500E016A510208143E3
:1016E0002160A069C01E002FA06101D0401EA06132
:1016F0002046FFF714F8002F09D038466268A16829
:101700009047206A401C2062C01C206206E0206ACC
:10171000FAE762682878A1686D1C9047761EF8D2B7
:101720002046FFF712F8F8BD4E414E006E616E0084
:10173000494E4600696E6600F7B516468AB03348D2
:1017400078446C4603467C33C06F5A689B680DC46E
:101750002E487844763003AC0DC80DC43720C00144
:10176000081837211B30FEF7CFFD05460C46803D9B
:101770001B3C02D56442012000E0002000270990B4
:1017800010E0E0070CD00C20204978437944324621
:101790004C3941186846012300F054FA6B4607C3E0
:1017A00064107F1C002CECD1184F7F442E3F16E0B4
:1017B000E80712D02001C0190EC8069108930792BD
:1017C0000068F04201D1981908903246012306A919
:1017D00003A800F037FA03AB07C36D10641C002D9B
:1017E000E6D10998002806D032466946012303A8AD
:1017F00000F07EFA05E001233246694603A800F0B6
:1018000021FA0A9B07C30DB0F0BD000000360000AE
:10181000034640000A4610B5400D0BD00121C90710
:101820000F24A40200191C0364082143540D214312
:10183000D20207E000210120F2E7D40F4900214342
:101840005200401E0029F8DADB0FDB07184310BDF9
:10185000FFB50D46144685B04868516802F0BEFFDA
:1018600000910190A868A16802F0B8FF029103906E
:10187000A868616802F0B2FF029A121882420292CE
:1018800001D2012000E00020019A0B18D218002894
:10189000019202D08A4202D903E08A4201D2012099
:1018A00000E000200099081800906868A16802F024
:1018B00095FF029A12188242029201D2012000E0A2
:1018C0000020019A0B18D2180028019202D08A42F7
:1018D00002D903E08A4201D2012000E000200099F1
:1018E000081800902868216840004900400849080D
:1018F0004018FA49471814E001994000C90F0843FD
:101900000090019802994000C90F08430190029885
:1019100003994000C90F08430290039840007F1EBE
:10192000039000980028E7DA0898002801D0EC4ED0
:1019300000E00026B74201DA012000E00020002884
:1019400004902AD0F71BF806C00E15D0029B202168
:10195000091A039A8B401A430392029A019BC240D0
:101960008B401A430292019A009BC2408B4000991F
:101970001A430192C14000917B110DD06F460320A4
:10198000C11A03D500218200B95003E08A0081000A
:10199000BA587A50401EF3D537460398029900286A
:1019A00000D00120014308980291002808460CD07D
:1019B000002800D001200199019A4905084301211E
:1019C000D20AC902D202019200E001210E9B01223B
:1019D000D207012B02D0002B03D013E0002807D13F
:1019E00020E0904204D890420CD1019B0B4209D0D8
:1019F000019B5918019105D10099491C009101D111
:101A00007F1C009200280DD0102108460020C046FF
:101A10000498002806D00F98002803D00821084613
:101A20000020C04628682168019B009A4840C10FE9
:101A30000598C90739430EC009B0F0BDFFB587B09E
:101A4000099A089808995368926840688968964688
:101A50000022039317469446089A12685300099A85
:101A60005B081268520052089A1A9E4BD4180A9AC0
:101A7000002A01D0352200E04022069200220123F4
:101A800015460492DB07059324E0002D05D1754629
:101A90000346039E4D1BB34109D375466646039B1F
:101AA000491B049D9841059B7519AC465F416346EF
:101AB0003B4308D0059B049EDD0776082E435B0858
:101AC0000496059301E0521E641EC50FED074918E8
:101AD0004041521C069B9A42D7DB002D04D175462B
:101AE000039A6B1A824101D203200CE0039A0B4641
:101AF0006B404240134303D0014303D0012002E076
:101B0000022000E00020614601910021009702912F
:101B10000A99002905D0614640020143704B0191AA
:101B200002E08007002302909C4201DA012000E0DD
:101B3000002007003AD01A1BD006C00E15D0029D17
:101B40002021019C091AC5408C402543029C8C40F1
:101B500000D001242543019C0295009DC4408D4086
:101B600000992C430194C140009154111DD06D4641
:101B70000221002202290CD10320001B07E00028CB
:101B800004DB8600AE59002E00D00122401C032841
:101B9000F5DB081B02D588002A5004E08000285895
:101BA00010438A00A850491EE3D51C460A98002815
:101BB00002980CD0002800D001200199019A490513
:101BC00008430121D20AC902D202019200E0012198
:101BD000109B0122D207012B02D0002B03D013E06F
:101BE000002807D11FE0904204D890420CD1019BFD
:101BF0000B4209D0019B5918019105D10099491C4C
:101C0000009101D1641C009200280CD010210846DC
:101C10000020C046002F06D01198002803D00821CC
:101C200008460020C04608980999019A009B006860
:101C300009684840C10F0798C907214382600AC05C
:101C40000BB0F0BD00B585B0019300920A46014685
:101C5000002302A8FFF7FCFD02A807C805B000BDDD
:101C6000FFB50A461F4685B00799019301230091ED
:101C7000014602A8FFF7ECFD02990398049ECA0FE3
:101C80004900D20700920F22490892028C1A0021C3
:101C9000002800DB0C46450013486D08844214D32D
:101CA000079A002A04DA441E0026104DF64302E08B
:101CB00004460D460E46102108460020C046002F5F
:101CC00003D0042108460020C0462005E90A084345
:101CD000009908436905F20A1143ADE602C0FFFF0F
:101CE000013C0000FF3F0000FF070000FFFFFF7FF7
:101CF00000B585B0019300920A460146002302A870
:101D0000FFF79CFE02A807C8A8E7FFB50A461F46D2
:101D100085B00799019301230091014602A8FFF7BE
:101D20008DFE02990398049ECA0F4900D2070092C3
:101D30000F22490892028C1A0021002800DB0C4671
:101D4000450011486D08844214D3079A002A04DA2A
:101D5000441E00260D4DF64302E004460D460E4695
:101D6000102108460020C046002F03D00421084659
:101D70000020C0462005E90A084300990843690588
:101D8000F20A114358E60000FF070000FFFFFF7F43
:101D900010B50446C046C0462046FEF76FFA10BD97
:101DA000C80212D54803400F002804D0C803C0431E
:101DB000012188407047EFF30080000100090321F2
:101DC0000907084380F3008870470020704700002F
:101DD00010B500200249029A00F054F810BD00002E
:101DE0000000F87F10B5024800F04CF810BD00006C
:101DF0000000C07F0048704758002020024670B5A0
:101E00000A4392072AD11E4DEE0104C808C9541B8B
:101E10009443344017D0D0B2D9B2401A21060143BE
:101E200010D190B299B2401A210401430AD1100294
:101E30001902000A090A401A2102014302D1100EB8
:101E4000190E401A70BD9A42DFD010BA19BA8842F2
:101E500001D9012070BD0020C04370BD02780B780D
:101E6000401C491C002A09D09A4207D102780B78FD
:101E7000401C491C002A01D09A42EFD0D01A70BDF4
:101E80000101010110B50C461107090F092904D001
:101E90000A290AD008290CD104E011460820FFF7CE
:101EA0007FFF06E0510606D501E0510601D501206D
:101EB000C007214610BDD10607D501010909CC088C
:101EC0004907000E0006044309E0410F20024907BC
:101ED000000A0143200E00061D22D141014308469D
:101EE000E7E7000001491820ABBEFEE7260002002C
:101EF0007047000083B0029001910092029801990E
:101F00000843009908430549086003B07047C0467C
:101F100002480068072108407047C046001340404F
:101F200082B001900199881E001F00BFFCD2009072
:101F300002B0704784B00390029101920398006848
:101F40000090009801998843009000980299019AA6
:101F5000114008430399086004B0704784B00390AF
:101F600002910192039800680090009801998843BB
:101F7000009000980299019A114008430399086063
:101F800004B0704784B003900291019203980068F6
:101F90000090009801998843009000980299019A56
:101FA000114008430399086004B0704784B003905F
:101FB000029101920398006800900098019988436B
:101FC000009000980299019A114008430399086013
:101FD00004B0704784B003900291019203980068A6
:101FE0000090009801998843009000980299019A06
:101FF000114008430399086004B07047194800680D
:1020000019490860194800684860194800688860E4
:1020100018480068C86018480068086117480068D8
:10202000486117480068886116480068C86116480A
:1020300000680862154800684862154800688862B0
:1020400014480068C86214480068086313480068B0
:10205000486313480068886312480068C8631248E0
:10206000086470470000C441000020200400C441FF
:102070000800C4410C00C4411000C4411400C44114
:102080001800C4411C00C4412000C4412400C441C4
:102090002800C4412C00C4413000C4413400C44174
:1020A0003800C4413C00C441FECAFECA034800686F
:1020B000006C0349401841424841704744002020C9
:1020C0000235013582B00190009100980199952266
:1020D0005201885002B0704782B001900091009880
:1020E000019995225201885002B0704782B0019048
:1020F00000910098019995225201885002B07047D2
:1021000082B0019000910098019995225201885067
:1021100002B0704782B00190009100980199074A7F
:10212000885002B07047C04682B00190009100987C
:102130000199024A885002B07047C046D012000090
:1021400081B0009000990120C2026048885001B01F
:102150007047C04610B584B0069C0390029101926E
:10216000009302990198014300980143069A0120C7
:1021700003071A401143084A1143039A9300294A5E
:102180009950069BC0060340039881008858184365
:10219000885004B010BDC0468100040081B000909A
:1021A000009881001F4A8120885001B07047C046C6
:1021B00010B584B0069C039002910192009302989E
:1021C000019908430099084306990843812108436F
:1021D00003998900134A885004B010BD81B0009063
:1021E000009881000F4A0020885001B07047C04617
:1021F00082B0019000910098034908430199890039
:10220000084A885002B070478000040082B00190F4
:10221000009100988021084301998900014A885063
:1022200002B070470480424082B001900091019852
:102230002721C90140580099084002B070470000AA
:1022400081B000900099434A4348885001B07047DC
:1022500082B00190009100980199114A885002B013
:102260007047C04682B001900091009801990C4AD5
:10227000885002B07047C04682B00190009100982B
:102280000199074A885002B07047C04682B0019059
:10229000009100980199024A885002B07047C046E8
:1022A0009012000081B0009000991A4A88580123CA
:1022B0001843885001B0704781B000900099012008
:1022C000C2020248885001B07047C0460100002693
:1022D00080B582B001900091019811210902401847
:1022E000009A11895388194392791143084AFFF7DC
:1022F00035FE019807494018009A9188D37919430F
:10230000127811435D229200FFF728FE02B080BDD3
:102310007F3300000411000081B00090009808494C
:10232000405810210840000901B0704781B000906A
:102330000098034940580121084001B07047C04649
:102340001011000081B000900099024A02488850A4
:1023500001B0704704080000030000B180B582B0EE
:10236000019000910198044940180099034AFFF731
:10237000E1FD02B080BDC04608110000FF0300006F
:1023800082B001900091009800780199044A885029
:1023900000984078019901221203885002B07047DA
:1023A0000410000080B584B000920A4601460098EF
:1023B000039102A90A7001AA10700398044BC01877
:1023C0000978127811433F22FFF7B4FD04B080BDB5
:1023D0000C11000082B001906846017000780199EC
:1023E00045229201885002B07047000080B584B049
:1023F00003900291019203990298014301980143CD
:102400003F200204C048FFF7E5FD04B080BDC04690
:1024100080B586B0059000F08FF8FFF747FE0028E2
:1024200003D1FFE7FFF7EAFDFFE7FFE700F0B8F8A9
:10243000012189030840884201D0FFE7F6E70598AB
:10244000417E2948039001220192FFF7C3FD0598C0
:102450002021415C254802900322FFF7BBFDFFF7D6
:1024600057FD01460198049100210422FFF742FD27
:1024700002980599496A09681D4A11600599496AD7
:1024800049681C4A116004991B4A11600599C96981
:102490004906490C7F221202FFF79CFD0398059A1A
:1024A00011680907090B53681B039BB2C91893688D
:1024B0001B071B0DC918D3681943136919435369C6
:1024C0001943127E11430D4AFFF784FD00F05CF8BA
:1024D000FFE700F065F8012149020840884201D079
:1024E000FFE7F6E706B080BD20010B4024010B405A
:1024F00028010B402C010B400013404072FF0F00DD
:102500007349086801221207904308607047C0466B
:102510006249086801229043086070475F49086873
:1025200001229043086070475C490868012212024A
:10253000904308607047C04658490868012212025B
:10254000904308607047C04661490868012212073D
:10255000104308607047C0468F4908680122120383
:10256000104308607047C0460249086810221043B3
:10257000086070473C010B4048490868012212027C
:10258000104308607047C04644490868012212029F
:10259000104308607047C046034800687047C04653
:1025A000014800687047C04604020B4080B5FFF741
:1025B000F3FF012149060840400E80BD0148006834
:1025C0007047C04650010B4081B00146684601701B
:1025D00000780249086001B07047C04608030B400C
:1025E00080B582B0019001991F2002064648FFF78E
:1025F000A1FC02B080BDC04680B582B0014601A8F2
:10260000018001880F2002026348FFF793FC02B0AB
:1026100080BDC04680B582B0014601A80170007837
:1026200001030F2002033848FFF784FC02B080BD8D
:1026300080B584B003AB1880029101A80270FFF747
:1026400035FD002803D1FFE7FFF7D8FCFFE7FFF7D0
:1026500065FF03A8008800F023F8029800F02EF828
:102660000E49086801221043086001A80078C007DD
:1026700000280DD0FFE7FFF767FFFFE7FFF790FFA8
:10268000012109020840884201D0FFE7F6E702E095
:10269000FFF736FFFFE704B080BDC04608010B40DE
:1026A00080B582B0014601A80180018803200203A1
:1026B0000748FFF78FFC02B080BDC04680B582B0EE
:1026C000019001990248FF22FFF784FC02B080BD0F
:1026D00010010B4081B00146684601700078024944
:1026E000086001B07047C0460C010B4080B582B055
:1026F000014601A801800188012042020248FFF73B
:1027000019FC02B080BDC04638010B4080B582B0D4
:10271000014601A80170017802480322FFF70AFC74
:1027200002B080BD00010B4080B582B0014601A817
:102730000170017818483022FFF7FCFB02B080BD21
:1027400001490248086070472C030B400100000E4D
:1027500080B582B0014601A801700078FFF7BAFF8A
:10276000FFE7FFF71DFF012149050840884201D01E
:10277000FFE7F6E7084908680122120410430860E1
:10278000FFE7FFF70DFF10210840102801D0FFE7F9
:10279000F7E702B080BDC04604010B4082B0019053
:1027A000009100980199024A885002B07047C046D3
:1027B0004810000081B0009000990120C20230480A
:1027C000885001B07047C04681B00090009803491E
:1027D000405804210840800801B0704730100000C4
:1027E00081B000900099A84A0148885001B0704714
:1027F000010000B180B584B00191014601980391B8
:1028000002A9087003981122120280180978032285
:10281000FFF790FB04B080BD82B001906846017064
:1028200000780199014A885002B0704710110000E9
:1028300080B584B0019101460198039102A9087006
:102840000398112212028018097809020722120245
:10285000FFF770FB04B080BD81B000900099024A80
:102860000120885001B070470811000081B000902D
:1028700000990120C2020248885001B07047C0464A
:102880000100002680B58CB00B900A910A9840791F
:10289000C00700285BD0FFE70A980079079000285E
:1028A00004D0FFE7079820280CD017E00B98882168
:1028B0000691022200F00CF906990B98032200F011
:1028C00007F918E00B986A490591022200F000F917
:1028D00005990B98032200F0FBF80CE00B980521FA
:1028E000C9010491022200F0F3F804990B98032225
:1028F00000F0EEF8FFE70B9800220292022301930A
:10290000114600F0FFF8029A0B9803230393114637
:1029100000F0F8F80199029B0B98009119461A46AD
:1029200000F028F9029B03990B98009119461A466A
:1029300000F020F9019B029A0B98114600F000F973
:10294000029A039B0B98114600F0FAF8FFE70A98E9
:10295000006808900A98007908A908710A98807997
:1029600088710B9800F002F80CB080BD80B58AB079
:1029700009900891089800790790002804D0FFE793
:102980000798202812D029E0099808990968491E5B
:1029900000F068F9099888210691002200F098F863
:1029A00006990998012200F093F82AE009980899FD
:1029B0000968491E00F056F909982D490491002232
:1029C00000F086F8049909980122059200F080F839
:1029D00005990998490700F035F912E00998089916
:1029E0000968490800F03EF909980521C9010391D9
:1029F000002200F06DF803990998012200F068F8B0
:102A0000FFE709980023019319461A4600F07AF867
:102A1000019A099801230293114600F073F8019B73
:102A20000998009319461A4600F0A4F8019B0299F0
:102A30000998009119461A4600F09CF8019B0998E4
:102A400019461A4600F07CF8019A029B0998114633
:102A500000F076F8099882494018089A117992791D
:102A6000114302221143034AFFF78CFA0AB080BDDA
:102A700001040000BFFF003081B000900099BC4A03
:102A8000BC48885001B070470408000082B0019033
:102A900000910098019911221202885002B07047EB
:102AA00080B584B00390029101A802700399224A74
:102AB00089180091017800988900401800900098CA
:102AC000029907229204FFF75DFA04B080BDC04668
:102AD00080B584B00390029101A802700399074A5F
:102AE000891800910178009889004018009000989A
:102AF0000299034AFFF746FA04B080BD701800003F
:102B0000DBB6C1FF10B586B005900491039202A810
:102B100003700599084A8918019101780198890084
:102B20004018019001980499039A1143034AFFF752
:102B300029FA06B010BDC0463018000077770200B1
:102B400010B586B005900491039202A80370059910
:102B50003122D20189180191017801988900401829
:102B6000019001980499039A11438F22FFF70AFA02
:102B700006B010BD10B587B00091044600980999C1
:102B8000069405900492039302A801700699084ADE
:102B900089180191017801988900401801900598E1
:102BA00004990843039908430199086007B010BDD0
:102BB0005018000084B00390029101A8027003999C
:102BC000064A891800910178009889004018009001
:102BD00002980099086004B07047C04610180000C1
:102BE00082B0019000910098007801997D4A885048
:102BF000009840780199012212038850009880784B
:102C00000199934A885002B07047C04610B586B00B
:102C100001930B4601460198059104A90B8003AB73
:102C20001A8002AA108005980D4C001909881B888B
:102C3000194312881143024AFFF77CF906B010BD10
:102C400080FF000080B582B0019000910198044996
:102C50004018009903221207FFF794F902B080BDD3
:102C60000418000082B00190009100980199024A76
:102C7000885002B07047C0460818000081B000902C
:102C8000009911200202885801239843885001B00E
:102C9000704781B0009000991120020288580123EA
:102CA0001843885001B0704781B0009000991120FE
:102CB0000202885801235B041843885001B0704712
:102CC00081B0009000990120C2020248885001B0F2
:102CD0007047C0460100002680B582B00190009187
:102CE0000198FFF7CBFF0198112109024018009AC3
:102CF00011889378194392881143084AFFF756F9CF
:102D000001982F494018009A9179D3791943127A82
:102D100011437E22FFF74AF902B080BD1867020016
:102D200081B000900098084940580121084001B046
:102D30007047C04681B00090009803494058042174
:102D40000840800801B070470811000081B0009071
:102D5000009802494058C0B201B0704724110000E9
:102D600081B000900099024A0248885001B0704733
:102D700004080000030000B180B584B00390029104
:102D8000019203980B49401802990B4AFFF7D2F8B9
:102D900003980A49401801993F22FFF7CBF803999D
:102DA000074A8818895801221140FFF7C3F804B078
:102DB00080BDC04610110000FFFF0000141100008C
:102DC0000411000082B001900091009800780199F0
:102DD000044A8850009840780199012212038850D3
:102DE00002B070470810000080B582B001900091D9
:102DF000019811210902401800990322D203FFF71C
:102E000099F802B080BD000080B584B00191014600
:102E10000198039102A9087003980D4A8018097857
:102E20007022FFF787F804B080BDC04680B584B03B
:102E3000019101460198039102A908700398044A80
:102E4000801809780722FFF775F804B080BDC046E6
:102E50000C11000082B00190684601700078019961
:102E600089225201885002B0704780B584B003A90E
:102E700000200870FFE703A80078072828DCFFE798
:102E80000398B030C0B20021019100F05BF90199C4
:102E9000022000F057F90199102000F053F9019831
:102EA00002A90870FFE702A800787F280ADCFFE784
:102EB0000020012100F046F9FFE70298401C02A91A
:102EC0000870F0E7FFE70398401C03A90870D2E7F9
:102ED00004B080BD80B582B08D200021019100F04A
:102EE00031F90199142000F02DF90199AF2000F07B
:102EF00029F902B080BD000080B586B000F064F909
:102F00004248FFF70DF8AE200021059100F01AF9B4
:102F100005990220029000F015F90599102000F0A3
:102F200011F905994020019000F00CF905998120D4
:102F300000F008F90599CF2000F004F90599A120C7
:102F400000F000F90599C82000F0FCF80599A620CA
:102F5000039000F0F7F80599A82000F0F3F8059920
:102F60003F2000F0EFF80599D32000F0EBF8059929
:102F7000084600F0E7F80599D52000F0E3F8059938
:102F8000802000F0DFF80599D92000F0DBF80599E2
:102F9000F12000F0D7F80599DA2000F0D3F8059970
:102FA000122000F0CFF80599DB2000F0CBF8019853
:102FB000059900F0C7F80599202000F0C3F80298A1
:102FC000059900F0BFF805998D2000F0BBF8059930
:102FD000142000F0B7F80599A42000F0B3F8039886
:102FE000059900F0AFF80599AF20049000F0AAF819
:102FF0000498059900F0A6F8FFF737FFFFF76AFF7E
:103000000599084600F004F806B080BD00127A0069
:1030100080B586B001910246019805A902910A7017
:1030200004AA10700598801C08700498B030C0B2D3
:103030000021039100F086F80298039900780009B6
:10304000103000F07FF80298039900780F221040AA
:1030500000F078F806B080BD80B586B0034605A8BC
:10306000037004AB197003A90A7002AA0021117041
:1030700001AB19700399203911700078802808DBA2
:10308000FFE705A9002008700498801C04A90870B7
:10309000FFE705A8007804A90978FFF7B9FF01A99F
:1030A00000200870FFE701A80078052812DCFFE780
:1030B00002A80078062141430748401801A9097871
:1030C000405C012100F03EF8FFE70198401C01A997
:1030D0000870E8E706B080BDD84D000080B586B026
:1030E00005AB187004A80170039202A900200870B3
:1030F000FFE7039802A90978405C002820D0FFE789
:1031000005A80190007804A90978039A02AB1B78FE
:10311000D25CFFF7A1FF0198059908310170007892
:10312000792808DBFFE705A9002008700498801CB7
:1031300004A90870FFE70298401C02A90870D8E7AC
:1031400006B080BD80B586B005AA107004A80170D5
:103150000078002806D0FFE7012001027C48FFF735
:1031600077F805E0012001027948FEF7ABFFFFE7A1
:10317000012041027648FEF7A5FF05A801788548A1
:10318000FFF728F9FFE78348FFF7D0F8002801D1BF
:10319000FFE7F8E7FFE77F48FFF7BEF8002801D018
:1031A000FFE7F8E70520FEF7BBFE01200190410292
:1031B00067480290FFF74CF8019902980902FFF75F
:1031C00047F806B080BDC04680B584B001200090AD
:1031D00041025F48FFF73CF86420019000F0D5FA07
:1031E0000098C10503915B480290FFF731F8019800
:1031F00000F0CBFA02980399FEF764FF019800F003
:10320000C4FA02980399FFF723F804B080BDC046C2
:1032100080B58CB00920FEF7E1FF0A20FEF7DEFF43
:103220004B2005210291FEF7F1FF49480B90042144
:10323000FEF77AFF02994D20FEF7E8FF0B98102168
:10324000FEF772FF1A2006210391FEF7DFFF0399B4
:103250001B20FEF7CDFF0F200B210491FEF7D6FFB8
:1032600004990E20FEF7D2FF3220FEF797FF55207B
:10327000FEF794FF00230893009301200590420479
:10328000079256201946FEF793FF079A089B009372
:1032900016201946FEF78CFF079A089B009317200B
:1032A0001946FEF785FF079A089B009318201946D8
:1032B000FEF77EFF079A089B009319201946FEF738
:1032C00077FF0598079A08990091C30406932F2069
:1032D000FEF740FF069B079A089900913320FEF7FE
:1032E00039FF069B079A089900913720FEF732FFB5
:1032F000069B079A089900913920FEF72BFF079A41
:10330000089B00934E201946FEF752FF079A089B30
:1033100000934C201946FEF74BFFEF4809900E49E9
:103320000A91FEF7EDFE09980A99FEF7FDFE0B984B
:1033300003210902FEF7E4FE0B982821FEF7A6FF01
:103340000B986521C900FEF7EFFE0CB080BDC046AA
:1033500000400A4000200A40C003800080B582B0CF
:103360000B49E0480190FFF70BF801980A49FEF776
:10337000AFFF01980121FEF7F1FF01981021022211
:10338000FFF710F80198FEF78DFF02B080BDC04630
:1033900010500000008046401250000080B588B0F8
:1033A00007A9002002900870FFF71AF9029801227D
:1033B00011059204FFF71AF802980390FFF7C0F97D
:1033C000FFE7FFF7F3F800280CD1FFE72A48FEF7E4
:1033D000A7FD0398401C03900398422801D3FFE700
:1033E00000E0EEE7FFF7EAF805900120010542044E
:1033F00000200190FEF7FAFF01980390FFF7A0F973
:10340000FFE7FFF7D3F800280CD1FFE71A48FEF7D3
:1034100087FD0398401C03900398422801D3FFE7DF
:1034200000E0EEE7FFF7CAF8069005997D20C0009E
:1034300048430699FCF75EFF04900498FDF73CF8BA
:1034400000220E4B01F003FA00280FD1FFE7049889
:10345000FDF732F80022D243094B01F0EDF90028C4
:1034600004D1FFE707A901200870FFE707A800784B
:103470000121084008B080BDD103000000289F4012
:10348000FF579F4080B582B000200190FFF79CF865
:1034900001204002FFF7B0F80198FFF737F9FFF776
:1034A00037F8FFF741F8019A032000030A21FFF7DC
:1034B000BFF81548FEF7ACFFFFE7FFF76FFF0028E6
:1034C0000FD1FFE7FFF730F8FFF756F8FFE7FFF7F8
:1034D00063F8012149020840884201D0FFE7F6E77E
:1034E000EBE71020FFF720F90920FFF793F8FFF72B
:1034F00033F8FFF739F801204002FFF7F7F8002012
:10350000FFF726F902B080BD1C50000080B582B0E4
:10351000754801900721FFF77FF901980321FFF714
:1035200069F9FFE77048FFF74FF9002801D1FFE77D
:10353000F8E76D4800900421FFF730F90098032167
:10354000FFF776F902B080BD80B586B01F496448A8
:103550000590FFF745FB05981D49FFF793F905987E
:103560000023029319461A46FFF750FB029B059869
:10357000009319461A46FFF7FDFA029A059811467C
:10358000FFF78EFA029A05987D21C9000391FFF793
:1035900011FB029B059801210491009119461A46DE
:1035A000FFF7E8FA0299049A0598FFF779FA039968
:1035B000049A0598FFF7FEFA0598FFF74DF905986C
:1035C0000321FFF763FA06B080BDC04644500000F7
:1035D0004850000080B582B01049F9480190FFF7CB
:1035E000F1FB01980E49FFF777FB01980021FFF7E7
:1035F000FBFB01982B211A22FFF7BEFB0198FFF776
:1036000053FB01982021FFF7FFFB01980221FFF7F0
:103610000DFC0198FFF73DFB02B080BD505000004B
:103620005250000080B500F01DF8FFF7F1FDFFF7E4
:1036300029FFFFF789FFFFF7CDFFFFF78FFEFFF7A9
:1036400065FF0549B8220020885404492422885483
:103650000349087380BDC046F0002020B800202038
:10366000E000202080B588B01A480190FEF7E8FD00
:1036700083480290FEF7E4FD18480390FEF7E0FD52
:1036800017480490FFF7F8F9F3480590FFF768FB37
:1036900014480690FEF756FE13480790FFF7A0F86F
:1036A0000198FEF74DFD0298FEF74AFD0398FEF7DC
:1036B00047FD0498FFF7DAF80598FFF701FB069835
:1036C000FEF7FAFD0798FFF775F81020FEF728FCC3
:1036D00008B080BD00000A4000200A4000400A40B7
:1036E00000008640008046400040444080B584B0E1
:1036F000024603A80270029100780190042838D88D
:103700000198810001A040588746C04671370000EB
:103710002137000033370000493700005D370000D3
:103720000299002000F072FF0299012000F06EFF64
:1037300029E002984142002000F068FF02984142CF
:10374000012000F063FF1EE00299002000F05EFF00
:1037500002984142012000F059FF14E002984142D2
:10376000002000F053FF0299012000F04FFF0AE013
:10377000FFE700210091084600F048FF0099012072
:1037800000F044FFFFE704B080BD80B582B0019037
:1037900001997D20C000484300F002F802B080BDCE
:1037A00080B582B00190019950204843FEF7B8FBE4
:1037B00002B080BD80B584B0002002900190FFE788
:1037C0000198032833DCFFE701988100264841581F
:1037D000A648FEF781FC0520FEF7A2FB0020009022
:1037E000FFE70098032816DCFFE7009881001F48D8
:1037F00041589E48FEF718FD002807D1FFE70198C1
:10380000800000994018401C0290FFE7FFE70098F5
:10381000401C0090E5E70198810013484158934807
:10382000FEF720FDFFE70198401C0190C8E70298D1
:10383000002804D1FFE703A9002008700DE00298DA
:10384000411EC817800F0A180320824305488018BC
:10385000891A405C03A90870FFE703A8007804B048
:1038600080BDC0465C5000006C500000005000005D
:1038700080B5012081027D48FEF74CFC80BDC0462A
:1038800000200A4080B586B00490FFE77248FFF739
:1038900051FA002804D1FFE76F48FFF757FAF5E720
:1038A00005200022114600F08DF824481421244AF6
:1038B00000F048F803900398002804D5FFE70020A3
:1038C000C043059037E01D4800785A280AD1FFE729
:1038D0001A484078052805D1FFE718488078002865
:1038E00004D0FFE70120C043059024E000200290AF
:1038F000FFE7029807281ADCFFE7029840000F4A0A
:103900008018007901A90870029840008018407959
:103910006A46107000980002097840180499029ACB
:1039200052008852FFE70298401C0290E1E70348EA
:10393000C0780590FFE7059806B080BDD001202033
:1039400050C3000010B586B0059004A80170039222
:1039500002A900200870FFE702A8007804A90978EE
:1039600088421ADAFFE73C48FFF7E4F900280AD159
:10397000FFE73948FFF7EAF9059902AC2278531CB2
:103980002370885408E00398002801D1FFE704E081
:103990000398401E0390FFE7DEE702A8007804A921
:1039A0000978884204DBFFE702A80078019003E071
:1039B0000020C0430190FFE7019806B010BDC0464B
:1039C0000020504080B584B003AB1870029101A86C
:1039D0000270FFE72048FFF7A3F9002801D0FFE7B6
:1039E000F8E71D48A521FFF735FAFFE71A48FFF76A
:1039F00097F9002801D0FFE7F8E703A801781648F7
:103A0000FFF728FAFFE71448FFF78AF9002801D0EA
:103A1000FFE7F8E7694600200870FFE7684600788E
:103A200001A90978884215DAFFE702986946097802
:103A3000415C0948FFF70EFAFFE70748FFF770F906
:103A4000002801D0FFE7F8E7FFE70098401C69462F
:103A50000870E3E704B080BD0020504080B50F201F
:103A600081010248FEF7FEFB80BDC04600200A40EF
:103A7000B84800687047C046B54800687047C046FF
:103A8000B24800687047C046AF4800687047C046FB
:103A9000A94900200860AB490860A24901200870CC
:103AA0007047C04681B000900098AA49086001B0F4
:103AB0007047C04681B000900098A549086001B0E9
:103AC0007047C04681B000900098A049086001B0DE
:103AD0007047C04681B0009000989B49086001B0D3
:103AE0007047C04680B598B0179016911592002087
:103AF000149013908B480078002803D1FFE7FFF75C
:103B0000C7FFFFE700201290FFE7129807282BDC81
:103B1000FFE7179812994900415A7D2002010120C0
:103B200000230B9391420C9001DB0B980C900C99A5
:103B300011A80A900170017812984843FCF7E4FD3F
:103B40000146149800F040FF01460A98149100784D
:103B5000FCF7E2FD0146139800F036FF1390FFE7F3
:103B60001298401C1290D0E713986F4900F07CFE29
:103B7000002803D1FFE76E48109010E013986B49BE
:103B800000F07DFE002803D1FFE76948109005E0B2
:103B900014981399FCF7BEFC1090FFE7FFE710980C
:103BA000644900F011FF0F900F9963480990006875
:103BB00000F00AFF01460998016000685F4900F0C3
:103BC0005EFE002804D1FFE75B495C480860FFE720
:103BD000594800685A4900F047FE002804D1FFE721
:103BE000554957480860FFE70F98564903910968FF
:103BF00000F0DCFF03990E900F98086052480068AF
:103C0000FCF782FD05900F98049050480068FCF77F
:103C10007BFD4949096800F071FF04990246059847
:103C2000069200F06BFF069900F0CEFE0790484820
:103C30000068FCF769FD0E9900F060FF079900F03D
:103C4000C3FE0D900D98089042480068FCF75CFD9B
:103C50000146089800F013FE002806D1FFE73D4812
:103C60000068FCF751FD0D90FFE70D980290394870
:103C700000684042FCF748FD0146029800F0F4FD60
:103C8000002807D1FFE7334800684042FCF73CFDBD
:103C90000D90FFE72F4801900068FCF735FD0D9966
:103CA00000F092FEFCF7E6FC01460198169A11809E
:103CB0000068FCF729FD0D9900F078FFFCF7DAFCAD
:103CC0001599088016980021405E2349884205DB3B
:103CD000FFE716997D20C0000880FFE716980021B5
:103CE000405E1E49884204DCFFE716991C480880A4
:103CF000FFE715980021405E1749884205DBFFE782
:103D000015997D20C0000880FFE715980021405ECE
:103D10001249884204DCFFE7159911480880FFE743
:103D200018B080BDB4012020CDCCCC3DCDCCFC4022
:103D300000006040000060C0B80120200000C842C0
:103D40000000C8C2BC0120204C002020B00120206F
:103D5000AC01202048002020E903000017FCFFFFF1
:103D600018FC000010B5DAB0002024905990FFF73D
:103D700059FC249857A90870FFF7BEF8FFF775F8AB
:103D8000FFF76CFE00F028FCFFF772FD4E4800685C
:103D900000F0DEFCFFE7FFF70DFD014658A80170BB
:103DA0000078002800D1DCE258A8007857A90978EB
:103DB000884200D1D5E2589857A908704348007846
:103DC000C007002833D0FFE758A8007842282ED03B
:103DD000FFE758A800782A2829D0FFE758A80078DC
:103DE000312807DBFFE758A8017801203A29239002
:103DF00007DBFFE758A8007841384142484123904B
:103E0000FFE723990120014056A801700078C00700
:103E100000280BD1FFE72D48002101702C480170CC
:103E20002C4801700846FFF761FCFFE7FFE758A840
:103E30000078233822901F2800D990E22298810030
:103E400001A040588746C046C13F00005F430000C4
:103E50005F4300005F4300005F4300005F430000DA
:103E60005F430000A74100005F4300005F43000084
:103E70005F4300005F4300005F43000031410000EA
:103E8000D93E0000FD3F00004B3F0000794000009C
:103E9000F5400000B74000004B4100003B400000EF
:103EA0004B4100005F4300005F4300005F430000A0
:103EB0005F4300005F4300005F4300005F4300007A
:103EC000C5410000AB42000050002020C40120206A
:103ED000C5012020C0012020F9480078C007002833
:103EE0000BD0FFE7FFF7CCFD55905598401EFFF72C
:103EF000E9FDF4490120087026E0F34801686439BF
:103F000001600068002804D5FFE7EF490020086041
:103F1000FFE7EE480078EC491F910968FFF7E6FBE0
:103F20001F980368EA4A50A820901121FCF7C2F9B3
:103F3000209A002121910846FFF7D0F82198E54A00
:103F40000621FFF7CBF8FFE70AE2DD480078C0075B
:103F500000280BD0FFE7FFF793FD4F904F98401CD0
:103F6000FFF7B0FDD7490120087028E0D648016866
:103F7000643101600068D849884205DBFFE7D24917
:103F80007D20C0000860FFE7D0480078CE491C9132
:103F90000968FFF7ABFB1C980368CD4A4AA81D903F
:103FA0001121FCF787F91D9A00211E910846FFF7A1
:103FB00095F81E98C94A0621FFF790F8FFE7CFE170
:103FC000C14919917D2080000860C04800780968C7
:103FD000FFF78CFB19980368BD4A45A81A90112178
:103FE000FCF768F91A9A00211B910846FFF776F84A
:103FF0001B98BB4A0621FFF771F8B1E1B048007881
:10400000C00700280BD0FFE7FFF736FD4490449827
:10401000401EFFF74FFDAB49012008700CE0AB4993
:1040200001200870A8490968FFF760FBAD4A00202D
:104030000621FFF753F8FFE792E1A1480078C00797
:1040400000280BD0FFE7FFF717FD43904398401C73
:10405000FFF730FD9B49012008700CE09B490220CE
:10406000087099490968FFF741FB9F4A0020062123
:10407000FFF734F8FFE773E191480078C0070028A4
:104080000BD0FFE7FFF700FD429042980A38FFF798
:1040900021FD8C49012008700CE08C490320087038
:1040A00089490968FFF722FB904A00200621FFF7A3
:1040B00015F8FFE754E182480078C00700280BD0CC
:1040C000FFE7FFF7E1FC419041980A30FFF702FD5E
:1040D0007C49012008700CE07C49042008707A4972
:1040E0000968FFF703FB824A00200621FEF7F6FF6E
:1040F000FFE735E172480078C00700280AD0FFE7E3
:104100007248002101700846FFF7F0FA6D4901205E
:1041100008700CE06D480021189101700846FFF707
:10412000E5FA1898734A0621FEF7D8FFFFE717E172
:1041300066480021179101700846FFF7D7FA1798D3
:104140006D4A0621FEF7CAFF0AE15D480078C00704
:10415000002827D0FFE7FFF78BFC409058A8007895
:10416000372804D1FFE740983238409003E0409868
:1041700032304090FFE74098002803D5FFE7002049
:104180004090FFE740985449884204DBFFE77D20D8
:10419000C0004090FFE74098FFF784FCF3490120FE
:1041A0000870FFE7DCE0F04800210170EF48017083
:1041B000EF4801700846FFF799FAEA48006800F0F6
:1041C000C7FACDE0E8480078C007002806D0FFE72E
:1041D000E6490A7801209043087065E03CA8FFF7A3
:1041E00051FB36903698002842D4FFE73CA8139044
:1041F000038840880090E94A37A81590112114914E
:10420000FCF758F8159A002116910846FEF766FF4C
:10421000139A149915989388D2880092E04AFCF773
:1042200049F8159A16980121FEF758FF139A149928
:104230001598138952890092DA4AFCF73BF8159ACF
:1042400016980221FEF74AFF139A1499159893893C
:10425000D2890092D44AFCF72DF8159A16980321BA
:10426000FEF73CFF1698D14A0521FEF737FF1AE00A
:10427000C64A002110910846FEF730FF3698411CCF
:10428000C348C44A11920029129001D0119812908B
:104290001098129A0121FEF721FF1098BE4A0321BF
:1042A000FEF71CFFFFE7FFE75AE0AF480278012165
:1042B000914301700078C007002842D01EE0C0463C
:1042C000C4012020C501202050002020C001202052
:1042D0008B51000015510000E9030000045100005B
:1042E0009F5200009E500000AF5000003751000068
:1042F0007A5100008D5000008E5200009B49002032
:104300000F900870FFF7C4FB0F999A4A0846FEF712
:10431000E5FE0F98984A0121FEF7E0FE0F98974AB4
:104320000221FEF7DBFE0F98954A0321FEF7D6FE29
:104330000F98944A0421FEF7D1FE0F989249088005
:104340000CE08A4800210170894801700846FFF797
:10435000CDF98448006800F0FBF9FFE700E0FFE7D3
:1043600009E058A80078002804D1FFE757A90020E9
:104370000870FFE7FFE77C480078C007002800D1FD
:10438000EBE032A8FFF77EFA002800D5E1E032A882
:1043900031A90C9130AA0E92FFF7A4FB0C990020D2
:1043A0000D90095E00F032F90D990E98415E0120E2
:1043B00000F02CF974490888401C088080B2052858
:1043C00000DAC5E070490020088068480078C0071E
:1043D000002847D0FFE77A4A00210B910846FEF7F4
:1043E0007DFEFFF751FB0346764A2AA80A90182162
:1043F0000991FBF75FFF0A9A0B980121FEF76EFE09
:10440000FFF73EFB099903460A986F4AFBF752FFF4
:104410000A9A0B980221FEF761FEFFF72DFB09991E
:1044200003460A98694AFBF745FF0A9A0B9803214D
:10443000FEF754FEFFF71CFB099903460A98644AED
:10444000FBF738FF0A9A0B980421FEF747FE0B98FA
:104450004B4A0521FEF742FE0B985E4A0621FEF705
:104460003DFE74E000202990289027902690FFE7D9
:104470002698072827DCFFE72698410032A8415AF2
:104480007D2002010120002307939142089001DB67
:104490000798089008982590259926984843FCF796
:1044A00033F90146289800F08FFA28902598FCF7F8
:1044B0002BF90146279800F087FA2790FFE7269806
:1044C000401C2690D4E72798394900F0D8F90028F5
:1044D00006D1FFE728982799FCF71CF8069002E020
:1044E00034480690FFE706982990224A0024059454
:1044F00020462146FEF7F2FD2998FBF7E1FF0191E6
:1045000000902D4A2AA8049018210391FBF7D2FEAF
:10451000049A01212046FEF7E1FD0399049831AA8F
:10452000135F30AA125F0092244AFBF7C3FE049A7D
:1045300005980221FEF7D2FD0598114A0321FEF7E6
:10454000CDFD05980F4A0421FEF7C8FDFFE7FFE700
:10455000FFE70A20FFF719F903E00A20FFF715F932
:10456000FFE718E450002020C4012020C5012020CE
:10457000C0012020E3520000595100000A520000FF
:104580004B5200009C510000C2012020C15200008B
:10459000C050000048510000B0520000AC51000073
:1045A000BB510000CA510000D95100005B5200000D
:1045B000CDCCCC3D00006040695100001A52000093
:1045C000F4520000F3500000E2500000D15000000F
:1045D000265100003B52000080B584B0594801903C
:1045E000594902910022FEF7E5FA01980299012249
:1045F000FEF7E0FA554803900821FDF777FD039890
:104600002021FDF773FD04B080BDC04680B586B0A3
:1046100005AA1070049104984649884204DBFFE71C
:104620007D20C0000490FFE704984349884203DCE2
:10463000FFE742480490FFE7049905A80278930039
:104640003F4AD1500078002839D1FFE7049801286B
:104650001BDBFFE704987D21C900884203DBFFE7ED
:104660000020019005E004997D20C000401A0190CF
:10467000FFE701980390039932480022FEF79AFA67
:1046800032480821FDF732FD18E0049800280AD5C9
:10469000FFE72C482C490022FEF78CFA2B48082112
:1046A000FDF7EAFD09E0274827490022FEF782FAD4
:1046B00026480821FDF71AFDFFE7FFE738E00498D8
:1046C00001281BDBFFE704987D21C900884203DB3A
:1046D000FFE70020009005E004997D20C000401A0B
:1046E0000090FFE700980290029916480122FEF719
:1046F00061FA16482021FDF7F9FC18E0049800281B
:104700000AD5FFE70F4810490122FEF753FA0F4878
:104710002021FDF7B1FD09E00A480B490122FEF70F
:1047200049FA0A482021FDF7E1FCFFE7FFE7FFE730
:1047300006B080BDE903000017FCFFFF18FCFFFF77
:10474000C801202000008640E703000000400A4026
:1047500080B588B00790079B184A02A800901121E5
:10476000FBF7A8FD009A002101910846FEF7B6FC70
:104770000198134A0121FEF7B1FC0198114A022168
:10478000FEF7ACFC0198104A0321FEF7A7FC019844
:104790000E4A0421FEF7A2FC01980D4A0521FEF7FE
:1047A0009DFC01980B4A0621FEF798FC01980A4AE5
:1047B0000721FEF793FC08B080BDC0468B51000076
:1047C000F9510000D25200002A5200006C52000041
:1047D0007D520000E85100007C500000F8B5040C48
:1047E0008BB2264682B25E43104658430D0C370CFE
:1047F000360400218019164679416E43370C360481
:104800008019264679416E438919F8BD4900CA02CC
:104810000243100000D004204A0D01D001221043B1
:10482000044A490D914201D102210843012800D1D7
:1048300005207047FF07000010B500F061F8EFF3A6
:104840000080800001D5012010BD002010BD10B5F2
:1048500000F088F8EFF300804000800F012801D0BD
:10486000012010BD002010BD10B500F0F3F8EFF3EB
:104870000080800001D5012010BD002010BD10B5C2
:1048800000F012F9EFF300804000800F012801D002
:10489000012010BD002010BD30380A2801D20120AF
:1048A000704700207047000010B500290AD0087832
:1048B000002807D005487844FDF7A0FA002801D069
:1048C000002010BD0248784410BD0000720A0000AC
:1048D0006A0A000010B500290AD00878002807D01D
:1048E00005487844FDF78AFA002801D0002010BD61
:1048F0000248784410BD0000620A00005A0A000015
:1049000070B501252D050C001C4310D4EC4206D4D3
:10491000AC420AD4994200D070BD904270BDE942C9
:1049200017D4EB4215D4994270BD894270BDEC4258
:1049300006D5AC42F9D58B4200D070BD824270BD25
:104940006D004C00EC4204D25C00EC4201D28B4280
:1049500070BD034C30B4FCF7FDFD30BC70BD00BF32
:104960001900130470B501252D050C001C4310D44B
:10497000EC4206D4AC420AD4994200D070BD9042B9
:1049800070BDE94217D4EB4215D4994270BD8942FB
:1049900070BDEC4206D5AC42F9D58B4200D070BD5B
:1049A000824270BD6D004C00EC4204D25C00EC42CF
:1049B00001D28B4270BD034C30B4FCF7CBFD30BC50
:1049C00070BD00BF1900160470B50125ED07040085
:1049D0004C4020D4441A01D2001B0919C60D4B00CB
:1049E000F2B2FF2A29D01B0E2CD000020C02284361
:1049F0002C43D31ADC40051910D2280A02D3401CDC
:104A00006D0611D0761EF6058019FF2A00DA70BDFA
:104A1000C00DC00570BD694000F0CEF8012005430F
:104A2000C541521C761CE8E764089C40C9016140FE
:104A30008900E7D10124A043E4E71B0E440200D023
:104A4000034870BD002AFCD1C00FC00770BD00BF75
:104A50000000C07F0123DB0502000A430DD4DA42C7
:104A600003D49A4207D488427047D84214D4D9421A
:104A700012D48842704780427047DA4203D59A4286
:104A8000F9D5814270475B004200DA4204D24A0005
:104A9000DA4201D28142704710B5024AFCF7AAFD02
:104AA00010BD00BF090013040123DB0502000A4307
:104AB0000DD4DA4203D49A4207D488427047D842D0
:104AC00014D4D94212D48842704780427047DA42E7
:104AD00003D59A42F9D5814270475B004200DA4221
:104AE00004D24A00DA4201D28142704710B5024A2C
:104AF000FCF780FD10BD00BF0900160470B5420030
:104B000064414B005C41120E39D01B0E38D0FF2A95
:104B10003CD0FF2B3AD0D2187F3A40024902400ADB
:104B2000490A4518ED0106004E43000A090A4843A8
:104B30000104731A4019190C4318990F04D05B082B
:104B4000012149075B1A521CD80904D3401CF50304
:104B500001D19D0607D0FF2A08D2D50506D0E4076B
:104B60002043401970BD0125A843F4E7002A01DC69
:104B7000E00770BD2402FF202043C00570BD1B0E5E
:104B8000FF2A03D0FF2B01D0E00770BDFF263606B9
:104B90004500B54206D84D00B54203D8D218FF2AC9
:104BA00000D0E7E7004870BD0000C07F70B5012568
:104BB000ED0704004C4022D4441A02D26C40001B82
:104BC0000919C60D4B00F2B2FF2A4BD01B0E50D074
:104BD00000020C02A8432C43D31ADC40051B05D568
:104BE000AD0019D36D08761E521E37D0F605280A7F
:104BF00001D2801970BD70416D0603D070BD69404F
:104C0000FFF7E8FE9C4009026140490001D0401EC8
:104C100070BD0124A04370BD6D081DD001202B0C78
:104C200001D12D0410302B0E01D12D0208302B0F95
:104C300001D12D01001DAB0F01D1AD00801CEB0F88
:104C400001D16D00401C361A121A6D00680AF50574
:104C50004019012A02DB70BD002070BDC036300A49
:104C6000C00770BD1B0E440201D1FF2B00D10248CA
:104C700070BD002AF0D070BD0000C07F03B40248B0
:104C80007844844603BC6047B9C2FFFF03B40248BE
:104C90007844844603BC604721C5FFFF818283843A
:104CA00085868788898B8C8D8E8F91929395969728
:104CB000999A9C9D9FA0A2A3A5A7A8AAACAEB0B2AA
:104CC000B3B5B7B9BCBEC0C2C5C7C9CCCED1D4D7A5
:104CD000D9DCDFE2E6E9ECF0F3F7FAFE00000000D1
:104CE0000000000030313233343536373839414234
:104CF000434445464030580030313233343536373E
:104D000038396162636465664030780004000008E9
:104D100000000000000000020001000010303132ED
:104D200033343536373839616263646566787000CC
:104D300030313233343536373839414243444546D1
:104D40005850000002400000000000A000000000D9
:104D500005400000000000C8000000000C400000FA
:104D60000000409C00000000194000000020BCBE74
:104D70000000000034400000BFC91B8E000000048A
:104D8000B5400000504BCFD06607E2CF01000000D5
:104D90006C4100003E8251AADFEEA7340100000002
:104DA000D9420000DCB5A0E23A301F97FFFFFFFFB9
:104DB000B4450000FD25A0C8E9A3C14FFFFFFFFFD8
:104DC000FF3F00000000008000000000FF3F0000E7
:104DD0000000008000000000000000000000000053
:104DE000002F000000000700070000147F147F144C
:104DF00000242A7F2A1200626408132300364955D2
:104E0000225000000503000000001C2241000000A9
:104E100041221C000014083E08140008083E08083F
:104E2000000000A06000000808080808000060609A
:104E30000000002010080402003E5149453E0000D9
:104E4000427F4000004261514946002141454B31BB
:104E5000001814127F10002745454539003C4A4987
:104E600049300001710905030036494949360006F9
:104E70004949291E00003636000000005636000061
:104E800000081422410000141414141400004122DC
:104E9000140800020151090600324959513E007CB4
:104EA0001211127C007F49494936003E414141229E
:104EB000007F4141221C007F49494941007F090987
:104EC0000901003E4149497A007F0808087F000037
:104ED000417F4100002040413F01007F08142241F2
:104EE000007F40404040007F020C027F007F0408AA
:104EF000107F003E4141413E007F09090906003E06
:104F00004151215E007F091929460046494949312E
:104F10000001017F0101003F4040403F001F204051
:104F2000201F003F4038403F00631408146300070F
:104F30000870080700615149454300007F41410066
:104F400000552A552A55000041417F000004020106
:104F500002040040404040400000010204000020E4
:104F600054545478007F4844443800384444442022
:104F700000384444487F00385454541800087E09CF
:104F800001020018A4A4A47C007F08040478000097
:104F9000447D4000004080847D00007F1028440054
:104FA0000000417F4000007C04180478007C080465
:104FB000047800384444443800FC242424180018A1
:104FC000242418FC007C080404080048545454208D
:104FD00000043F444020003C4040207C001C204016
:104FE000201C003C4030403C004428102844001C59
:104FF000A0A0A07C004464544C4414141414141451
:105000000000100000000001000000020000000885
:105010000800040000030000071000000100000069
:105020000000000000000000000000000000000080
:10503000100000000001000003000000000000005C
:105040003400C44108070900E80300000001010022
:105050000800000018000000003000003132334129
:1050600034353642373839432A3023444000000073
:10507000800000000001000000020000202020202D
:105080002020202020202020202020200053746F6A
:105090007020202020202020202020202000466F6B
:1050A000727761726420202020202020202000526E
:1050B0006576657273652020202020202020200046
:1050C00054696D656F7574212020202020202020D8
:1050D000004B443A20252D3464202020202020201D
:1050E00020004B493A20252D346420202020202008
:1050F0002020004B503A20252D34642020202020F1
:105100002020200053706565642B31303020202032
:10511000202020200053706565642D313030202020
:105120002020202020005350443A20252D34642094
:10513000202020202020005370696E204C6566746A
:1051400020202020202020004672616D65204572BD
:10515000722120202020202000506F733A20203020
:105160002E3020202020202000506F733A2025353B
:105170002E3166202020202020005370696E20529E
:1051800069676874202020202020005370656564C2
:105190003A20252D3464202020202000413A504917
:1051A00044204D6F6465202020202000313A2534B2
:1051B0006420323A25346420202000333A253464B8
:1051C00020343A25346420202000353A25346420E8
:1051D000363A25346420202000373A2534642038BC
:1051E0003A25346420202000423A4C462020202AD0
:1051F0003A4D656E7520202000323A4677642020B3
:1052000020383A526576202020004C3A2B35303039
:1052100020523A2B3530302020004C3A252B346474
:1052200020523A252B3464202000313A2D537064EB
:105230002020333A2B537064202000413A4E6F7285
:105240006D616C204D6F6465202000423A4578699D
:1052500074202A3A4261636B202000413A526574FF
:105260007279202A3A4261636B202000233A5273FC
:1052700074202020353A53746F70202000303A4556
:105280007374702020413A47726179202000456D87
:10529000657267656E63792053746F7021200053C7
:1052A0007065656420526573657420353030200068
:1052B000413A526574727920202A3A4261636B2028
:1052C00000477261792053656E736F722045727268
:1052D0002000343A4C6566742020363A526967687B
:1052E0007420002D2D204C696E65466F6C6C6F77B5
:1052F000202D2D002D2D205049442054756E652001
:105300002D2D2D2D000000005854000000002020FD
:105310005800000020010000B05400005800202078
:1053200090210000480100001C0000004300000024
:10533000F8FFFFFF0C0000000E0000000F0000004F
:105340002E0000001001000043000000F8FFFFFFE6
:105350000040404040404040404041414141414088
:10536000404040404040404040404040404040403D
:1053700040050202020202020202020202020202CC
:1053800002202020202020202020200202020202D1
:105390000202909090909090101010101010101029
:1053A0001010101010101010101010100202020235
:1053B0000202888888888888080808080808080879
:1053C0000808080808080808080808080202020275
:1053D000400000000000000000000000000000008D
:1053E00000000000000000000000000000000000BD
:1053F00000000000000000000000000000000000AD
:10540000000000000000000000000000000000009C
:10541000000000000000000000000000000000008C
:10542000000000000000000000000000000000007C
:10543000000000000000000000000000000000006C
:10544000000000000000000000000000000000005C
:10545000000000000000000000000000000000004C
:10546000000000000000000000000000000000003C
:10547000000000000000000000000000000000002C
:10548000000000000000000000000000000000001C
:1054900000000000000000000000000000002020CC
:1054A000F401000078000000F4010000000000009A
:04000005000000C136
:00000001FF
