:020000040000FA
:10000000E8212020890200008D0200008F020000FC
:1000100000000000000000000000000000000000E0
:10002000000000000000000000000000910200003D
:100030000000000000000000930200009502000094
:10004000970200009702000097020000970200004C
:10005000970200009702000097020000970200003C
:10006000970200009702000097020000970200002C
:10007000970200009702000097020000970200001C
:10008000970200009702000097020000970200000C
:1000900097020000970200009702000097020000FC
:1000A00097020000970200009702000097020000EC
:1000B00097020000970200009702000097020000DC
:1000C00000F002F800F0D1F812A030C80838241867
:1000D0002D18AC4201D100F0C8F80FCCA246AB46B7
:1000E0000CA730CF2D1B083F3F197C427F1E544484
:1000F0002D090426F441641EAC4201D300F0B5F88A
:100100000126334200D0FB1A3343984754465D46DC
:10011000DFE700006C5700008C5700000000000073
:10012000103A02D378C878C1FAD8520701D330C840
:1001300030C101D504680C60704700000000000069
:100140007047000000000000002300240025002666
:10015000103A01D378C1FBD8520700D330C100D583
:100160000B60704710B56E2902D100F04BFB10BD3B
:10017000702902D100F087FC10BD662902D104F07D
:10018000F5FF10BD652902D104F0F0FF10BD67290D
:1001900002D104F0EBFF10BD612902D104F0EEFFA3
:1001A00010BD03681B0A01D380231943692902D1BA
:1001B00000F0F2FA10BD642902D100F0EDFA10BD92
:1001C000752902D100F0E8FA10BD6F2902D100F0C4
:1001D00005FC10BD782902D100F042FC10BDE929D0
:1001E00002D100F0A1FB10BDE42902D100F09CFB7C
:1001F00010BDF52902D100F097FB10BDEF2902D107
:1002000000F0F8FB10BDF82902D100F037FC10BD5A
:100210000368DB0901D380231943632902D101F06C
:100220001AF910BD732902D101F01DF910BDE3299F
:1002300002D101F027F910BDF32902D101F02AF90A
:1002400010BD002010BD1FB501F008FA0400002009
:10025000002104F039FE401C60600020002104F001
:100260001DFEE0601FBD10B510BD01F0CFF91146B5
:10027000FFF7E9FF03F02EFF01F064FD03B4FFF781
:10028000F2FF03BC01F008FE06480047FEE7FEE768
:10029000FEE7FEE7FEE7FEE703480449024A044B97
:1002A00070470000C1000000E8012020E821202064
:1002B000E80120200FB41CB50C0007AA009007D05D
:1002C0004142A14202D30019401E01E00020C04378
:1002D000074B7B4469460190069800F0ACFA002178
:1002E000002C01D0009A11701CBC08BC04B0184747
:1002F00087050000002203098B422CD3030A8B429E
:1003000011D300239C464EE003460B433CD400220D
:1003100043088B4231D303098B421CD3030A8B421F
:1003200001D394463FE0C3098B4201D3CB01C01AED
:10033000524183098B4201D38B01C01A52414309B8
:100340008B4201D34B01C01A524103098B4201D3A6
:100350000B01C01A5241C3088B4201D3CB00C01A13
:10036000524183088B4201D38B00C01A524143088B
:100370008B4201D34B00C01A5241411A00D20146B0
:100380005241104670475DE0CA0F00D04942031049
:1003900000D3404253409C46002203098B422DD398
:1003A000030A8B4212D38901FC2212BA030A8B4240
:1003B0000CD3890192118B4208D3890192118B428F
:1003C00004D389013AD0921100E08909C3098B4214
:1003D00001D3CB01C01A524183098B4201D38B0157
:1003E000C01A524143098B4201D34B01C01A5241FA
:1003F00003098B4201D30B01C01A5241C3088B423F
:1004000001D3CB00C01A524183088B4201D38B0029
:10041000C01A5241D9D243088B4201D34B00C01AB3
:100420005241411A00D201465241104663465B10C8
:1004300001D34042002B00D54942704763465B1010
:1004400000D3404201B50549002802DC491C0840A0
:1004500000E00846C046C04602BD00BFFFFFFF7F68
:100460007047704770471F22030C02D10F2200040F
:1004700002D0030E03D004E00020014670470002C2
:10048000083A030F01D10001121F830F01D1800030
:10049000921E002801DB4000521E12055118420531
:1004A000C012411810467047C10FC90700D0404222
:1004B000012292071143D6E701218907D3E7000003
:1004C0000121C9050123411842001B06D3185B0E08
:1004D0000AD0C1100722D206891840075242D142E1
:1004E00001D5520089187047090208D50146002A33
:1004F00003D0C10FC9070020704710467047420261
:1005000002D0002002497047072109050143F4E7A2
:100510000000F87FF0B5FF252D04C609C209FF27AA
:1005200004462E400137CB093E4348402A402B4029
:100530000746002A6BD0002B69D0AA4267D0AB4295
:1005400065D0002800DA32460125ED0529432C4309
:1005500009022002090AD21A4B0C7F24E31A434CE9
:10056000000A7C44E35C7D242404121914145B000B
:10057000A218884201D3521C00E0400049420C46B8
:100580005C4324115C43DB016415E318040A5C43FB
:10059000C502200D0C4644436419250A5D4323031C
:1005A000EC0C0D46654300030019EB184C42A342C6
:1005B00001D35B18401CD4052018002B07D05B002A
:1005C000C91804D3401C002901D1400840003F2134
:1005D00089048A4209D3002A08DC1106090F04D0D5
:1005E000032149074018C00FC007F0BD0122410098
:1005F000120689187F2252069142F6D20521490738
:10060000C84201D59010F0BDFF20C005F0BD002FFD
:1006100000DA32461648AA4207D2AB4205D2190286
:10062000090E17D0F80FC007F0BDFF2563002D0697
:10063000AB42F9D84900A942F6D8AB4201D1A94250
:10064000F2D0A94201D1002101E061004908D005A2
:100650000843F0BD1102090EFBD0FF200243D00574
:10066000F0BD0A460146104654E70000264C000043
:100670000000C07F1F22030C02D10F2200041CD0F7
:10068000030E01D10002083A030F01D10001121F2D
:10069000830F01D18000921E002801DB4000521E12
:1006A000D2055118021251181922904004D3491C46
:1006B000002801D14908490008467047C10FC90701
:1006C00000D04042012292071143D3E7012189075C
:1006D000D0E770B5044685690068C10601D53026AB
:1006E00000E02026C00707D070BD62683046A168D0
:1006F0009047206A401C20626D1EF6D570BD70B513
:10070000044685690078C00707D170BD6268A1689A
:1007100020209047206A401C20626D1EF6D570BDD7
:1007200009684A0501D540B27047C905FCD500B239
:10073000704709684A0501D5C0B27047C905FCD5A4
:1007400080B2704770B50C460546012A05D028785E
:10075000800600D5EA69002302E0012305E05B1C66
:10076000934202D2E05C0028F9D1A869E618C01AC9
:10077000A861286AC01828622846FFF7AAFF04E08B
:100780006A682078A968641C9047B442F8D3284668
:10079000FFF7B5FF70BD0000F7B50025752910689B
:1007A000009914A611D0FFF7BBFF002802DA4042DF
:1007B00011A608E0009909688A0701D50FA602E092
:1007C000490704D50EA6012501E0FFF7B2FF009FFF
:1007D0000024243704E000F082FE30313955641CD7
:1007E0000028F8D12B4632462146009800F059FAED
:1007F000FEBD0000000000002D0000002B000000E6
:100800002000000011680268006A530501D50870D5
:1008100009E0D30501D5088005E0130602D5C2170B
:1008200005C100E0086001207047000001694A1C12
:1008300002610878704700B58FB0029100210591E0
:10084000054901937944039111460490684600F0EC
:1008500027F90FB000BD0000E5FFFFFF0CC9083904
:100860009A4202D2531C0B6010707047F7B50446D1
:10087000154686B02B487844002703C83E460090B2
:10088000019111E007986A467100415A02A800F0F0
:1008900005FE411C07D02178890603D5E269391885
:1008A00091420ED83F18761C2078800602D5E06968
:1008B000B84206DDAE42E5DB07987100405A0028D9
:1008C000E0D1A069C01BA0612046FFF702FF1548D8
:1008D00078445A3803C800900020019116E0410086
:1008E0006A460798415A02A800F0D8FD0590401CBE
:1008F0000AD0002505E0626802A8A168405D904723
:100900006D1C05988542F6D30498401CB0420490B3
:10091000E5DB206AC01920622046FFF7F0FE09B02F
:10092000F0BD000052490000F7B5D21D0025D208E5
:1009300015A6D200F52905CA11D0002A05DA002132
:100940004042914111A60A4608E0009909688B07C8
:1009500001D50FA602E0490701D50EA601251146D3
:10096000009F0024243704E000F05EF930323A554D
:10097000641C02460A43F7D12B46324621460098B2
:1009800000F08FF9FEBD0000000000002D00000007
:100990002B0000002000000070B504460021243424
:1009A00008E05507D2086D0F303565545D072A43BE
:1009B000DB08491C15461D43F3D10468002310A22F
:1009C000250708D520252C400C4304D0C4690123F9
:1009D0000CA2641EC46100F064F970BD10B5044639
:1009E00021461068FFF7A5FE002302462046FFF7C8
:1009F000D3FF10BDD21DD108C9000CC9CCE700003F
:100A00000000000030000000F8B50F46018809051D
:100A100002D5224C7C4402E0204C7C440E34054636
:100A20000021243508E016071209360FA65D6E5422
:100A30001E0732431B09491C16461E43F3D12246AA
:100A400004780023240705D5702F06D0002901D093
:100A50000223113200F025F9F8BD01231032F9E725
:100A600070B504460D4621461068FFF762FE00236C
:100A7000024629462046FFF7C7FF70BDD21DD308A6
:100A8000DB000CCBC0E730B403682024126823439A
:100A900003600823C36130BC0023B5E7BC470000F6
:100AA000F3B50446002081B020622046E168884703
:100AB000002872D0252802D06268A168ABE0594FA7
:100AC00000267F442046E16888472028054608DB49
:100AD000312D06D2781920380078002801D006433D
:100AE000F0E7B00701D5042086430020E061074607
:100AF000A0612A2D0AD0284604F0C9F9002827D081
:100B0000B8000019303D0090856119E00298BA00E4
:100B1000121902C8916102902046E1688847012FAE
:100B2000054617D1E06900281FDA202086431CE023
:100B300000980A218069484300994019303888613B
:100B40002046E1688847054604F0A1F90028EFD166
:100B5000012F0AD02E2D08D12046E168884705468E
:100B6000202006437F1C022FC3DBA069002803DA84
:100B70004042A06101200643F00701D010208643C7
:100B80006C2D0BD0682D09D04C2D3CD06A2D38D05F
:100B9000742D38D07A2D36D016E040E0E1682F462B
:100BA00020468847B842054609D16C2F29D001203C
:100BB0008002E168064320468847054604E06C2F22
:100BC0001DD0FF2001300643002D28D02846413893
:100BD000192803D80120C00206432035204626608C
:100BE0002946029A1646FFF7BDFA002810D00128C0
:100BF0000BD0F61DF008C0000830029055E74020E9
:100C0000E1E78020D5E70020D3E7361D02964CE7C8
:100C100062682846A1689047206A401C44E7206A21
:100C2000FEBD0000364700000B4670B5024689073E
:100C30008008084319469D08141AA9412509080788
:100C4000054308092C194841250A01060D43010AEC
:100C50002C194141200C0D0428430D0C00194D4165
:100C6000002140194D41C00869070843E908840F75
:100C70008D002543840024184D4124196D41121B19
:100C8000AB4107E00925ED432C11521963410024C3
:100C9000401C61411C460A250026551BB441F1D277
:100CA00070BDFFB504460D4681B024300090216828
:100CB000880604D51022E0699143216000E00120FC
:100CC000A84201DD471B00E000270498A1697A19BA
:100CD0001018081AA0612078C00602D42046FFF739
:100CE000F8FC002608E003986268A168805D9047E0
:100CF000206A401C761C206204988642F3DB207830
:100D0000C0060AD52046FFF7E4FC06E06268A16849
:100D100030209047206A401C206238467F1E002801
:100D2000F4DC07E000986268A168405D9047206AA3
:100D3000401C206228466D1E0028F3DC2046FFF789
:100D4000DEFC2078000602D5022005B0F0BD0120AF
:100D5000FBE70000FFB50C461E468FB003CA0890A3
:100D600009914F007D0D00D16D1E00210846002025
:100D7000C0460321099A89050840002A03DA820047
:100D8000801840080840800D01280A9002DD0020EC
:100D9000C0430A90089807430DD0F048F04928183E
:100DA00048430714189800281DD07542291E1DDDE0
:100DB0000A9842421BE01898012802D000203021F6
:100DC00004E00020F24305E02154401CB042FBDB6C
:100DD00030460022189B002121540F998B600A6035
:100DE000486013B0F0BDBD1B6D1CDFE70A9A0029F7
:100DF00000DA69420BA800F079FC0BAB07CB03AB20
:100E000007C30899099800F0DDFC6B4607C301464B
:100E1000D4480918002D00910BDDD24903980A9A95
:100E200049424018002303A90390684600F03AFFA6
:100E300008E003990A9A0023081803A9039068465A
:100E400000F0DAFE6B4607C30004000C03D000205C
:100E5000C043410800E01046189A002A03D000223F
:100E6000009215461EE0751E05D4FFF7DDFE3032F8
:100E700062556D1EF9D501220843079602D0002263
:100E80007F1C04E02078302801D100227F1E002A38
:100E9000069787D01EE0112D07DAFFF7C5FE303226
:100EA00062556D1C02460A43F5D1084303D00098F1
:100EB000002819D00EE00021681E05E0235C625C6A
:100EC00063542254401E491C8142F7DBA81B401E7C
:100ED00007950690079A18990020A0540F98079B31
:100EE000069A81600CC07CE711260020189059E713
:100EF000D21DF0B50D460446D10893B0C90003C910
:100F00000C900D9103F088FF02460D98C00F01D0A0
:100F10002D2007E02068810701D52B2002E0400743
:100F2000C00F4001032A0F9001D0072A05DB0346BA
:100F30002946204600F096FB0EE12078800601D578
:100F4000E76900E006272846652D04D0662814D0FE
:100F5000672D69D12DE00020112F009001DB1123B6
:100F600000E07B1C0CAA03A910A8FFF7F3FE11995F
:100F7000002610987D1C0E9142E001203B460CAAF1
:100F8000C0070B900120009003A910A8FFF7E2FE14
:100F9000119D12981099002600280E9501D1781CF9
:100FA0000D18781B02D446427D1C761EE81B00906B
:100FB0003AE0012F00DA01270020112F009001DD17
:100FC000112300E03B460CAA03A910A8FFF7C2FEBC
:100FD00011993D46109800260E91217809070BD4EF
:100FE0000E99A94200DA0D4603A9012D04DD4A1924
:100FF000203AD27F302A06D0B84201DA011D04DA45
:10100000012100910FE06D1EEFE7002802DC861938
:101010002D1A03E0411CA94200DD0D46801B401C37
:1010200000900120C0070B902078000705D400989D
:10103000A84202DB0020C043009069460020C8722D
:101040000B98012102AF0337C907884225D002203F
:1010500010902B2011900B9800280BDA40420B9037
:101060002D20119006E00B9800F039FA30317F1EE8
:101070000B9039701099481E00291090F3DC0B98E2
:101080000028F0D111987F1E38702088000501D506
:10109000452000E065207F1E387001A8C01BC01DE0
:1010A0000B900F98002800D0012041190098C0171C
:1010B00009180B980818A169081A401EA061207829
:1010C000C00602D42046FFF704FB0F98002805D085
:1010D0006268A1689047206A401C20622078C006A0
:1010E00025D52046FFF7F5FA21E0002E07DB0E9804
:1010F000B04204DD03A86268805DA16802E0626816
:10110000A16830209047206A761C401C206200981D
:10111000401E002800900AD100F0A0FAC068626862
:101120000168405CA1689047206A401C2062284604
:101130006D1E0028D9DC07E062683878A1687F1C42
:101140009047206A401C20620B99481E00290B9092
:10115000F2DC2046FFF7D3FA032042E601FCFFFF52
:10116000104D0000E1DFFFFFD21DF0B504460D4633
:10117000D0088DB0C000466807683146384603F095
:101180004BFE0246F00F01D02D2307E020688107B7
:1011900001D52B2302E04007C00F43016846002B16
:1011A000037001D0012000E00020032A0A9001D042
:1011B000072A04DB2946204600F054FA2DE1207866
:1011C000800601D40D2500E0E5697000400D0D2D6D
:1011D00001904BDA300D00210B9008460020C046EC
:1011E000032189050840002E05DA82008018C20F0D
:1011F0001018401008408015012801DD0020C04370
:10120000A9000023182906D39C460A460123183A50
:101210001B07D34003E001221205CA4094460C315B
:10122000202902D33A46203900E032468A4000287D
:1012300002DD002A06D119E0002817D10121C907D3
:101240008A4213D3194663467F185E41002806D1AF
:101250000120C007824202D1084687439E430B9873
:10126000310D814202D00198401C01902088000578
:1012700002D57149794402E06F49794419396B46C6
:101280000A9830221A540A980A7C401C1A54401CAE
:101290000A900198002801DC302000E0312018720B
:1012A000019A0120002A02D0644BD21804E0720097
:1012B0003A4302D0614A521C0192002D02DC22788E
:1012C000120703D56A462E2050720220002286465D
:1012D00094460CE032033601120F6D1E8B5C02AA9D
:1012E00013546246521C401C9446052A01DA002D14
:1012F000F0DC002202AE08E03B0F3F01CB5C521C49
:101300006D1E3354401C082A01DA002DF4DC2368DA
:101310009A0601D511E0401E704504DD3218203ACE
:10132000D27F302AF7D0002807DD3218203AD27F4A
:101330002E2A02D11A0700D4401E002D03DD3E22C2
:101340003254401C6D1E497C31540199401C0029C7
:1013500006DA2D21471C315401984042019003E0E8
:101360002B21471C315401987D21C900884206DB9E
:10137000FEF7CAFF3030F0557F1C019101E0642870
:1013800008DB01986421FEF7BFFF3030F0557F1C69
:10139000019101E00A2806DB01980A21FEF7B4FF5B
:1013A0003030F0557F1C01980A21FEF7ADFF303137
:1013B000F1550A98A1697F1C7A191018081AA061C2
:1013C0002078C00602D42046FFF783F9216A6E46D2
:1013D0000A980818206204E062683078A168761CD8
:1013E00090470A98401E0A90401CF5D12078C0060C
:1013F00002D52046FFF76DF902AE09E03078761C81
:101400003E280DD06268A1689047206A401C206287
:101410007F1EF3D22046FFF772F90DB00320F0BD16
:10142000206A4019206203E06268A168302090477A
:101430006D1EEDD3F8E70000A83F000001FCFFFFA0
:1014400010B54369002B02D0C046C04601E0FFF74B
:1014500079F9012010BD1278014624310A7000226A
:101460004A700122ECE711680022D243E8E710B588
:101470004369002B02D0C046C04601E0FFF7F6F9F1
:10148000012010BD12880146243182840022C284CA
:101490000122ECE711680022D243E8E7F8B51646CE
:1014A0000C46054600F0D2F80368FF200230C05C0D
:1014B000012807D0FF2C0FD8185D00280CD0012080
:1014C0002C70F8BDFF333246214608331868C71820
:1014D00028460023B847F8BD0020C043F8BD0146A8
:1014E0008008081A02091018020A1018020C1018B5
:1014F000C008820012185200891A01E0401C0A3903
:101500000A29FBD270470000F8B5264C4E00069D14
:10151000A6420AD8A64201D1002806D15E00A64202
:1015200003D8A6420AD1002A08D00D24240425425B
:1015300033D02946002000F00DFCF8BD0C461C43BA
:1015400011D4994207D0C81A02D3EFF30080F8BD36
:10155000EFF30080F8BD801A02D3EFF30080F8BDEE
:10156000EFF30080F8BD09242407E5008B4207D083
:10157000581A02D3EFF3008006E0EFF3008007E093
:10158000101A03D3EFF30080A04303E0EFF30080D1
:10159000A043284380F30088F8BD009500F0F2FBDB
:1015A000F8BD00000000E0FF10B5FF231B0644005B
:1015B0009C421DD84C009C421AD80346124A0B4349
:1015C00007D4401A02D3EFF3008010BDEFF3008080
:1015D00010BD081A03D3EFF30080904305E0EFF34A
:1015E000008001219043C907084380F3008810BDA3
:1015F0000D231B041A4204D01146002000F0AAFB60
:1016000010BD00F0C9FB10BD00000090754600F051
:10161000CBFBAE46050069465346C008C000854670
:1016200018B020B5FEF738FE60BCB646002600278D
:10163000C0C5C0C5C0C5C0C5C0C5C0C5C0C5C0C582
:10164000403D490849008D467047000010B500F044
:1016500005F8001D10BD00BF71380000004870473C
:1016600078002020F8B51F46044601230068DB02FD
:10167000032601461840072A05DB002801D017A5DC
:1016800006E017A504E0002801D016A500E016A585
:10169000102081432160A069C01E002FA06101D0ED
:1016A000401EA0612046FFF714F8002F09D03846ED
:1016B0006268A1689047206A401C2062C01C2062BA
:1016C00006E0206AFAE762682878A1686D1C9047F6
:1016D000761EF8D22046FFF712F8F8BD4E414E00B4
:1016E0006E616E00494E4600696E6600F7B516469B
:1016F0008AB0334878446C4603467C33C06F5A68DE
:101700009B680DC42E487844763003AC0DC80DC4D8
:101710003720C001081837211B30FEF7F5FD0546BC
:101720000C46803D1B3C02D56442012000E00020B5
:101730000027099010E0E0070CD00C2020497843E6
:10174000794432464C3941186846012300F054FA76
:101750006B4607C364107F1C002CECD1184F7F44EC
:101760002E3F16E0E80712D02001C0190EC80691DE
:10177000089307920068F04201D198190890324608
:10178000012306A903A800F037FA03AB07C36D10C5
:10179000641C002DE6D10998002806D0324669461F
:1017A000012303A800F07EFA05E0012332466946D2
:1017B00003A800F021FA0A9B07C30DB0F0BD00009A
:1017C0003C3B0000034640000A4610B5400D0BD0DC
:1017D0000121C9070F24A40200191C036408214336
:1017E000540D2143D20207E000210120F2E7D40F7B
:1017F000490021435200401E0029F8DADB0FDB07C5
:10180000184310BDFFB50D46144685B048685168B1
:1018100003F0EAFA00910190A868A16803F0E4FAE5
:1018200002910390A868616803F0DEFA029A121828
:101830008242029201D2012000E00020019A0B189E
:10184000D2180028019202D08A4202D903E08A42CB
:1018500001D2012000E0002000990818009068687B
:10186000A16803F0C1FA029A12188242029201D2D0
:10187000012000E00020019A0B18D21800280192E4
:1018800002D08A4202D903E08A4201D2012000E05C
:10189000002000990818009028682168400049003D
:1018A000400849084018FA49471814E001994000D7
:1018B000C90F08430090019802994000C90F0843DE
:1018C0000190029803994000C90F084302900398C1
:1018D00040007F1E039000980028E7DA089800284F
:1018E00001D0EC4E00E00026B74201DA012000E012
:1018F0000020002804902AD0F71BF806C00E15D04F
:10190000029B2021091A039A8B401A430392029AE0
:10191000019BC2408B401A430292019A009BC24035
:101920008B4000991A430192C14000917B110DD068
:101930006F460320C11A03D500218200B95003E08D
:101940008A008100BA587A50401EF3D53746039872
:101950000299002800D00120014308980291002834
:1019600008460CD0002800D001200199019A4905B1
:1019700008430121D20AC902D202019200E00121EA
:101980000E9B0122D207012B02D0002B03D013E0C3
:10199000002807D120E0904204D890420CD1019B4E
:1019A0000B4209D0019B5918019105D10099491C9E
:1019B000009101D17F1C009200280DD01021084613
:1019C0000020C0460498002806D00F98002803D0B5
:1019D000082108460020C04628682168019B009A1B
:1019E0004840C10F0598C90739430EC009B0F0BD82
:1019F000FFB587B0099A08980899536892684068BB
:101A0000896896460022039317469446089A1268FE
:101A10005300099A5B081268520052089A1A9E4BAA
:101A2000D4180A9A002A01D0352200E040220692FA
:101A30000022012315460492DB07059324E0002DC4
:101A400005D175460346039E4D1BB34109D3754628
:101A50006646039B491B049D9841059B7519AC463E
:101A60005F4163463B4308D0059B049EDD07760833
:101A70002E435B080496059301E0521E641EC50FB9
:101A8000ED0749184041521C069B9A42D7DB002DB6
:101A900004D17546039A6B1A824101D203200CE0EF
:101AA000039A0B466B404240134303D0014303D0DB
:101AB000012002E0022000E00020614601910021A7
:101AC000009702910A99002905D06146400201431E
:101AD000704B019102E08007002302909C4201DAE2
:101AE000012000E0002007003AD01A1BD006C00EEB
:101AF00015D0029D2021019C091AC5408C40254328
:101B0000029C8C4000D001242543019C0295009D3D
:101B1000C4408D4000992C430194C1400091541160
:101B20001DD06D460221002202290CD10320001B8A
:101B300007E0002804DB8600AE59002E00D0012209
:101B4000401C0328F5DB081B02D588002A5004E05E
:101B50008000285810438A00A850491EE3D51C462F
:101B60000A98002802980CD0002800D00120019982
:101B7000019A490508430121D20AC902D202019201
:101B800000E00121109B0122D207012B02D0002B83
:101B900003D013E0002807D11FE0904204D8904200
:101BA0000CD1019B0B4209D0019B5918019105D121
:101BB0000099491C009101D1641C009200280CD0AE
:101BC000102108460020C046002F06D0119800289A
:101BD00003D0082108460020C04608980999019AB8
:101BE000009B006809684840C10F0798C907214356
:101BF00082600AC00BB0F0BD00B585B001930092C1
:101C00000A460146002302A8FFF7FCFD02A807C808
:101C100005B000BDFFB50A461F4685B00799019380
:101C200001230091014602A8FFF7ECFD02990398F9
:101C3000049ECA0F4900D20700920F22490892025F
:101C40008C1A0021002800DB0C46450013486D0863
:101C5000844214D3079A002A04DA441E0026104D49
:101C6000F64302E004460D460E46102108460020C9
:101C7000C046002F03D0042108460020C04620059E
:101C8000E90A0843009908436905F20A1143ADE6E1
:101C900002C0FFFF013C0000FF3F0000FF07000003
:101CA000FFFFFF7F00B585B0019300920A46014611
:101CB000002302A8FFF79CFE02A807C8A8E7FFB50B
:101CC0000A461F4685B007990193012300910146FA
:101CD00002A8FFF78DFE02990398049ECA0F4900DF
:101CE000D20700920F22490892028C1A0021002884
:101CF00000DB0C46450011486D08844214D3079A56
:101D0000002A04DA441E00260D4DF64302E0044684
:101D10000D460E46102108460020C046002F03D075
:101D2000042108460020C0462005E90A084300991E
:101D300008436905F20A114358E60000FF07000056
:101D4000FFFFFF7F10B50446C046C0462046FEF7A1
:101D500095FA10BDC80212D54803400F002804D0E0
:101D6000C803C043012188407047EFF300800001A1
:101D7000000903210907084380F300887047002009
:101D80007047000010B500200249029A00F054F894
:101D900010BD00000000F87F10B5024800F04CF8BC
:101DA00010BD00000000C07F004870475800202090
:101DB000024670B50A4392072AD11E4DEE0104C8AF
:101DC00008C9541B9443344017D0D0B2D9B2401A3A
:101DD0002106014310D190B299B2401A2104014367
:101DE0000AD110021902000A090A401A210201430D
:101DF00002D1100E190E401A70BD9A42DFD010BAEF
:101E000019BA884201D9012070BD0020C04370BDBD
:101E100002780B78401C491C002A09D09A4207D14D
:101E200002780B78401C491C002A01D09A42EFD05E
:101E3000D01A70BD0101010110B50C461107090F40
:101E4000092904D00A290AD008290CD104E0114636
:101E50000820FFF77FFF06E0510606D501E0510696
:101E600001D50120C007214610BDD10607D50101CB
:101E70000909CC084907000E0006044309E0410F98
:101E800020024907000A0143200E00061D22D1410D
:101E900001430846E7E7000001491820ABBEFEE712
:101EA000260002007047000083B00290019100926A
:101EB000029801990843009908430549086003B056
:101EC0007047C04602480068072108407047C04676
:101ED0000013404082B001900199881E001F00BF8E
:101EE000FCD2009002B0704784B00390029101923E
:101EF000039800680090009801998843009000982A
:101F00000299019A114008430399086004B0704790
:101F100084B00390029101920398006800900098A9
:101F200001998843009000980299019A1140084352
:101F30000399086004B0704784B003900291019245
:101F400003980068009000980199884300900098D9
:101F50000299019A114008430399086004B0704740
:101F600084B0039002910192039800680090009859
:101F700001998843009000980299019A1140084302
:101F80000399086004B0704784B0039002910192F5
:101F90000398006800900098019988430090009889
:101FA0000299019A114008430399086004B07047F0
:101FB00019480068194908601948006848601948BC
:101FC0000068886018480068C860184800680861A0
:101FD000174800684861174800688861164800681B
:101FE000C8611648006808621548006848621548CC
:101FF0000068886214480068C86214480068086372
:1020000013480068486313480068886312480068F2
:10201000C8631248086470470000C44100002020D3
:102020000400C4410800C4410C00C4411000C44174
:102030001400C4411800C4411C00C4412000C44124
:102040002400C4412800C4412C00C4413000C441D4
:102050003400C4413800C4413C00C441FECAFECA39
:1020600003480068006C03494018414248417047EA
:10207000440020200235013582B001900091009883
:10208000019995225201885002B0704782B00190A8
:1020900000910098019995225201885002B0704732
:1020A00082B00190009100980199952252018850C8
:1020B00002B0704782B0019000910098019995227A
:1020C0005201885002B0704782B001900091009890
:1020D000019995225201885002B0704782B0019058
:1020E00000910098019997225201885002B07047E0
:1020F00082B001900091009801990C4A885002B07A
:102100007047C04682B00190009100980199074A3B
:10211000885002B07047C04682B00190009100988C
:102120000199024A885002B07047C046D0120000A0
:1021300081B0009000990120C2028648885001B009
:102140007047C04610B584B0069C0390029101927E
:10215000009302990198014300980143069A0120D7
:1021600003071A401143194A1143039A9300454A41
:102170009950069BC0060340039881008858184375
:10218000885004B010BDC04610B584B0069C0390C2
:102190000291019200930299019801430098014332
:1021A000069A012003071A401143084A1143039A73
:1021B0009300344A9950069BC0060340039881005F
:1021C00088581843885004B010BDC04681000400F0
:1021D00081B00090009881002A4A8120885001B087
:1021E0007047C04610B584B0069C039002910192DE
:1021F00000930298019908430099084306990843FF
:1022000081210843039989001E4A885004B010BDFB
:1022100010B584B0069C039002910192009302983D
:10222000019908430099084306990843812108430E
:1022300003998900134A885004B010BD81B0009002
:10224000009881000F4A0020885001B07047C046B6
:1022500082B00190009100980349084301998900D8
:10226000084A885002B070478000040082B0019094
:10227000009100988021084301998900014A885003
:1022800002B070470480424082B0019000910198F2
:102290002721C90140580099084002B0704782B018
:1022A0000190009101982721C901405800990840E8
:1022B00002B0704781B000900099484A4848885061
:1022C00001B0704782B00190009100980199164AC0
:1022D000885002B07047C04682B0019000910098CB
:1022E0000199114A885002B07047C04682B00190EF
:1022F0000091009801990C4A885002B07047C0467E
:1023000082B00190009100980199074A885002B06C
:102310007047C04682B00190009100980199024A2E
:10232000885002B07047C0469012000081B0009003
:1023300000991A4A885801231843885001B0704701
:1023400081B0009000990120C2020248885001B07B
:102350007047C0460100002680B582B00190009110
:102360000198112109024018009A118953881943D4
:1023700092791143084AFFF7CBFD019807494018AD
:10238000009A9188D3791943127811435D22920003
:10239000FFF7BEFD02B080BD7F33000004110000D6
:1023A00081B0009000980849405810210840000969
:1023B00001B0704781B00090009803494058012156
:1023C000084001B07047C0461011000081B0009075
:1023D0000099024A0248885001B070470408000082
:1023E000030000B180B582B00190009101980449CA
:1023F00040180099034AFFF777FD02B080BDC04640
:1024000008110000FF03000082B0019000910098C5
:1024100000780199044A8850009840780199012277
:102420001203885002B070470410000080B584B0D9
:1024300000920A4601460098039102A90A7001AA77
:1024400010700398044BC0180978127811433F228A
:10245000FFF74AFD04B080BD0C11000082B001906E
:10246000684601700078019945229201885002B0B7
:102470007047000080B584B00390029101920399E7
:1024800002980143019801433F200204C048FFF72E
:102490007BFD04B080BDC04680B586B0059000F0DD
:1024A0008FF8FFF7DDFD002803D1FFE7FFF780FD80
:1024B000FFE7FFE700F0B8F80121890308408842F0
:1024C00001D0FFE7F6E70598417E294803900122F5
:1024D0000192FFF759FD05982021415C25480290A3
:1024E0000322FFF751FDFFF7EDFC0146019804912F
:1024F00000210422FFF7D8FC02980599496A09686F
:102500001D4A11600599496A49681C4A116004997D
:102510001B4A11600599C9694906490C7F221202BC
:10252000FFF732FD0398059A11680907090B5368F4
:102530001B039BB2C91893681B071B0DC918D368EE
:1025400019431369194353691943127E11430D4A04
:10255000FFF71AFD00F05CF8FFE700F065F80121D5
:1025600049020840884201D0FFE7F6E706B080BD87
:1025700020010B4024010B4028010B402C010B4093
:102580000013404072FF0F007349086801221207D0
:10259000904308607047C046624908680122904332
:1025A000086070475F4908680122904308607047DF
:1025B0005C49086801221202904308607047C046D7
:1025C0005849086801221202904308607047C046CB
:1025D0006149086801221207104308607047C0462D
:1025E0008F49086801221203104308607047C046F3
:1025F0000249086810221043086070473C010B40F4
:102600004849086801221202104308607047C0461A
:102610004449086801221202104308607047C0460E
:10262000034800687047C046014800687047C046CC
:1026300004020B4080B5FFF7F3FF01214906084073
:10264000400E80BD014800687047C04650010B40F5
:1026500081B001466846017000780249086001B007
:102660007047C04608030B4080B582B001900199C5
:102670001F2002064648FFF737FC02B080BDC04667
:1026800080B582B0014601A8018001880F200202B6
:102690006348FFF729FC02B080BDC04680B582B018
:1026A000014601A80170007801030F200203384899
:1026B000FFF71AFC02B080BD80B584B003AB188070
:1026C000029101A80270FFF7CBFC002803D1FFE7BD
:1026D000FFF76EFCFFE7FFF765FF03A8008800F037
:1026E00023F8029800F02EF80E49086801221043E2
:1026F000086001A80078C00700280DD0FFE7FFF7A9
:1027000067FFFFE7FFF790FF0121090208408842B9
:1027100001D0FFE7F6E702E0FFF736FFFFE704B07E
:1027200080BDC04608010B4080B582B0014601A8BB
:1027300001800188032002030748FFF725FC02B04F
:1027400080BDC04680B582B0019001990248FF2249
:10275000FFF71AFC02B080BD10010B4081B00146AA
:102760006846017000780249086001B07047C046B1
:102770000C010B4080B582B0014601A801800188A0
:10278000012042020248FFF7AFFB02B080BDC04605
:1027900038010B4080B582B0014601A80170017874
:1027A00002480322FFF7A0FB02B080BD00010B40EE
:1027B00080B582B0014601A8017001781848302226
:1027C000FFF792FB02B080BD0149024808607047E4
:1027D0002C030B400100000E80B582B0014601A819
:1027E00001700078FFF7BAFFFFE7FFF71DFF012137
:1027F00049050840884201D0FFE7F6E70849086824
:102800000122120410430860FFE7FFF70DFF1021BB
:102810000840102801D0FFE7F7E702B080BDC046AE
:1028200004010B4082B00190009100980199024A86
:10283000885002B07047C0464810000081B0009038
:1028400000990120C2023048885001B07047C0464C
:1028500081B0009000980349405804210840800846
:1028600001B070473010000081B000900099A84A74
:102870000148885001B07047010000B180B584B0B4
:10288000019101460198039102A908700398112251
:102890001202801809780322FFF726FB04B080BDDE
:1028A00082B001906846017000780199014A885011
:1028B00002B070471011000080B584B0019101464C
:1028C0000198039102A9087003981122120280183E
:1028D0000978090207221202FFF706FB04B080BD47
:1028E00081B000900099024A0120885001B07047E1
:1028F0000811000081B0009000990120C202024836
:10290000885001B07047C0460100002680B58CB0E9
:102910000B900A910A984079C00700285BD0FFE726
:102920000A9800790790002804D0FFE7079820282C
:102930000CD017E00B9888210691022200F00CF9C8
:1029400006990B98032200F007F918E00B986A49E2
:102950000591022200F000F905990B98032200F07E
:10296000FBF80CE00B980521C9010491022200F04C
:10297000F3F804990B98032200F0EEF8FFE70B98A8
:102980000022029202230193114600F0FFF8029AFE
:102990000B9803230393114600F0F8F80199029B6A
:1029A0000B98009119461A4600F028F9029B0399EA
:1029B0000B98009119461A4600F020F9019B029AE3
:1029C0000B98114600F000F9029A039B0B981146F0
:1029D00000F0FAF8FFE70A98006808900A98007972
:1029E00008A908710A98807988710B9800F002F89C
:1029F0000CB080BD80B58AB0099008910898007924
:102A00000790002804D0FFE70798202812D029E07B
:102A1000099808990968491E00F068F90998882101
:102A20000691002200F098F806990998012200F01A
:102A300093F82AE0099808990968491E00F056F9A8
:102A400009982D490491002200F086F8049909980C
:102A50000122059200F080F805990998490700F0D5
:102A600035F912E0099808990968490800F03EF91B
:102A700009980521C9010391002200F06DF803991E
:102A80000998012200F068F8FFE7099800230193F4
:102A900019461A4600F07AF8019A09980123029320
:102AA000114600F073F8019B0998009319461A46E5
:102AB00000F0A4F8019B02990998009119461A4662
:102AC00000F09CF8019B099819461A4600F07CF822
:102AD000019A029B0998114600F076F809988249FC
:102AE0004018089A11799279114302221143034A3E
:102AF000FFF722FA0AB080BD01040000BFFF0030DA
:102B000081B000900099BC4ABC48885001B0704721
:102B10000408000082B001900091009801991122F0
:102B20001202885002B0704780B584B003900291C1
:102B300001A802700399224A89180091017800982F
:102B40008900401800900098029907229204FFF72C
:102B5000F3F904B080BDC04680B584B00390029103
:102B600001A802700399074A89180091017800981A
:102B700089004018009000980299034AFFF7DCF999
:102B800004B080BD70180000DBB6C1FF10B586B080
:102B900005900491039202A803700599084A8918C8
:102BA00001910178019889004018019001980499D9
:102BB000039A1143034AFFF7BFF906B010BDC046A0
:102BC000301800007777020010B586B005900491A8
:102BD000039202A8037005993122D201891801914C
:102BE0000178019889004018019001980499039A8E
:102BF00011438F22FFF7A0F906B010BD10B587B0C2
:102C00000091044600980999069405900492039354
:102C100002A801700699084A891801910178019863
:102C200089004018019005980499084303990843C6
:102C30000199086007B010BD5018000084B00390DF
:102C4000029101A802700399064A8918009101783F
:102C5000009889004018009002980099086004B01C
:102C60007047C0461018000082B001900091009893
:102C7000007801997D4A8850009840780199012296
:102C800012038850009880780199934A885002B0C6
:102C90007047C04610B586B001930B4601460198B7
:102CA000059104A90B8003AB1A8002AA1080059835
:102CB0000D4C001909881B88194312881143024AD8
:102CC000FFF712F906B010BD80FF000080B582B09A
:102CD00001900091019804494018009903221207BD
:102CE000FFF72AF902B080BD0418000082B00190FD
:102CF000009100980199024A885002B07047C0467E
:102D00000818000081B00090009911200202885834
:102D100001239843885001B0704781B0009000991A
:102D200011200202885801231843885001B07047CF
:102D300081B00090009911200202885801235B04A1
:102D40001843885001B0704781B00090009901206D
:102D5000C2020248885001B07047C04601000026F8
:102D600080B582B0019000910198FFF7CBFF0198E8
:102D7000112109024018009A11889378194392880A
:102D80001143084AFFF7ECF801982F494018009AC0
:102D90009179D3791943127A11437E22FFF7E0F833
:102DA00002B080BD1867020081B000900098084909
:102DB00040580121084001B07047C04681B00090E2
:102DC00000980349405804210840800801B070472A
:102DD0000811000081B00090009802494058C0B22C
:102DE00001B070472411000081B000900099024AA0
:102DF0000248885001B0704704080000030000B189
:102E000080B584B003900291019203980B49401859
:102E100002990B4AFFF768F803980A49401801998C
:102E20003F22FFF761F80399074A88188958012261
:102E30001140FFF759F804B080BDC04610110000E2
:102E4000FFFF0000141100000411000082B0019087
:102E50000091009800780199044A885000984078C1
:102E6000019901221203885002B070470810000037
:102E700080B582B00190009101981121090240189B
:102E800000990322D203FFF72FF802B080BD0000A3
:102E900080B584B0019101460198039102A90870A0
:102EA00003980D4A801809787022FFF71DF804B0C6
:102EB00080BDC04680B584B0019101460198039160
:102EC00002A908700398044A801809780722FFF7BE
:102ED0000BF804B080BDC0460C11000082B0019018
:102EE000684601700078019989225201885002B029
:102EF000704780B584B003A900200870FFE703A8DD
:102F00000078072828DCFFE70398B030C0B2002122
:102F1000019100F05BF90199022000F057F9019945
:102F2000102000F053F9019802A90870FFE702A8E9
:102F300000787F280ADCFFE70020012100F046F935
:102F4000FFE70298401C02A90870F0E7FFE703982A
:102F5000401C03A90870D2E704B080BD80B582B0E0
:102F60008D200021019100F031F90199142000F029
:102F70002DF90199AF2000F029F902B080BD0000C1
:102F800080B586B000F064F94248FEF7A3FFAE209A
:102F90000021059100F01AF905990220029000F035
:102FA00015F90599102000F011F9059940200190BC
:102FB00000F00CF90599812000F008F90599CF205F
:102FC00000F004F90599A12000F000F90599C82046
:102FD00000F0FCF80599A620039000F0F7F8059999
:102FE000A82000F0F3F805993F2000F0EFF80599CC
:102FF000D32000F0EBF80599084600F0E7F80599B2
:10300000D52000F0E3F80599802000F0DFF805995D
:10301000D92000F0DBF80599F12000F0D7F80599E8
:10302000DA2000F0D3F80599122000F0CFF80599C6
:10303000DB2000F0CBF80198059900F0C7F805995E
:10304000202000F0C3F80298059900F0BFF8059918
:103050008D2000F0BBF80599142000F0B7F8059911
:10306000A42000F0B3F80398059900F0AFF8059993
:10307000AF20049000F0AAF80498059900F0A6F893
:10308000FFF737FFFFF76AFF0599084600F004F8DD
:1030900006B080BD00127A0080B586B0019102466C
:1030A000019805A902910A7004AA10700598801C65
:1030B00008700498B030C0B20021039100F086F887
:1030C0000298039900780009103000F07FF8029808
:1030D000039900780F22104000F078F806B080BD08
:1030E00080B586B0034605A8037004AB197003A928
:1030F0000A7002AA0021117001AB197003992039DE
:1031000011700078802808DBFFE705A9002008700F
:103110000498801C04A90870FFE705A8007804A99A
:103120000978FFF7B9FF01A900200870FFE701A89F
:103130000078052812DCFFE702A800780621414349
:103140000748401801A90978405C012100F03EF8C9
:10315000FFE70198401C01A90870E8E706B080BDB0
:10316000C852000080B586B005AB187004A8017085
:10317000039202A900200870FFE7039802A90978CA
:10318000405C002820D0FFE705A80190007804A942
:103190000978039A02AB1B78D25CFFF7A1FF019874
:1031A0000599083101700078792808DBFFE705A947
:1031B000002008700498801C04A90870FFE702989A
:1031C000401C02A90870D8E706B080BD80B586B063
:1031D00005AA107004A801700078002806D0FFE747
:1031E000012001027C48FFF76DF805E00120010293
:1031F0007948FEF741FFFFE7012041027648FEF7DC
:103200003BFF05A801788548FFF728F9FFE78348C9
:10321000FFF7D0F8002801D1FFE7F8E7FFE77F4884
:10322000FFF7BEF8002801D0FFE7F8E70520FEF71A
:1032300051FE01200190410267480290FFF742F8D9
:10324000019902980902FFF73DF806B080BDC0461B
:1032500080B584B00120009041025F48FFF732F84A
:103260006420019000F0D5FA0098C10503915B48F5
:103270000290FFF727F8019800F0CBFA0298039923
:10328000FEF7FAFE019800F0C4FA02980399FFF7DE
:1032900019F804B080BDC04680B58CB00920FEF797
:1032A000CDFF0A20FEF7CAFF4B2005210291FEF751
:1032B000DDFF49480B900421FEF72EFF02994D20B7
:1032C000FEF7D4FF0B981021FEF726FF1A200621E7
:1032D0000391FEF7CBFF03991B20FEF7B9FF0F20E8
:1032E0000B210491FEF7C2FF04990E20FEF7BEFFEA
:1032F0003220FEF76DFF5520FEF76AFF002308938A
:103300000093012005904204079256201946FEF7CB
:103310007FFF079A089B009316201946FEF778FF57
:10332000079A089B009317201946FEF771FF079A2A
:10333000089B009318201946FEF76AFF079A089B1E
:10334000009319201946FEF763FF0598079A08991C
:103350000091C30406932F20FEF716FF069B079AE1
:10336000089900913320FEF70FFF069B079A0899F2
:1033700000913720FEF708FF069B079A08990091F5
:103380003920FEF701FF079A089B00934E2019464B
:10339000FEF73EFF079A089B00934C201946FEF764
:1033A00037FFEF4809900E490A91FEF78DFE099804
:1033B0000A99FEF7B1FE0B9803210902FEF784FE7D
:1033C0000B982821FEF7A6FF0B986521C900FEF790
:1033D000A3FE0CB080BDC04600400A4000200A4059
:1033E000C003800080B582B00B49E0480190FFF730
:1033F0000BF801980A49FEF7AFFF01980121FEF78B
:10340000F1FF019810210222FFF710F80198FEF752
:103410008DFF02B080BDC0460055000000804640D0
:103420000255000080B588B007A9002002900870FE
:10343000FFF71AF90298012211059204FFF71AF812
:1034400002980390FFF7C0F9FFE7FFF7F3F80028B1
:103450000CD1FFE72A48FEF73DFD0398401C03907E
:103460000398422801D3FFE700E0EEE7FFF7EAF810
:10347000059001200105420400200190FEF7FAFFAB
:1034800001980390FFF7A0F9FFE7FFF7D3F80028B2
:103490000CD1FFE71A48FEF71DFD0398401C03906E
:1034A0000398422801D3FFE700E0EEE7FFF7CAF8F0
:1034B000069005997D20C00048430699FCF71AFF45
:1034C00004900498FCF7F8FF00220E4B01F0C5FCB5
:1034D00000280FD1FFE70498FCF7EEFF0022D2434B
:1034E000094B01F0AFFC002804D1FFE707A9012038
:1034F0000870FFE707A800780121084008B080BDE8
:10350000D103000000289F40FF579F4080B582B044
:1035100000200190FFF79CF801204002FFF7B0F86F
:103520000198FFF737F9FFF737F8FFF741F8019AED
:10353000032000030A21FFF7BFF81548FEF7ACFF90
:10354000FFE7FFF76FFF00280FD1FFE7FFF730F825
:10355000FFF756F8FFE7FFF763F80121490208403B
:10356000884201D0FFE7F6E7EBE71020FFF720F9EC
:103570000920FFF793F8FFF733F8FFF739F8012038
:103580004002FFF7F7F80020FFF726F902B080BDF0
:103590000C55000080B582B0754801900721FFF7F7
:1035A0007FF901980321FFF769F9FFE77048FFF7FA
:1035B0004FF9002801D1FFE7F8E76D48009004219A
:1035C000FFF730F900980321FFF776F902B080BDCC
:1035D00080B586B01F4964480590FFF745FB059804
:1035E0001D49FFF793F905980023029319461A46DF
:1035F000FFF750FB029B0598009319461A46FFF708
:10360000FDFA029A05981146FFF78EFA029A05987C
:103610007D21C9000391FFF711FB029B0598012151
:103620000491009119461A46FFF7E8FA0299049AA4
:103630000598FFF779FA0399049A0598FFF7FEFABF
:103640000598FFF74DF905980321FFF763FA06B0D7
:1036500080BDC046345500003855000080B582B0AA
:103660001049F9480190FFF7F1FB01980E49FFF767
:1036700077FB01980021FFF7FBFB01982B211A2211
:10368000FFF7BEFB0198FFF753FB01982021FFF7DE
:10369000FFFB01980221FFF70DFC0198FFF73DFBAE
:1036A00002B080BD405500004255000080B500F0DA
:1036B0001DF8FFF7F1FDFFF729FFFFF789FFFFF77F
:1036C000CDFFFFF78FFEFFF765FF0549B822002009
:1036D00088540449242288540349087380BDC04695
:1036E000F0002020B8002020E000202080B588B025
:1036F0001A480190FEF7DEFD83480290FEF7DAFDDE
:1037000018480390FEF7D6FD17480490FFF7F8F924
:10371000F3480590FFF768FB14480690FEF756FE45
:1037200013480790FFF7A0F80198FEF701FD0298F3
:10373000FEF7FEFC0398FEF7FBFC0498FFF7DAF8AF
:103740000598FFF701FB0698FEF7FAFD0798FFF7CB
:1037500075F81020FEF7BEFB08B080BD00000A40DF
:1037600000200A4000400A40000086400080464099
:103770000040444080B584B0024603A80270029124
:1037800000780190042838D80198810001A04058A1
:103790008746C046F9370000A9370000BB37000054
:1037A000D1370000E53700000299002001F090F9C0
:1037B0000299012001F08CF929E002984142002091
:1037C00001F086F902984142012001F081F91EE0E2
:1037D00002984142002001F07BF90299012001F09A
:1037E00077F914E00299002001F072F90298414241
:1037F000012001F06DF90AE0FFE700210091084681
:1038000001F066F90099012001F062F9FFE704B0C8
:1038100080BD80B582B0019001997D20C0004843F1
:1038200000F002F802B080BD80B582B0019001992D
:1038300050204843FEF74EFB02B080BD80B584B0F7
:10384000002002900190FFE70198032833DCFFE796
:1038500001988100264841582B48FEF717FC0520A7
:10386000FEF738FB00200090FFE70098032816DCE5
:10387000FFE7009881001F4841582348FEF704FDE8
:10388000002807D1FFE70198800000994018401CEC
:103890000290FFE7FFE70098401C0090E5E70198E1
:1038A0008100134841581848FEF716FDFFE70198BC
:1038B000401C0190C8E70298002804D1FFE703A943
:1038C000002008700DE00298411EC817800F0A18EA
:1038D0000320824305488018891A405C03A90870B8
:1038E000FFE703A8007804B080BDC0464C55000037
:1038F0005C550000F054000080B5012081020248B0
:10390000FEF7F6FB80BDC04600200A4080B586B0B9
:103910000490FFE77248FFF751FA002804D1FFE74F
:103920006F48FFF757FAF5E705200022114600F02F
:103930008DF824481421244A00F048F80390039895
:10394000002804D5FFE70020C043059037E01D485C
:1039500000785A280AD1FFE71A484078052805D18F
:10396000FFE718488078002804D0FFE70120C04313
:10397000059024E000200290FFE7029807281ADC57
:10398000FFE7029840000F4A8018007901A90870EB
:1039900002984000801840796A4610700098000232
:1039A000097840180499029A52008852FFE7029859
:1039B000401C0290E1E70348C0780590FFE70598B6
:1039C00006B080BDD001202050C3000010B586B0E5
:1039D000059004A80170039202A900200870FFE777
:1039E00002A8007804A9097888421ADAFFE73C485F
:1039F000FFF7E4F900280AD1FFE73948FFF7EAF9B1
:103A0000059902AC2278531C2370885408E003986F
:103A1000002801D1FFE704E00398401E0390FFE770
:103A2000DEE702A8007804A90978884204DBFFE7F2
:103A300002A80078019003E00020C0430190FFE756
:103A4000019806B010BDC0460020504080B584B03B
:103A500003AB1870029101A80270FFE72048FFF73E
:103A6000A3F9002801D0FFE7F8E71D48A521FFF7DB
:103A700035FAFFE71A48FFF797F9002801D0FFE76A
:103A8000F8E703A801781648FFF728FAFFE714487B
:103A9000FFF78AF9002801D0FFE7F8E76946002020
:103AA0000870FFE76846007801A90978884215DAAE
:103AB000FFE7029869460978415C0948FFF70EFA6A
:103AC000FFE70748FFF770F9002801D0FFE7F8E7A4
:103AD000FFE70098401C69460870E3E704B080BD2A
:103AE0000020504080B586B005A9087004A90020C8
:103AF0000870FFE7CD480121FEF7F0FAFFE7072045
:103B00000390FFE70398002824D4FFE7502001909A
:103B1000FEF7E0F9C54802900221FEF7F1FB01989B
:103B2000FEF7D8F902980121FEF7B9FB002808D06A
:103B3000FFE70398012181400498084304A9087015
:103B4000FFE7BA480221FEF7B5FAFFE70398401EE7
:103B50000390D7E705A800784142484100F004F8F7
:103B600004A8007806B080BD80B586B0014605A8DF
:103B700001700078002807D0FFE7FFE7AB4801217C
:103B8000FEF7ACFAFFE70CE0FFE7A848039001213D
:103B90000491FEF78FFA03980499FEF7B3FAFFE752
:103BA000FFE750200290FEF795F9A048009002210F
:103BB0000191FEF7A5FB0298FEF78CF90098019998
:103BC000FEF778FA0298FEF785F906B080BDC04688
:103BD00080B584B0FFE795480121FEF77FFAFFE743
:103BE00050200390FEF776F990480221FEF788FBFB
:103BF0000398FEF76FF9FFE78C48019001210291CD
:103C0000FEF758FA01980299FEF77CFAFFE7502078
:103C10000090FEF75FF985480221FEF74BFA009805
:103C2000FEF758F904B080BD80B584B0FFE77F4847
:103C3000029001210391FEF73DFA02980399FEF7E5
:103C400061FAFFE750200190FEF744F9774802211E
:103C5000FEF756FB0198FEF73DF9FFE77348012197
:103C6000FEF73CFAFFE75020FEF734F904B080BDC0
:103C700080B586B0FFE76D480121FEF72FFAFFE718
:103C800050200390FEF726F9684802900221019126
:103C9000FEF736FB0398FEF71DF902980121FEF7A7
:103CA000FEFA019902460298531E9A4105AB04930D
:103CB0001A70FEF7FFF90398FEF70CF904980078E4
:103CC000411E884106B080BD80B588B007A9087044
:103CD00007200690FFE70698002835D4FFE707A8DD
:103CE00000780699C840C007002807D0FFE7FFE723
:103CF0004E480121FEF7F2F9FFE70CE0FFE74B48E1
:103D0000049001210591FEF7D5F904980599FEF775
:103D1000F9F9FFE7FFE750200390FEF7DBF843488F
:103D2000019002210291FEF7EBFA0398FEF7D2F818
:103D300001980299FEF7BEF90398FEF7CBF8FFE76A
:103D40000698401E0690C6E708B080BD80B584B0D6
:103D5000472002A9022200F05DFF002804D0FFE7FF
:103D600003A9002008800AE00298000202A949780D
:103D7000401801A90880019803A90880FFE70021E5
:103D800003A8405E04B080BD80B588B000230593D1
:103D900000930120049019461A46FEF723FA23489F
:103DA000029002210391FEF7ADF902980399FEF704
:103DB000A7FA0498059A0092C30410461146FEF72C
:103DC000C1F9FFE719480121FEF788F9FFE76420F0
:103DD000FFF71FFD752006A9012200F01BFF002838
:103DE00004D0FFE70020C04307901BE006A800783E
:103DF000712804D0FFE70120C043079012E06B2038
:103E0000012100F06EFF0A20FFF703FD1B200021B7
:103E1000019100F066FF01991A2000F062FF0198FD
:103E20000790FFE7079808B080BDC04600000A4031
:103E300080B50F2081010248FEF74EFA80BDC046D2
:103E400000200A40A14800687047C0469E480068AC
:103E50007047C0469B4800687047C0469848006855
:103E60007047C046914900200860944908808E49F7
:103E7000012008707047C04681B0009000989349B7
:103E8000086001B07047C04681B0009000988E492C
:103E9000086001B07047C04681B000900098894921
:103EA000086001B07047C04681B000900098844916
:103EB000086001B07047C04610B592B0119010A8CC
:103EC00001800F920E9300200D900CA90880764877
:103ED0000078002803D1FFE7FFF7C4FFFFE70020C9
:103EE0000B90FFE70B98072826DCFFE711980B994A
:103EF0004900415A4B2002010120002301939142C5
:103F0000029001DB0198029002990AA801700078E2
:103F100000280CD0FFE70B9841006D48415E0D98DA
:103F200040180D900C98401C0CA90880FFE7FFE793
:103F30000B98401C0B90D5E700210CA8405E002890
:103F400004D1FFE709A92320088013E000210CA871
:103F5000405E082804DBFFE709A92320088008E069
:103F60000D9800220CA9895EFCF7CEF909A90880FA
:103F7000FFE7FFE709992320411A08A801800021E3
:103F8000425E4A48016889180160006848498842D1
:103F900005DBFFE745497D20C0000860FFE7434897
:103FA00000684449884204DCFFE740494248086011
:103FB000FFE7002110A8405E002809D0FFE700219C
:103FC00010A8405E810E4018800907A9088006E00D
:103FD00008983A490988401A07A90880FFE7089815
:103FE0003649088036480168002308A8C05E484367
:103FF00034490A682D4909685143401832490A6812
:1040000007A9C95E51434018069006980A21FCF79B
:104010007BF9059005982D490968884204DDFFE782
:104020002A4800680590FFE7059828490968494231
:10403000884205DAFFE72548006840420590FFE71F
:1040400022480168059A8918049100680599401A68
:10405000039004981649884204DBFFE77D20C000E6
:104060000490FFE704981349884203DCFFE71248F5
:104070000490FFE703980E49884204DBFFE77D20A8
:10408000C0000390FFE703980A49884203DCFFE77A
:1040900009480390FFE704980F99088003980E9948
:1040A000088012B010BDC046B4012020B801202005
:1040B000E903000017FCFFFF18FCFFFFBC012020F4
:1040C0004C002020B0012020AC01202048002020FE
:1040D0006C55000010B5ECB000202E906B90FFF7EF
:1040E000E5FA2E9869A90870FEF74AFFFEF701FF6E
:1040F000FFF79EFE00F0D2FCFFF7FEFBFFF744FE49
:104100004E48006800F02AFEFFE7FFF797FB0146E4
:104110006AA801700078002800D104E36AA800783A
:1041200069A90978884200D1FDE26A9869A90870F6
:1041300043480078C007002833D0FFE76AA800781A
:1041400042282ED0FFE76AA800782A2829D0FFE766
:104150006AA80078312807DBFFE76AA80178012008
:104160003A292D9007DBFFE76AA8007841384142E1
:1041700048412D90FFE72D990120014068A801706A
:104180000078C00700280BD1FFE72D4800210170FF
:104190002C4801702C4801700846FFF7EBFAFFE746
:1041A000FFE76AA8007823382C901F2800D9B8E2CE
:1041B0002C98810001A040588746C0463543000036
:1041C0002347000023470000234700002347000047
:1041D00023470000234700001B4500002347000041
:1041E0002347000023470000234700002347000027
:1041F000A54400004D42000071430000BF42000092
:10420000ED430000694400002B440000BF4400005F
:10421000AF430000BF4400002347000023470000D5
:1042200023470000234700002347000023470000E6
:10423000234700003D450000AD460000500020200F
:10424000C2012020C4012020BE012020F1480078B6
:10425000C00700280BD0FFE7FFF7FCFD67906798C9
:10426000401EFFF719FEEC490120087026E0EB48DC
:104270000168643901600068002804D5FFE7E74958
:1042800000200860FFE7E6480078E44929910968C2
:10429000FFF770FA29980368E24A62A82A90112170
:1042A000FCF708F82A9A00212B910846FEF75AFFDE
:1042B0002B98DD4A0621FEF755FFFFE732E2D5488D
:1042C0000078C00700280BD0FFE7FFF7C3FD61901F
:1042D0006198401CFFF7E0FDCF490120087028E0FD
:1042E000CE480168643101600068D049884205DB2E
:1042F000FFE7CA497D20C0000860FFE7C848007892
:10430000C64926910968FFF735FA26980368C54A19
:104310005CA827901121FBF7CDFF279A0021289157
:104320000846FEF71FFF2898C14A0621FEF71AFF2C
:10433000FFE7F7E1B94923917D2080000860B84884
:1043400000780968FFF716FA23980368B54A57A85A
:1043500024901121FBF7AEFF249A002125910846F5
:10436000FEF700FF2598B34A0621FEF7FBFED9E1D0
:10437000A8480078C00700280BD0FFE7FFF766FDCC
:1043800056905698401EFFF77FFDA3490120087004
:104390000CE0A34901200870A0490968FFF7EAF979
:1043A000A54A00200621FEF7DDFEFFE7BAE19948A5
:1043B0000078C00700280BD0FFE7FFF747FD5590B6
:1043C0005598401CFFF760FD9349012008700CE0F0
:1043D00093490220087091490968FFF7CBF9974A81
:1043E00000200621FEF7BEFEFFE79BE1894800782A
:1043F000C00700280BD0FFE7FFF730FD549054981A
:104400000A38FFF751FD8449012008700CE0844907
:104410000320087081490968FFF7ACF9884A002039
:104420000621FEF79FFEFFE77CE17A480078C0078F
:1044300000280BD0FFE7FFF711FD539053980A3087
:10444000FFF732FD7449012008700CE07449042024
:10445000087072490968FFF78DF97A4A0020062131
:10446000FEF780FEFFE75DE16A480078C00700289C
:104470000AD0FFE76A48002101700846FFF77AF981
:104480006549012008700CE0654800212291017007
:104490000846FFF76FF922986B4A0621FEF762FE85
:1044A000FFE73FE15E480021219101700846FFF7D8
:1044B00061F92198654A0621FEF754FE32E155481C
:1044C0000078C007002827D0FFE7FFF7BBFC529019
:1044D0006AA80078372804D1FFE752983238529002
:1044E00003E0529832305290FFE75298002803D5EB
:1044F000FFE700205290FFE752984C49884204DBC6
:10450000FFE77D20C0005290FFE75298FFF7B4FC10
:10451000414901200870FFE704E13E480021017095
:104520003D4801704A4801703D4801700846FFF758
:1045300021F93A48006800F011FCF3E035480078B2
:10454000C007002806D0FFE733490A7801209043CE
:104550000870AAE03E48027801219143017000787A
:10456000C00700280CD0FFE73A4A002120910846F6
:10457000FEF7F8FD2098384A0721FEF7F3FD93E097
:104580004EA8FFF7C3F948904898002870D4FFE779
:104590004EA81C90038840880090304A49A81E907D
:1045A00011211D91FBF786FE1E9A00211F910846DE
:1045B000FEF7D8FD1C9A1D991E989388D288009208
:1045C000274AFBF777FE1E9A1F980121FEF7CAFDC6
:1045D0001C9A1D991E98138952890092214AFBF753
:1045E00069FE1E9A1F980221FEF7BCFD1C9A1D99B8
:1045F0001E989389D28900921B4AFBF75BFE1E9A94
:104600001F980321FEF7AEFD1F98184A0721FEF7F9
:10461000A9FD48E0C2012020C40120205000202034
:10462000BE0120208B56000015560000E903000053
:1046300004560000F45700009E550000AF550000DE
:10464000375600007A5600008D550000E3570000F1
:10465000C301202049580000A0570000D056000098
:10466000DF560000EE560000FD5600008F57000098
:10467000F74A002119910846FEF774FD4898411C3D
:10468000F448F54A1A9200291B9001D01A981B9001
:1046900019981B9A0121FEF765FD1998EF4A03212D
:1046A000FEF760FDFFE7FFE7FFE73BE0DE4802784B
:1046B0000121914301700078C007002823D0FFE753
:1046C000DA49002018900870FFF7CCFB1899D94AF6
:1046D0000846FEF747FD1898D74A0121FEF742FD2C
:1046E0001898D64A0221FEF73DFD1898D44A0321B6
:1046F000FEF738FD1898D34A0421FEF733FD1898C9
:10470000D14908800CE0C94800210170C8480170F7
:104710000846FFF72FF8C348006800F01FFBFFE7CB
:1047200000E0FFE709E06AA80078002804D1FFE76D
:1047300069A900200870FFE7FFE7BB480078C007C1
:10474000002800D1F2E044A8FFF7E0F8002800D5E7
:10475000E8E0FFF7FBFA014641A80180002116912D
:10476000415E44A843AA159242AB1793FFF7A4FBFE
:1047700015991698095E00F0ABF916991798415EE5
:10478000012000F0A5F9B0490888401C088080B2DB
:10479000052800DAC5E0AC4900200880A34800786D
:1047A000C007002847D0FFE7B64A00211491084609
:1047B000FEF7D8FCFFF752FB0346B34A3BA8139021
:1047C00018211291FBF776FD139A14980121FEF738
:1047D000C9FCFFF73FFB129903461398AB4AFBF75E
:1047E00069FD139A14980221FEF7BCFCFFF72EFB1B
:1047F000129903461398A64AFBF75CFD139A149886
:104800000321FEF7AFFCFFF71DFB12990346139837
:10481000A04AFBF74FFD139A14980421FEF7A2FC5F
:104820001498874A0521FEF79DFC14989A4A0621A0
:10483000FEF798FC74E000203A9039903890379059
:10484000FFE73798072827DCFFE73798410044A89F
:10485000415A7D20020101200023109391421190C2
:1048600001DB10981190119836903699379848438B
:10487000FBF724FF0146399800F0A0FB39903698E9
:10488000FBF71CFF0146389800F098FB3890FFE7D3
:104890003798401C3790D4E73898764900F0EAFA08
:1048A000002806D1FFE739983899FBF733FE0F90BF
:1048B00002E071480F90FFE70F983A905D4A00249C
:1048C0000E9420462146FEF74DFC3A98FBF7F8FD82
:1048D00001910090694A3BA80D9018210C91FBF7BB
:1048E000E9FC0D9A01212046FEF73CFC0C990D983D
:1048F00043AA135F42AA125F0092614AFBF7DAFCF7
:104900000D9A0E980221FEF72DFC0E984C4A0321B9
:10491000FEF728FC0E984B4A0421FEF723FCFFE724
:10492000FFE7FFE70A20FEF774FF79E047480078C9
:10493000C00700286FD0FFE7FFF708FA014635A847
:104940000590018000210791415E0A2009904843AB
:104950008321FBF7D9FC07990246059834AB0893ED
:104960001A80435E3E4A2FA806901121FBF7A2FC55
:10497000069A07980121FEF7F5FB079A089809990E
:10498000805E0A90FBF7C0FC01460A980B91002854
:1049900006D5FFE7002134A8405E4042049004E0C1
:1049A000002134A8405E0490FFE704980A21FBF739
:1049B000ABFC0B9B069800912A4A1121FBF77AFC6D
:1049C0000020039002212FAAFEF7CCFB039935A803
:1049D000405E8949884206DBFFE7254A0020042122
:1049E000FEF7C0FB13E0002135A8405E83498842F2
:1049F00006DCFFE71D4A00200421FEF7B3FB05E0BB
:104A0000194A00200421FEF7ADFBFFE7FFE7322043
:104A1000FEF7FFFE03E00A20FEF7FBFEFFE7FFE7DD
:104A2000FFF773FB50002020C2012020C40120208A
:104A3000BE01202038580000595600003D570000A4
:104A4000B15700009C560000C0012020C301202067
:104A500016580000C05500004856000005580000D8
:104A60000C570000AC5600005A5800004D5700008B
:104A7000BF560000CDCCCC3D000060406956000020
:104A80005E5700006C580000F3550000E25500002E
:104A9000D1550000265600007F57000080B584B035
:104AA00059480190594902910022FEF7C7F8019830
:104AB00002990122FEF7C2F8554803900821FDF73C
:104AC000EFFA03982021FDF7EBFA04B080BDC04651
:104AD00080B586B005AA10700491049846498842B2
:104AE00004DBFFE77D20C0000490FFE70498434902
:104AF000884203DCFFE742480490FFE7049905A8D9
:104B0000027893003F4AD1500078002839D1FFE75E
:104B1000049801281BDBFFE704987D21C900884227
:104B200003DBFFE70020019005E004997D20C00031
:104B3000401A0190FFE70198039003993248002240
:104B4000FEF77CF832480821FDF7AAFA18E004982D
:104B500000280AD5FFE72C482C490022FEF76EF802
:104B60002B480821FDF7C2FB09E02748274900220E
:104B7000FEF764F826480821FDF792FAFFE7FFE701
:104B800038E0049801281BDBFFE704987D21C90069
:104B9000884203DBFFE70020009005E004997D20B8
:104BA000C000401A0090FFE7009802900299164852
:104BB0000122FEF743F816482021FDF771FA18E0AC
:104BC000049800280AD5FFE70F4810490122FEF794
:104BD00035F80F482021FDF789FB09E00A480B4909
:104BE0000122FEF72BF80A482021FDF759FAFFE7CA
:104BF000FFE7FFE706B080BDE903000017FCFFFFF9
:104C000018FCFFFFC801202000008640E7030000D9
:104C100000400A4080B58AB008AB1870079106A81A
:104C20000270FEF7D5FFD020FFF74EF8FFF720F80F
:104C3000002806D0FFE7FEF7F7FF0020C0430990E9
:104C40004CE008A80078FFF73FF8FFF711F80028BC
:104C500006D0FFE7FEF7E8FF0020C04309903DE0E3
:104C6000FEF7B6FFD120FFF72FF8FFF701F8002875
:104C700006D0FFE7FEF7D8FF0020C04309902DE0E3
:104C800005A900200870FFE705A8007806A90978A3
:104C900088421EDAFFE705A80190017806A800788F
:104CA000421E0120002302939142039001DB0298EF
:104CB0000390039904A801700078FEF713FF019A8E
:104CC000079912788854FFE70598401C05A90870D9
:104CD000DAE7FEF7A9FF00200990FFE709980AB07C
:104CE00080BD80B584B002AA107001A80170FEF7E3
:104CF0006FFFD020FEF7E8FFFEF7BAFF002806D0CE
:104D0000FFE7FEF791FF0020C043039022E002A8D6
:104D10000078FEF7D9FFFEF7ABFF002806D0FFE7CB
:104D2000FEF782FF0020C043039013E001A8007843
:104D3000FEF7CAFFFEF79CFF002806D0FFE7FEF74C
:104D400073FF0020C043039004E0FEF76DFF0020D6
:104D50000390FFE7039804B080BD000080B588B0E1
:104D60000790079B184A02A800901121FBF7A2FAAE
:104D7000009A002101910846FEF7F4F90198134AC0
:104D80000121FEF7EFF90198114A0221FEF7EAF935
:104D90000198104A0321FEF7E5F901980E4A042113
:104DA000FEF7E0F901980D4A0521FEF7DBF90198BD
:104DB0000B4A0621FEF7D6F901980A4A0721FEF7A9
:104DC000D1F908B080BDC0468B5600002C570000BA
:104DD000275800006E570000C1570000D25700004E
:104DE0001B5700007C550000F8B5040C8BB226461A
:104DF00082B25E43104658430D0C370C3604002136
:104E00008019164679416E43370C360480192646C0
:104E100079416E438919F8BD4900CA020243100066
:104E200000D004204A0D01D001221043044A490D4C
:104E3000914201D102210843012800D10520704789
:104E4000FF07000010B500F055F8EFF30080800078
:104E500001D5012010BD002010BD10B500F07CF878
:104E6000EFF300804000800F012801D0012010BD29
:104E7000002010BD10B500F0E7F8EFF3008040000F
:104E8000800F012801D0012010BD002010BD303856
:104E90000A2801D2012070470020704710B5002970
:104EA0000AD00878002807D005487844FCF780FF2E
:104EB000002801D0002010BD0248784410BD000039
:104EC000F6090000EE09000010B500290AD00878A4
:104ED000002807D005487844FCF76AFF002801D075
:104EE000002010BD0248784410BD0000E609000013
:104EF000DE09000070B501252D050C001C4310D4FF
:104F0000EC4206D4AC420AD4994200D070BD904223
:104F100070BDE94217D4EB4215D4994270BD894265
:104F200070BDEC4206D5AC42F9D58B4200D070BDC5
:104F3000824270BD6D004C00EC4204D25C00EC4239
:104F400001D28B4270BD034C30B4FCF7DDFA30BCAB
:104F500070BD00BF1900130470B501252D050C00AC
:104F60001C4310D4EC4206D4AC420AD4994200D07F
:104F700070BD904270BDE94217D4EB4215D49942FE
:104F800070BD894270BDEC4206D5AC42F9D58B426A
:104F900000D070BD824270BD6D004C00EC4204D266
:104FA0005C00EC4201D28B4270BD034C30B4FCF784
:104FB000ABFA30BC70BD00BF1900160470B50125F6
:104FC000ED0704004C4020D4441A01D2001B0919FB
:104FD000C60D4B00F2B2FF2A29D01B0E2CD00002C6
:104FE0000C0228432C43D31ADC40051910D2280A9E
:104FF00002D3401C6D0611D0761EF6058019FF2ADB
:1050000000DA70BDC00DC00570BD694000F04CF8FD
:1050100001200543C541521C761CE8E764089C400A
:10502000C90161408900E7D10124A043E4E71B0ED8
:10503000440200D0034870BD002AFCD1C00FC00755
:1050400070BD00BF0000C07F0123DB0502000A43E2
:105050000DD4DA4203D49A4207D488427047D8422A
:1050600014D4D94212D48842704780427047DA4241
:1050700003D59A42F9D5814270475B004200DA427B
:1050800004D24A00DA4201D28142704710B5024A86
:10509000FCF78AFA10BD00BF0900160470B501259F
:1050A000ED0704004C4022D4441A02D26C40001B8D
:1050B0000919C60D4B00F2B2FF2A4BD01B0E50D07F
:1050C00000020C02A8432C43D31ADC40051B05D573
:1050D000AD0019D36D08761E521E37D0F605280A8A
:1050E00001D2801970BD70416D0603D070BD69405A
:1050F000FFF76AFF9C4009026140490001D0401E51
:1051000070BD0124A04370BD6D081DD001202B0C83
:1051100001D12D0410302B0E01D12D0208302B0FA0
:1051200001D12D01001DAB0F01D1AD00801CEB0F93
:1051300001D16D00401C361A121A6D00680AF5057F
:105140004019012A02DB70BD002070BDC036300A54
:10515000C00770BD1B0E440201D1FF2B00D10248D5
:1051600070BD002AF0D070BD0000C07F03B40248BB
:105170007844844603BC60477DBDFFFF03B402480A
:105180007844844603BC6047E5BFFFFF8182838487
:1051900085868788898B8C8D8E8F91929395969733
:1051A000999A9C9D9FA0A2A3A5A7A8AAACAEB0B2B5
:1051B000B3B5B7B9BCBEC0C2C5C7C9CCCED1D4D7B0
:1051C000D9DCDFE2E6E9ECF0F3F7FAFE00000000DC
:1051D000000000003031323334353637383941423F
:1051E0004344454640305800303132333435363749
:1051F00038396162636465664030780004000008F5
:1052000000000000000000020001000010303132F8
:1052100033343536373839616263646566787000D7
:1052200030313233343536373839414243444546DC
:105230005850000002400000000000A000000000E4
:1052400005400000000000C8000000000C40000005
:105250000000409C00000000194000000020BCBE7F
:105260000000000034400000BFC91B8E0000000495
:10527000B5400000504BCFD06607E2CF01000000E0
:105280006C4100003E8251AADFEEA734010000000D
:10529000D9420000DCB5A0E23A301F97FFFFFFFFC4
:1052A000B4450000FD25A0C8E9A3C14FFFFFFFFFE3
:1052B000FF3F00000000008000000000FF3F0000F2
:1052C000000000800000000000000000000000005E
:1052D000002F000000000700070000147F147F1457
:1052E00000242A7F2A1200626408132300364955DD
:1052F000225000000503000000001C2241000000B5
:1053000041221C000014083E08140008083E08084A
:10531000000000A0600000080808080800006060A5
:105320000000002010080402003E5149453E0000E4
:10533000427F4000004261514946002141454B31C6
:10534000001814127F10002745454539003C4A4992
:105350004930000171090503003649494936000604
:105360004949291E0000363600000000563600006C
:1053700000081422410000141414141400004122E7
:10538000140800020151090600324959513E007CBF
:105390001211127C007F49494936003E41414122A9
:1053A000007F4141221C007F49494941007F090992
:1053B0000901003E4149497A007F0808087F000042
:1053C000417F4100002040413F01007F08142241FD
:1053D000007F40404040007F020C027F007F0408B5
:1053E000107F003E4141413E007F09090906003E11
:1053F0004151215E007F091929460046494949313A
:105400000001017F0101003F4040403F001F20405C
:10541000201F003F4038403F00631408146300071A
:105420000870080700615149454300007F41410071
:1054300000552A552A55000041417F000004020111
:1054400002040040404040400000010204000020EF
:1054500054545478007F484444380038444444202D
:1054600000384444487F00385454541800087E09DA
:1054700001020018A4A4A47C007F080404780000A2
:10548000447D4000004080847D00007F102844005F
:105490000000417F4000007C04180478007C080470
:1054A000047800384444443800FC242424180018AC
:1054B000242418FC007C0804040800485454542098
:1054C00000043F444020003C4040207C001C204021
:1054D000201C003C4030403C004428102844001C64
:1054E000A0A0A07C004464544C441414141414145C
:1054F0000000100000000001000000020000000891
:105500000800040000030000071000000100000074
:10551000000000000000000000000000000000008B
:105520001000000000010000030000000000000067
:105530003400C44108070900E8030000000101002D
:105540000800000018000000003000003132334134
:1055500034353642373839432A302344400000007E
:1055600080000000000100000002000000000A00AE
:1055700014001E00280032003C004600202020209D
:105580002020202020202020202020200053746F65
:105590007020202020202020202020202000466F66
:1055A0007277617264202020202020202020005269
:1055B0006576657273652020202020202020200041
:1055C00054696D656F7574212020202020202020D3
:1055D000004B443A20252D34642020202020202018
:1055E00020004B493A20252D346420202020202003
:1055F0002020004B503A20252D34642020202020EC
:105600002020200053706565642B3130302020202D
:10561000202020200053706565642D31303020201B
:105620002020202020005350443A20252D3464208F
:10563000202020202020005370696E204C65667465
:1056400020202020202020004672616D65204572B8
:10565000722120202020202000506F733A2020301B
:105660002E3020202020202000506F733A20253536
:105670002E3166202020202020005370696E205299
:1056800069676874202020202020005370656564BD
:105690003A20252D3464202020202000413A504912
:1056A00044204D6F6465202020202000647073200A
:1056B0003A20252D34642E25316420202020003C02
:1056C0003C3C205475726E204C45465420202000EE
:1056D000313A25346420323A2534642020200033C6
:1056E0003A25346420343A25346420202000353AA9
:1056F00025346420363A25346420202000373A25AA
:10570000346420383A253464202020005A20726105
:10571000773A20252D366420202000423A4C46203E
:1057200020202A3A4D656E7520202000323A4677B7
:1057300064202020383A526576202020004C3A2BF5
:1057400035303020523A2B3530302020003E3E3E5E
:10575000205475726E2052494748542020004C3A1C
:10576000252B346420523A252B3464202000313A12
:105770002D5370642020333A2B5370642020004155
:105780003A4E6F726D616C204D6F64652020004150
:105790003A4779726F20202A3A4261636B202000D9
:1057A000413A4772617920202A3A4261636B202096
:1057B00000423A45786974202A3A4261636B20209E
:1057C00000233A527374202020353A53746F7020AE
:1057D0002000303A457374702020413A4772617955
:1057E000202000456D657267656E63792053746F84
:1057F00070212000537065656420526573657420C4
:105800003530302000413A526574727920202A3AAE
:105810004261636B2000477261792053656E736F3C
:1058200072204572722000343A4C6566742020362E
:105830003A526967687420002D2D204C696E6546C8
:105840006F6C6C6F77202D2D002D2D204779726F96
:105850002044696167202D2D2D002D2D2D2D2053E5
:1058600074726169676874202D2D2D002D2D2050D4
:1058700049442054756E65202D2D2D2D000000000B
:10588000D059000000002020580000002001000036
:10589000285A0000580020209021000048010000F4
:1058A0001C00000043000000F8FFFFFF0C00000098
:1058B0000E0000000F0000002E000000100100008C
:1058C00043000000F8FFFFFF0040404040404040E0
:1058D00040404141414141404040404040404040C3
:1058E0004040404040404040400502020202020267
:1058F00002020202020202020220202020202020B6
:1059000020202002020202020202909090909090C9
:105910001010101010101010101010101010101087
:1059200010101010020202020202888888888888FB
:1059300008080808080808080808080808080808E7
:1059400008080808020202024000000000000000EF
:105950000000000000000000000000000000000047
:105960000000000000000000000000000000000037
:105970000000000000000000000000000000000027
:105980000000000000000000000000000000000017
:105990000000000000000000000000000000000007
:1059A00000000000000000000000000000000000F7
:1059B00000000000000000000000000000000000E7
:1059C00000000000000000000000000000000000D7
:1059D00000000000000000000000000000000000C7
:1059E00000000000000000000000000000000000B7
:1059F00000000000000000000000000000000000A7
:105A00000000000000000000000000000000000096
:105A10000000000000002020F401000078000000D9
:085A2000F40100000000000089
:04000005000000C136
:00000001FF
