:020000040000FA
:1000000008222020890200008D0200008F020000DB
:1000100000000000000000000000000000000000E0
:10002000000000000000000000000000910200003D
:100030000000000000000000930200009502000094
:10004000970200009702000097020000970200004C
:10005000970200009702000097020000970200003C
:10006000970200009702000097020000970200002C
:10007000970200009702000097020000970200001C
:10008000970200009702000097020000970200000C
:1000900097020000970200009702000097020000FC
:1000A00097020000970200009702000097020000EC
:1000B00097020000970200009702000097020000DC
:1000C00000F002F800F0D1F812A030C80838241867
:1000D0002D18AC4201D100F0C8F80FCCA246AB46B7
:1000E0000CA730CF2D1B083F3F197C427F1E544484
:1000F0002D090426F441641EAC4201D300F0B5F88A
:100100000126334200D0FB1A3343984754465D46DC
:10011000DFE700002C6900004C69000000000000CF
:10012000103A02D378C878C1FAD8520701D330C840
:1001300030C101D504680C60704700000000000069
:100140007047000000000000002300240025002666
:10015000103A01D378C1FBD8520700D330C100D583
:100160000B60704710B56E2902D100F071FB10BD15
:10017000702902D100F0ADFC10BD662902D106F055
:1001800005F810BD652902D106F000F810BD6729F9
:1001900002D105F0FBFF10BD612902D105F0FEFF81
:1001A00010BD03681B0A01D380231943692902D1BA
:1001B00000F018FB10BD642902D100F013FB10BD44
:1001C000752902D100F00EFB10BD6F2902D100F09D
:1001D0002BFC10BD782902D100F068FC10BDE92984
:1001E00002D100F0C7FB10BDE42902D100F0C2FB30
:1001F00010BDF52902D100F0BDFB10BDEF2902D1E1
:1002000000F01EFC10BDF82902D100F05DFC10BD0D
:100210000368DB0901D380231943632902D101F06C
:1002200040F910BD732902D101F043F910BDE32953
:1002300002D101F04DF910BDF32902D101F050F9BE
:1002400010BD002010BD1FB501F02EFA04000020E3
:10025000002105F0C7FD401C60600020002105F072
:10026000ABFDE0601FBD10B510BD01F0F5F9114602
:10027000FFF7E9FF04F058FB01F08AFD03B4FFF734
:10028000F2FF03BC01F02EFE06480047FEE7FEE742
:10029000FEE7FEE7FEE7FEE703480449024A044B97
:1002A00070470000C1000000080220200822202022
:1002B000080220200FB41CB50C0007AA009007D03C
:1002C0004142A14202D30019401E01E00020C04378
:1002D000074B7B4469460190069800F0D2FA002152
:1002E000002C01D0009A11701CBC08BC04B0184747
:1002F000D3050000002203098B422CD3030A8B4252
:1003000011D300239C464EE003460B433CD400220D
:1003100043088B4231D303098B421CD3030A8B421F
:1003200001D394463FE0C3098B4201D3CB01C01AED
:10033000524183098B4201D38B01C01A52414309B8
:100340008B4201D34B01C01A524103098B4201D3A6
:100350000B01C01A5241C3088B4201D3CB00C01A13
:10036000524183088B4201D38B00C01A524143088B
:100370008B4201D34B00C01A5241411A00D20146B0
:100380005241104670475DE0CA0F00D04942031049
:1003900000D3404253409C46002203098B422DD398
:1003A000030A8B4212D38901FC2212BA030A8B4240
:1003B0000CD3890192118B4208D3890192118B428F
:1003C00004D389013AD0921100E08909C3098B4214
:1003D00001D3CB01C01A524183098B4201D38B0157
:1003E000C01A524143098B4201D34B01C01A5241FA
:1003F00003098B4201D30B01C01A5241C3088B423F
:1004000001D3CB00C01A524183088B4201D38B0029
:10041000C01A5241D9D243088B4201D34B00C01AB3
:100420005241411A00D201465241104663465B10C8
:1004300001D34042002B00D54942704763465B1010
:1004400000D3404201B50549002802DC491C0840A0
:1004500000E00846C046C04602BD00BFFFFFFF7F68
:100460007047704770471F22030C02D10F2200040F
:1004700002D0030E03D004E00020014670470002C2
:10048000083A030F01D10001121F830F01D1800030
:10049000921E002801DB4000521E12055118420531
:1004A000C012411810467047C10FC90700D0404222
:1004B000012292071143D6E701218907D3E7000003
:1004C0000121C9050123411842001B06D3185B0E08
:1004D0000AD0C1100722D206891840075242D142E1
:1004E00001D5520089187047090208D50146002A33
:1004F00003D0C10FC9070020704710467047420261
:1005000002D0002002497047072109050143F4E7A2
:100510000000F87FF0B5FF252D04C609C209FF27AA
:1005200004462E400137CB093E4348402A402B4029
:100530000746002A6BD0002B69D0AA4267D0AB4295
:1005400065D0002800DA32460125ED0529432C4309
:1005500009022002090AD21A4B0C7F24E31A434CE9
:10056000000A7C44E35C7D242404121914145B000B
:10057000A218884201D3521C00E0400049420C46B8
:100580005C4324115C43DB016415E318040A5C43FB
:10059000C502200D0C4644436419250A5D4323031C
:1005A000EC0C0D46654300030019EB184C42A342C6
:1005B00001D35B18401CD4052018002B07D05B002A
:1005C000C91804D3401C002901D1400840003F2134
:1005D00089048A4209D3002A08DC1106090F04D0D5
:1005E000032149074018C00FC007F0BD0122410098
:1005F000120689187F2252069142F6D20521490738
:10060000C84201D59010F0BDFF20C005F0BD002FFD
:1006100000DA32461648AA4207D2AB4205D2190286
:10062000090E17D0F80FC007F0BDFF2563002D0697
:10063000AB42F9D84900A942F6D8AB4201D1A94250
:10064000F2D0A94201D1002101E061004908D005A2
:100650000843F0BD1102090EFBD0FF200243D00574
:10066000F0BD0A460146104654E70000465C000013
:100670000000C07F10B501469E240002CA15A307E2
:10068000002A02D01843002A04DBA21A002A0CDD3B
:10069000D04010BD1206120E01D140004008A21A2F
:1006A00003D4D04040420028F3DDFF224800120668
:1006B000904201D9002010BDC817C043584010BD5A
:1006C0001F22030C02D10F2200041CD0030E01D103
:1006D0000002083A030F01D10001121F830F01D15C
:1006E0008000921E002801DB4000521ED2055118E6
:1006F000021251181922904004D3491C002801D13C
:100700004908490008467047C10FC90700D0404258
:10071000012292071143D3E701218907D0E770B581
:10072000044685690068C10601D5302600E0202610
:10073000C00707D070BD62683046A1689047206A44
:10074000401C20626D1EF6D570BD70B504468569EB
:100750000078C00707D170BD6268A168202090476B
:10076000206A401C20626D1EF6D570BD09684A05DE
:1007700001D540B27047C905FCD500B27047096881
:100780004A0501D5C0B27047C905FCD580B2704793
:1007900070B50C460546012A05D02878800600D59C
:1007A000EA69002302E0012305E05B1C934202D2C8
:1007B000E05C0028F9D1A869E618C01AA861286A87
:1007C000C01828622846FFF7AAFF04E06A6820786C
:1007D000A968641C9047B442F8D32846FFF7B5FFD8
:1007E00070BD0000F7B5002575291068009914A6A2
:1007F00011D0FFF7BBFF002802DA404211A608E043
:10080000009909688A0701D50FA602E0490704D5B7
:100810000EA6012501E0FFF7B2FF009F0024243758
:1008200004E000F082FE30313955641C0028F8D114
:100830002B4632462146009800F059FAFEBD0000D2
:10084000000000002D0000002B0000002000000030
:1008500011680268006A530501D5087009E0D305E4
:1008600001D5088005E0130602D5C21705C100E0D6
:10087000086001207047000001694A1C0261087885
:10088000704700B58FB00291002105910549019391
:100890007944039111460490684600F027F90FB09F
:1008A00000BD0000E5FFFFFF0CC908399A4202D2E3
:1008B000531C0B6010707047F7B50446154686B0A0
:1008C0002B487844002703C83E460090019111E070
:1008D00007986A467100415A02A800F005FE411CC3
:1008E00007D02178890603D5E269391891420ED8DC
:1008F0003F18761C2078800602D5E069B84206DDF4
:10090000AE42E5DB07987100405A0028E0D1A069AB
:10091000C01BA0612046FFF702FF154878445A38F3
:1009200003C800900020019116E041006A46079834
:10093000415A02A800F0D8FD0590401C0AD00025BD
:1009400005E0626802A8A168405D90476D1C0598AB
:100950008542F6D30498401CB0420490E5DB206A3F
:10096000C01920622046FFF7F0FE09B0F0BD00007C
:1009700026590000F7B5D21D0025D20815A6D200D1
:10098000F52905CA11D0002A05DA0021404291411B
:1009900011A60A4608E0009909688B0701D50FA641
:1009A00002E0490701D50EA601251146009F00244B
:1009B000243704E000F05EF930323A55641C0246F8
:1009C0000A43F7D12B4632462146009800F08FF9B2
:1009D000FEBD0000000000002D0000002B00000004
:1009E0002000000070B504460021243408E05507BB
:1009F000D2086D0F303565545D072A43DB08491C6A
:100A000015461D43F3D10468002310A2250708D51D
:100A100020252C400C4304D0C46901230CA2641E81
:100A2000C46100F064F970BD10B504462146106839
:100A3000FFF7A5FE002302462046FFF7D3FF10BDB7
:100A4000D21DD108C9000CC9CCE70000000000008D
:100A500030000000F8B50F460188090502D5224C88
:100A60007C4402E0204C7C440E34054600212435B1
:100A700008E016071209360FA65D6E541E073243B2
:100A80001B09491C16461E43F3D122460478002355
:100A9000240705D5702F06D0002901D0022311327A
:100AA00000F025F9F8BD01231032F9E770B50446CE
:100AB0000D4621461068FFF762FE002302462946D4
:100AC0002046FFF7C7FF70BDD21DD308DB000CCB5B
:100AD000C0E730B40368202412682343036008236E
:100AE000C36130BC0023B5E790570000F3B504465E
:100AF000002081B020622046E1688847002872D03B
:100B0000252802D06268A168ABE0594F00267F44D7
:100B10002046E16888472028054608DB312D06D2AB
:100B2000781920380078002801D00643F0E7B00794
:100B300001D5042086430020E0610746A0612A2DEC
:100B40000AD0284605F030F9002827D0B80000194F
:100B5000303D0090856119E00298BA00121902C870
:100B6000916102902046E1688847012F054617D120
:100B7000E06900281FDA202086431CE000980A2143
:100B80008069484300994019303888612046E168FF
:100B90008847054605F008F90028EFD1012F0AD053
:100BA0002E2D08D12046E1688847054620200643BF
:100BB0007F1C022FC3DBA069002803DA4042A0613A
:100BC00001200643F00701D0102086436C2D0BD086
:100BD000682D09D04C2D3CD06A2D38D0742D38D0DA
:100BE0007A2D36D016E040E0E1682F46204688474F
:100BF000B842054609D16C2F29D001208002E16856
:100C0000064320468847054604E06C2F1DD0FF2090
:100C100001300643002D28D028464138192803D832
:100C20000120C00206432035204626602946029A4C
:100C30001646FFF797FA002810D001280BD0F61DB2
:100C4000F008C0000830029055E74020E1E780201E
:100C5000D5E70020D3E7361D02964CE762682846A8
:100C6000A1689047206A401C44E7206AFEBD00004E
:100C70000A5700000B4670B50246890780080843F2
:100C800019469D08141AA9412509080705430809B2
:100C90002C194841250A01060D43010A2C1941412E
:100CA000200C0D0428430D0C00194D410021401962
:100CB0004D41C00869070843E908840F8D002543AA
:100CC000840024184D4124196D41121BAB4107E0EB
:100CD0000925ED432C11521963410024401C614148
:100CE0001C460A250026551BB441F1D270BDFFB544
:100CF00004460D4681B0243000902168880604D552
:100D00001022E0699143216000E00120A84201DD4A
:100D1000471B00E000270498A1697A191018081AE7
:100D2000A0612078C00602D42046FFF7F8FC002618
:100D300008E003986268A168805D9047206A401CC3
:100D4000761C206204988642F3DB2078C0060AD520
:100D50002046FFF7E4FC06E06268A1683020904777
:100D6000206A401C206238467F1E0028F4DC07E021
:100D700000986268A168405D9047206A401C20622C
:100D800028466D1E0028F3DC2046FFF7DEFC2078A5
:100D9000000602D5022005B0F0BD0120FBE70000EF
:100DA000FFB50C461E468FB003CA089009914F004C
:100DB0007D0D00D16D1E002108460020C046032194
:100DC000099A89050840002A03DA82008018400841
:100DD0000840800D01280A9002DD0020C0430A90DF
:100DE000089807430DD0F048F049281848430714E5
:100DF000189800281DD07542291E1DDD0A98424210
:100E00001BE01898012802D00020302104E00020C7
:100E1000F24305E02154401CB042FBDB3046002287
:100E2000189B002121540F998B600A60486013B011
:100E3000F0BDBD1B6D1CDFE70A9A002900DA69428C
:100E40000BA800F079FC0BAB07CB03AB07C30899E9
:100E5000099800F0DDFC6B4607C30146D448091829
:100E6000002D00910BDDD24903980A9A494240189F
:100E7000002303A90390684600F03AFF08E00399B5
:100E80000A9A0023081803A90390684600F0DAFEC6
:100E90006B4607C30004000C03D00020C043410888
:100EA00000E01046189A002A03D00022009215464E
:100EB0001EE0751E05D4FFF7DDFE303262556D1E53
:100EC000F9D501220843079602D000227F1C04E0D6
:100ED0002078302801D100227F1E002A069787D073
:100EE0001EE0112D07DAFFF7C5FE303262556D1C8A
:100EF00002460A43F5D1084303D00098002819D0D0
:100F00000EE00021681E05E0235C625C63542254FD
:100F1000401E491C8142F7DBA81B401E0795069026
:100F2000079A18990020A0540F98079B069A816091
:100F30000CC07CE711260020189059E7D21DF0B5AF
:100F40000D460446D10893B0C90003C90C900D9119
:100F500004F0E4FE02460D98C00F01D02D2007E0FA
:100F60002068810701D52B2002E04007C00F400117
:100F7000032A0F9001D0072A05DB034629462046A5
:100F800000F096FB0EE12078800601D5E76900E0CD
:100F900006272846652D04D0662814D0672D69D110
:100FA0002DE00020112F009001DB112300E07B1CBD
:100FB0000CAA03A910A8FFF7F3FE119900261098B8
:100FC0007D1C0E9142E001203B460CAAC0070B900D
:100FD0000120009003A910A8FFF7E2FE119D1298CE
:100FE0001099002600280E9501D1781C0D18781B49
:100FF00002D446427D1C761EE81B00903AE0012F89
:1010000000DA01270020112F009001DD112300E0FC
:101010003B460CAA03A910A8FFF7C2FE11993D4652
:10102000109800260E91217809070BD40E99A94239
:1010300000DA0D4603A9012D04DD4A19203AD27FBA
:10104000302A06D0B84201DA011D04DA01210091EC
:101050000FE06D1EEFE7002802DC86192D1A03E071
:10106000411CA94200DD0D46801B401C0090012060
:10107000C0070B902078000705D40098A84202DB37
:101080000020C043009069460020C8720B980121DF
:1010900002AF0337C907884225D0022010902B20C9
:1010A00011900B9800280BDA40420B902D201190E4
:1010B00006E00B9800F039FA30317F1E0B90397042
:1010C0001099481E00291090F3DC0B980028F0D1ED
:1010D00011987F1E38702088000501D5452000E05A
:1010E00065207F1E387001A8C01BC01D0B900F9893
:1010F000002800D0012041190098C01709180B984A
:101100000818A169081A401EA0612078C00602D400
:101110002046FFF704FB0F98002805D06268A168FD
:101120009047206A401C20622078C00625D52046C2
:10113000FFF7F5FA21E0002E07DB0E98B04204DD40
:1011400003A86268805DA16802E06268A16830203F
:101150009047206A761C401C20620098401E0028A0
:1011600000900AD100F0A0FAC06862680168405C93
:10117000A1689047206A401C206228466D1E002806
:10118000D9DC07E062683878A1687F1C9047206A44
:10119000401C20620B99481E00290B90F2DC20466F
:1011A000FFF7D3FA032042E601FCFFFF104D0000D9
:1011B000E1DFFFFFD21DF0B504460D46D0088DB02B
:1011C000C000466807683146384604F0A7FD02466D
:1011D000F00F01D02D2307E02068810701D52B23D4
:1011E00002E04007C00F43016846002B037001D0A6
:1011F000012000E00020032A0A9001D0072A04DB26
:101200002946204600F054FA2DE12078800601D4CA
:101210000D2500E0E5697000400D0D2D01904BDAC1
:10122000300D00210B9008460020C046032189059F
:101230000840002E05DA82008018C20F10184010F6
:1012400008408015012801DD0020C043A9000023CB
:10125000182906D39C460A460123183A1B07D34097
:1012600003E001221205CA4094460C31202902D322
:101270003A46203900E032468A40002802DD002A42
:1012800006D119E0002817D10121C9078A4213D3DA
:10129000194663467F185E41002806D10120C00729
:1012A000824202D1084687439E430B98310D81420A
:1012B00002D00198401C01902088000502D5714998
:1012C000794402E06F49794419396B460A98302213
:1012D0001A540A980A7C401C1A54401C0A9001981F
:1012E000002801DC302000E031201872019A012032
:1012F000002A02D0644BD21804E072003A4302D0B4
:10130000614A521C0192002D02DC2278120703D59B
:101310006A462E20507202200022864694460CE037
:1013200032033601120F6D1E8B5C02AA1354624603
:10133000521C401C9446052A01DA002DF0DC0022E4
:1013400002AE08E03B0F3F01CB5C521C6D1E3354D4
:10135000401C082A01DA002DF4DC23689A0601D526
:1013600011E0401E704504DD3218203AD27F302A49
:10137000F7D0002807DD3218203AD27F2E2A02D17A
:101380001A0700D4401E002D03DD3E223254401CBB
:101390006D1E497C31540199401C002906DA2D212B
:1013A000471C315401984042019003E02B21471C17
:1013B000315401987D21C900884206DBFEF7A4FF65
:1013C0003030F0557F1C019101E0642808DB019862
:1013D0006421FEF799FF3030F0557F1C019101E048
:1013E0000A2806DB01980A21FEF78EFF3030F055FF
:1013F0007F1C01980A21FEF787FF3031F1550A98CA
:10140000A1697F1C7A191018081AA0612078C006FB
:1014100002D42046FFF783F9216A6E460A9808181D
:10142000206204E062683078A168761C90470A98D0
:10143000401E0A90401CF5D12078C00602D52046F7
:10144000FFF76DF902AE09E03078761C3E280DD02A
:101450006268A1689047206A401C20627F1EF3D218
:101460002046FFF772F90DB00320F0BD206A401945
:10147000206203E06268A168302090476D1EEDD3C2
:10148000F8E700007C4F000001FCFFFF10B5436946
:10149000002B02D0C046C04601E0FFF779F90120D9
:1014A00010BD1278014624310A7000224A700122D0
:1014B000ECE711680022D243E8E710B54369002B3E
:1014C00002D0C046C04601E0FFF7F6F9012010BD8A
:1014D00012880146243182840022C2840122ECE772
:1014E00011680022D243E8E7F8B516460C460546D7
:1014F00000F0D2F80368FF200230C05C012807D05A
:10150000FF2C0FD8185D00280CD001202C70F8BDDE
:10151000FF333246214608331868C718284600238F
:10152000B847F8BD0020C043F8BD01468008081A3E
:1015300002091018020A1018020C1018C0088200C4
:1015400012185200891A01E0401C0A390A29FBD2FC
:1015500070470000F8B5264C4E00069DA6420AD8FA
:10156000A64201D1002806D15E00A64203D8A642B9
:101570000AD1002A08D00D242404254233D029465C
:10158000002000F00DFCF8BD0C461C4311D499421C
:1015900007D0C81A02D3EFF30080F8BDEFF3008044
:1015A000F8BD801A02D3EFF30080F8BDEFF300809E
:1015B000F8BD09242407E5008B4207D0581A02D34E
:1015C000EFF3008006E0EFF3008007E0101A03D38A
:1015D000EFF30080A04303E0EFF30080A043284333
:1015E00080F30088F8BD009500F0F2FBF8BD000024
:1015F0000000E0FF10B5FF231B0644009C421DD8ED
:101600004C009C421AD80346124A0B4307D4401A96
:1016100002D3EFF3008010BDEFF3008010BD081A75
:1016200003D3EFF30080904305E0EFF30080012146
:101630009043C907084380F3008810BD0D231B04A5
:101640001A4204D01146002000F0AAFB10BD00F0A1
:10165000C9FB10BD00000090754600F0CBFBAE4604
:10166000050069465346C008C000854618B020B53D
:10167000FEF712FE60BCB64600260027C0C5C0C5F6
:10168000C0C5C0C5C0C5C0C5C0C5C0C5403D49086E
:1016900049008D467047000010B500F005F8001DA8
:1016A00010BD00BF4147000000487047780020206F
:1016B000F8B51F46044601230068DB0203260146F5
:1016C0001840072A05DB002801D017A506E017A55A
:1016D00004E0002801D016A500E016A510208143E3
:1016E0002160A069C01E002FA06101D0401EA06132
:1016F0002046FFF714F8002F09D038466268A16829
:101700009047206A401C2062C01C206206E0206ACC
:10171000FAE762682878A1686D1C9047761EF8D2B7
:101720002046FFF712F8F8BD4E414E006E616E0084
:10173000494E4600696E6600F7B516468AB03348D2
:1017400078446C4603467C33C06F5A689B680DC46E
:101750002E487844763003AC0DC80DC43720C00144
:10176000081837211B30FEF7CFFD05460C46803D9B
:101770001B3C02D56442012000E0002000270990B4
:1017800010E0E0070CD00C20204978437944324621
:101790004C3941186846012300F054FA6B4607C3E0
:1017A00064107F1C002CECD1184F7F442E3F16E0B4
:1017B000E80712D02001C0190EC8069108930792BD
:1017C0000068F04201D1981908903246012306A919
:1017D00003A800F037FA03AB07C36D10641C002D9B
:1017E000E6D10998002806D032466946012303A8AD
:1017F00000F07EFA05E001233246694603A800F0B6
:1018000021FA0A9B07C30DB0F0BD0000104B000089
:10181000034640000A4610B5400D0BD00121C90710
:101820000F24A40200191C0364082143540D214312
:10183000D20207E000210120F2E7D40F4900214342
:101840005200401E0029F8DADB0FDB07184310BDF9
:10185000FFB50D46144685B04868516804F046FA55
:1018600000910190A868A16804F040FA02910390E9
:10187000A868616804F03AFA029A12188242029249
:1018800001D2012000E00020019A0B18D218002894
:10189000019202D08A4202D903E08A4201D2012099
:1018A00000E000200099081800906868A16804F022
:1018B0001DFA029A12188242029201D2012000E01F
:1018C0000020019A0B18D2180028019202D08A42F7
:1018D00002D903E08A4201D2012000E000200099F1
:1018E000081800902868216840004900400849080D
:1018F0004018FA49471814E001994000C90F0843FD
:101900000090019802994000C90F08430190029885
:1019100003994000C90F08430290039840007F1EBE
:10192000039000980028E7DA0898002801D0EC4ED0
:1019300000E00026B74201DA012000E00020002884
:1019400004902AD0F71BF806C00E15D0029B202168
:10195000091A039A8B401A430392029A019BC240D0
:101960008B401A430292019A009BC2408B4000991F
:101970001A430192C14000917B110DD06F460320A4
:10198000C11A03D500218200B95003E08A0081000A
:10199000BA587A50401EF3D537460398029900286A
:1019A00000D00120014308980291002808460CD07D
:1019B000002800D001200199019A4905084301211E
:1019C000D20AC902D202019200E001210E9B01223B
:1019D000D207012B02D0002B03D013E0002807D13F
:1019E00020E0904204D890420CD1019B0B4209D0D8
:1019F000019B5918019105D10099491C009101D111
:101A00007F1C009200280DD0102108460020C046FF
:101A10000498002806D00F98002803D00821084613
:101A20000020C04628682168019B009A4840C10FE9
:101A30000598C90739430EC009B0F0BDFFB587B09E
:101A4000099A089808995368926840688968964688
:101A50000022039317469446089A12685300099A85
:101A60005B081268520052089A1A9E4BD4180A9AC0
:101A7000002A01D0352200E04022069200220123F4
:101A800015460492DB07059324E0002D05D1754629
:101A90000346039E4D1BB34109D375466646039B1F
:101AA000491B049D9841059B7519AC465F416346EF
:101AB0003B4308D0059B049EDD0776082E435B0858
:101AC0000496059301E0521E641EC50FED074918E8
:101AD0004041521C069B9A42D7DB002D04D175462B
:101AE000039A6B1A824101D203200CE0039A0B4641
:101AF0006B404240134303D0014303D0012002E076
:101B0000022000E00020614601910021009702912F
:101B10000A99002905D0614640020143704B0191AA
:101B200002E08007002302909C4201DA012000E0DD
:101B3000002007003AD01A1BD006C00E15D0029D17
:101B40002021019C091AC5408C402543029C8C40F1
:101B500000D001242543019C0295009DC4408D4086
:101B600000992C430194C140009154111DD06D4641
:101B70000221002202290CD10320001B07E00028CB
:101B800004DB8600AE59002E00D00122401C032841
:101B9000F5DB081B02D588002A5004E08000285895
:101BA00010438A00A850491EE3D51C460A98002815
:101BB00002980CD0002800D001200199019A490513
:101BC00008430121D20AC902D202019200E0012198
:101BD000109B0122D207012B02D0002B03D013E06F
:101BE000002807D11FE0904204D890420CD1019BFD
:101BF0000B4209D0019B5918019105D10099491C4C
:101C0000009101D1641C009200280CD010210846DC
:101C10000020C046002F06D01198002803D00821CC
:101C200008460020C04608980999019A009B006860
:101C300009684840C10F0798C907214382600AC05C
:101C40000BB0F0BD00B585B0019300920A46014685
:101C5000002302A8FFF7FCFD02A807C805B000BDDD
:101C6000FFB50A461F4685B00799019301230091ED
:101C7000014602A8FFF7ECFD02990398049ECA0FE3
:101C80004900D20700920F22490892028C1A0021C3
:101C9000002800DB0C46450013486D08844214D32D
:101CA000079A002A04DA441E0026104DF64302E08B
:101CB00004460D460E46102108460020C046002F5F
:101CC00003D0042108460020C0462005E90A084345
:101CD000009908436905F20A1143ADE602C0FFFF0F
:101CE000013C0000FF3F0000FF070000FFFFFF7FF7
:101CF00000B585B0019300920A460146002302A870
:101D0000FFF79CFE02A807C8A8E7FFB50A461F46D2
:101D100085B00799019301230091014602A8FFF7BE
:101D20008DFE02990398049ECA0F4900D2070092C3
:101D30000F22490892028C1A0021002800DB0C4671
:101D4000450011486D08844214D3079A002A04DA2A
:101D5000441E00260D4DF64302E004460D460E4695
:101D6000102108460020C046002F03D00421084659
:101D70000020C0462005E90A084300990843690588
:101D8000F20A114358E60000FF070000FFFFFF7F43
:101D900010B50446C046C0462046FEF76FFA10BD97
:101DA000C80212D54803400F002804D0C803C0431E
:101DB000012188407047EFF30080000100090321F2
:101DC0000907084380F3008870470020704700002F
:101DD00010B500200249029A00F054F810BD00002E
:101DE0000000F87F10B5024800F04CF810BD00006C
:101DF0000000C07F0048704758002020024670B5A0
:101E00000A4392072AD11E4DEE0104C808C9541B8B
:101E10009443344017D0D0B2D9B2401A21060143BE
:101E200010D190B299B2401A210401430AD1100294
:101E30001902000A090A401A2102014302D1100EB8
:101E4000190E401A70BD9A42DFD010BA19BA8842F2
:101E500001D9012070BD0020C04370BD02780B780D
:101E6000401C491C002A09D09A4207D102780B78FD
:101E7000401C491C002A01D09A42EFD0D01A70BDF4
:101E80000101010110B50C461107090F092904D001
:101E90000A290AD008290CD104E011460820FFF7CE
:101EA0007FFF06E0510606D501E0510601D501206D
:101EB000C007214610BDD10607D501010909CC088C
:101EC0004907000E0006044309E0410F20024907BC
:101ED000000A0143200E00061D22D141014308469D
:101EE000E7E7000001491820ABBEFEE7260002002C
:101EF0007047000083B0029001910092029801990E
:101F00000843009908430549086003B07047C0467C
:101F100002480068072108407047C046001340404F
:101F200082B001900199881E001F00BFFCD2009072
:101F300002B0704784B00390029101920398006848
:101F40000090009801998843009000980299019AA6
:101F5000114008430399086004B0704784B00390AF
:101F600002910192039800680090009801998843BB
:101F7000009000980299019A114008430399086063
:101F800004B0704784B003900291019203980068F6
:101F90000090009801998843009000980299019A56
:101FA000114008430399086004B0704784B003905F
:101FB000029101920398006800900098019988436B
:101FC000009000980299019A114008430399086013
:101FD00004B0704784B003900291019203980068A6
:101FE0000090009801998843009000980299019A06
:101FF000114008430399086004B07047194800680D
:1020000019490860194800684860194800688860E4
:1020100018480068C86018480068086117480068D8
:10202000486117480068886116480068C86116480A
:1020300000680862154800684862154800688862B0
:1020400014480068C86214480068086313480068B0
:10205000486313480068886312480068C8631248E0
:10206000086470470000C441000020200400C441FF
:102070000800C4410C00C4411000C4411400C44114
:102080001800C4411C00C4412000C4412400C441C4
:102090002800C4412C00C4413000C4413400C44174
:1020A0003800C4413C00C441FECAFECA034800686F
:1020B000006C0349401841424841704744002020C9
:1020C0000235013582B00190009100980199952266
:1020D0005201885002B0704782B001900091009880
:1020E000019995225201885002B0704782B0019048
:1020F00000910098019995225201885002B07047D2
:1021000082B0019000910098019995225201885067
:1021100002B0704782B00190009100980199952219
:102120005201885002B0704782B00190009100982F
:10213000019995225201885002B0704782B00190F7
:1021400000910098019997225201885002B070477F
:1021500082B0019000910098019997225201885015
:1021600002B0704782B00190009100980199114A25
:10217000885002B07047C04682B00190009100982C
:1021800001990C4A885002B07047C04682B0019055
:10219000009100980199074A885002B07047C046E4
:1021A00082B00190009100980199024A885002B0D3
:1021B0007047C046D012000081B000900099012005
:1021C000C2029748885001B07047C04610B584B02D
:1021D000069C039002910192009302990198014399
:1021E00000980143069A012003071A4011432A4A26
:1021F0001143039A9300564A9950069BC006034028
:102200000398810088581843885004B010BDC04618
:1022100010B584B0069C039002910192009302993C
:102220000198014300980143069A012003071A40D0
:102230001143194A1143039A9300454A9950069B4A
:10224000C00603400398810088581843885004B0A2
:1022500010BDC04610B584B0069C03900291019257
:10226000009302990198014300980143069A0120C6
:1022700003071A401143084A1143039A9300344A52
:102280009950069BC0060340039881008858184364
:10229000885004B010BDC0468100040081B0009099
:1022A000009881002A4A8120885001B07047C046BA
:1022B00010B584B0069C039002910192009302989D
:1022C000019908430099084306990843812108436E
:1022D000039989001E4A885004B010BD10B584B01F
:1022E000069C039002910192009302980199084381
:1022F00000990843069908438121084303998900FE
:10230000134A885004B010BD81B00090009881003D
:102310000F4A0020885001B07047C04682B001903B
:10232000009100980349084301998900084A8850A0
:1023300002B070478000040082B0019000910098C4
:102340008021084301998900014A885002B07047F2
:102350000480424082B00190009101982721C90178
:1023600040580099084002B0704782B00190009137
:1023700001982721C90140580099084002B07047D0
:1023800081B000900099484A4848885001B0704791
:1023900082B00190009100980199164A885002B0CD
:1023A0007047C04682B00190009100980199114A8F
:1023B000885002B07047C04682B0019000910098EA
:1023C00001990C4A885002B07047C04682B0019013
:1023D000009100980199074A885002B07047C046A2
:1023E00082B00190009100980199024A885002B091
:1023F0007047C0469012000081B0009000991A4AC0
:10240000885801231843885001B0704781B000906C
:1024100000990120C2020248885001B07047C046AE
:102420000100002680B582B0019000910198112131
:1024300009024018009A118953881943927911436F
:10244000084AFFF78BFD019807494018009A9188C8
:10245000D3791943127811435D229200FFF77EFD74
:1024600002B080BD7F3300000411000081B00090F5
:1024700000980849405810210840000901B07047F1
:1024800081B000900098034940580121084001B0F4
:102490007047C0461011000081B000900099024AB8
:1024A0000248885001B0704704080000030000B1E2
:1024B00080B582B0019000910198044940180099BC
:1024C000034AFFF737FD02B080BDC0460811000087
:1024D000FF03000082B001900091009800780199FC
:1024E000044A8850009840780199012212038850CC
:1024F00002B070470410000080B584B000920A4614
:1025000001460098039102A90A7001AA107003986D
:10251000044BC0180978127811433F22FFF70AFDD7
:1025200004B080BD0C11000082B0019068460170BB
:102530000078019945229201885002B0704700004E
:1025400080B584B0039002910192039902980143EF
:10255000019801433F200204C048FFF73BFD04B04F
:1025600080BDC04680B586B0059000F08FF8FFF7BB
:102570009DFD002803D1FFE7FFF740FDFFE7FFE7E0
:1025800000F0B8F8012189030840884201D0FFE734
:10259000F6E70598417E2948039001220192FFF752
:1025A00019FD05982021415C254802900322FFF780
:1025B00011FDFFF7ADFC01460198049100210422B2
:1025C000FFF798FC02980599496A09681D4A11604D
:1025D0000599496A49681C4A116004991B4A1160AF
:1025E0000599C9694906490C7F221202FFF7F2FCDE
:1025F0000398059A11680907090B53681B039BB2DE
:10260000C91893681B071B0DC918D36819431369B0
:10261000194353691943127E11430D4AFFF7DAFC3F
:1026200000F05CF8FFE700F065F80121490208407E
:10263000884201D0FFE7F6E706B080BD20010B40DD
:1026400024010B4028010B402C010B40001340409B
:1026500072FF0F0073490868012212079043086057
:102660007047C0466249086801229043086070477D
:102670005F49086801229043086070475C49086818
:1026800001221202904308607047C046584908680A
:1026900001221202904308607047C04661490868F1
:1026A00001221207104308607047C0468F4908682E
:1026B00001221203104308607047C04602490868AF
:1026C00010221043086070473C010B4048490868DD
:1026D00001221202104308607047C046444908684E
:1026E00001221202104308607047C0460348006888
:1026F0007047C046014800687047C04604020B405E
:1027000080B5FFF7F3FF012149060840400E80BD68
:10271000014800687047C04650010B4081B0014637
:102720006846017000780249086001B07047C046F1
:1027300008030B4080B582B0019001991F2002066A
:102740004648FFF7F7FB02B080BDC04680B582B0B7
:10275000014601A8018001880F2002026348FFF7AB
:10276000E9FB02B080BDC04680B582B0014601A839
:102770000170007801030F2002033848FFF7DAFBED
:1027800002B080BD80B584B003AB1880029101A86F
:102790000270FFF78BFC002803D1FFE7FFF72EFC48
:1027A000FFE7FFF765FF03A8008800F023F8029811
:1027B00000F02EF80E49086801221043086001A8B5
:1027C0000078C00700280DD0FFE7FFF767FFFFE79D
:1027D000FFF790FF012109020840884201D0FFE77E
:1027E000F6E702E0FFF736FFFFE704B080BDC04622
:1027F00008010B4080B582B0014601A80180018824
:10280000032002030748FFF7E5FB02B080BDC04686
:1028100080B582B0019001990248FF22FFF7DAFBF0
:1028200002B080BD10010B4081B0014668460170C6
:1028300000780249086001B07047C0460C010B40A7
:1028400080B582B0014601A80180018801204202C2
:102850000248FFF76FFB02B080BDC04638010B4055
:1028600080B582B0014601A80170017802480322B8
:10287000FFF760FB02B080BD00010B4080B582B065
:10288000014601A80170017818483022FFF752FB79
:1028900002B080BD01490248086070472C030B401C
:1028A0000100000E80B582B0014601A801700078D9
:1028B000FFF7BAFFFFE7FFF71DFF012149050840B9
:1028C000884201D0FFE7F6E70849086801221204B0
:1028D00010430860FFE7FFF70DFF102108401028A4
:1028E00001D0FFE7F7E702B080BDC04604010B400E
:1028F00082B00190009100980199024A885002B07C
:102900007047C0464810000081B000900099012037
:10291000C2023048885001B07047C04681B0009074
:1029200000980349405804210840800801B07047CE
:102930003010000081B000900099A84A01488850EA
:1029400001B07047010000B180B584B0019101462B
:102950000198039102A908700398112212028018AD
:1029600009780322FFF7E6FA04B080BD82B0019037
:102970006846017000780199014A885002B070479A
:102980001011000080B584B00191014601980391B7
:1029900002A908700398112212028018097809020E
:1029A00007221202FFF7C6FA04B080BD81B0009082
:1029B0000099024A0120885001B0704708110000B8
:1029C00081B0009000990120C2020248885001B0F5
:1029D0007047C0460100002680B58CB00B900A916C
:1029E0000A984079C00700285BD0FFE70A98007971
:1029F0000790002804D0FFE7079820280CD017E0A4
:102A00000B9888210691022200F00CF906990B9888
:102A1000032200F007F918E00B986A490591022299
:102A200000F000F905990B98032200F0FBF80CE088
:102A30000B980521C9010491022200F0F3F80499D2
:102A40000B98032200F0EEF8FFE70B9800220292A9
:102A500002230193114600F0FFF8029A0B9803231A
:102A60000393114600F0F8F80199029B0B9800912E
:102A700019461A4600F028F9029B03990B98009119
:102A800019461A4600F020F9019B029A0B9811464C
:102A900000F000F9029A039B0B98114600F0FAF837
:102AA000FFE70A98006808900A98007908A9087159
:102AB0000A98807988710B9800F002F80CB080BDFC
:102AC00080B58AB00990089108980079079000288D
:102AD00004D0FFE70798202812D029E00998089928
:102AE0000968491E00F068F90998882106910022BA
:102AF00000F098F806990998012200F093F82AE06E
:102B0000099808990968491E00F056F909982D4955
:102B10000491002200F086F8049909980122059298
:102B200000F080F805990998490700F035F912E09E
:102B3000099808990968490800F03EF909980521A3
:102B4000C9010391002200F06DF803990998012250
:102B500000F068F8FFE709980023019319461A4628
:102B600000F07AF8019A099801230293114600F0C7
:102B700073F8019B0998009319461A4600F0A4F8CF
:102B8000019B02990998009119461A4600F09CF899
:102B9000019B099819461A4600F07CF8019A029B9D
:102BA0000998114600F076F8099882494018089A69
:102BB00011799279114302221143034AFFF7E2F996
:102BC0000AB080BD01040000BFFF003081B000905A
:102BD0000099BC4ABC48885001B070470408000006
:102BE00082B0019000910098019911221202885040
:102BF00002B0704780B584B00390029101A80270C2
:102C00000399224A89180091017800988900401898
:102C100000900098029907229204FFF7B3F904B0DC
:102C200080BDC04680B584B00390029101A80270B7
:102C30000399074A89180091017800988900401883
:102C4000009000980299034AFFF79CF904B080BDF8
:102C500070180000DBB6C1FF10B586B00590049176
:102C6000039202A803700599084A89180191017816
:102C7000019889004018019001980499039A114322
:102C8000034AFFF77FF906B010BDC04630180000B8
:102C90007777020010B586B005900491039202A8E0
:102CA000037005993122D2018918019101780198A8
:102CB00089004018019001980499039A11438F22CA
:102CC000FFF760F906B010BD10B587B0009104465B
:102CD00000980999069405900492039302A8017044
:102CE0000699084A891801910178019889004018CD
:102CF00001900598049908430399084301990860D5
:102D000007B010BD5018000084B00390029101A8D4
:102D100002700399064A8918009101780098890089
:102D20004018009002980099086004B07047C046AF
:102D30001018000082B0019000910098007801996D
:102D40007D4A8850009840780199012212038850EA
:102D5000009880780199934A885002B07047C04625
:102D600010B586B001930B4601460198059104A960
:102D70000B8003AB1A8002AA108005980D4C001935
:102D800009881B88194312881143024AFFF7D2F8B9
:102D900006B010BD80FF000080B582B001900091A8
:102DA000019804494018009903221207FFF7EAF836
:102DB00002B080BD0418000082B00190009100981C
:102DC0000199024A885002B07047C04608180000B6
:102DD00081B0009000991120020288580123984385
:102DE000885001B0704781B0009000991120020214
:102DF000885801231843885001B0704781B0009073
:102E0000009911200202885801235B04184388505E
:102E100001B0704781B0009000990120C2020248C1
:102E2000885001B07047C0460100002680B582B0CE
:102E3000019000910198FFF7CBFF01981121090241
:102E40004018009A11889378194392881143084AD0
:102E5000FFF7ACF801982F494018009A9179D3797F
:102E60001943127A11437E22FFF7A0F802B080BD09
:102E70001867020081B0009000980849405801216D
:102E8000084001B07047C04681B0009000980349E7
:102E9000405804210840800801B070470811000024
:102EA00081B00090009802494058C0B201B070470C
:102EB0002411000081B000900099024A0248885015
:102EC00001B0704704080000030000B180B584B071
:102ED00003900291019203980B49401802990B4A02
:102EE000FFF728F803980A49401801993F22FFF795
:102EF00021F80399074A8818895801221140FFF7E1
:102F000019F804B080BDC04610110000FFFF00009A
:102F1000141100000411000082B00190009100988B
:102F200000780199044A885000984078019901225C
:102F30001203885002B070470810000080B582B0BC
:102F40000190009101981121090240180099032273
:102F5000D203FEF7EFFF02B080BD000080B584B061
:102F6000019101460198039102A9087003980D4A46
:102F7000801809787022FEF7DDFF04B080BDC046DE
:102F800080B584B0019101460198039102A90870AF
:102F90000398044A801809780722FEF7CBFF04B093
:102FA00080BDC0460C11000082B0019068460170DF
:102FB0000078019989225201885002B0704780B58B
:102FC00084B003A900200870FFE703A80078072851
:102FD00028DCFFE70398B030C0B20021019100F077
:102FE0005BF90199022000F057F90199102000F0D7
:102FF00053F9019802A90870FFE702A800787F281A
:103000000ADCFFE70020012100F046F9FFE7029803
:10301000401C02A90870F0E7FFE70398401C03A9D1
:103020000870D2E704B080BD80B582B08D20002149
:10303000019100F031F90199142000F02DF9019966
:10304000AF2000F029F902B080BD000080B586B045
:1030500000F064F94248FEF763FFAE2000210591BD
:1030600000F01AF905990220029000F015F905996F
:10307000102000F011F905994020019000F00CF9A2
:103080000599812000F008F90599CF2000F004F996
:103090000599A12000F000F90599C82000F0FCF87E
:1030A0000599A620039000F0F7F80599A82000F0F4
:1030B000F3F805993F2000F0EFF80599D32000F0D0
:1030C000EBF80599084600F0E7F80599D52000F0DF
:1030D000E3F80599802000F0DFF80599D92000F089
:1030E000DBF80599F12000F0D7F80599DA2000F017
:1030F000D3F80599122000F0CFF80599DB2000F0F5
:10310000CBF80198059900F0C7F80599202000F048
:10311000C3F80298059900F0BFF805998D2000F0DA
:10312000BBF80599142000F0B7F80599A42000F029
:10313000B3F80398059900F0AFF80599AF20049013
:1031400000F0AAF80498059900F0A6F8FFF737FFF9
:10315000FFF76AFF0599084600F004F806B080BD45
:1031600000127A0080B586B001910246019805A947
:1031700002910A7004AA10700598801C08700498C7
:10318000B030C0B20021039100F086F80298039994
:1031900000780009103000F07FF802980399007859
:1031A0000F22104000F078F806B080BD80B586B0E0
:1031B000034605A8037004AB197003A90A7002AA9C
:1031C0000021117001AB197003992039117000783A
:1031D000802808DBFFE705A9002008700498801C00
:1031E00004A90870FFE705A8007804A90978FFF78B
:1031F000B9FF01A900200870FFE701A800780528A1
:1032000012DCFFE702A80078062141430748401876
:1032100001A90978405C012100F03EF8FFE7019820
:10322000401C01A90870E8E706B080BDE862000014
:1032300080B586B005AB187004A80170039202A98E
:1032400000200870FFE7039802A90978405C002875
:1032500020D0FFE705A80190007804A90978039A17
:1032600002AB1B78D25CFFF7A1FF019805990831EA
:1032700001700078792808DBFFE705A900200870B5
:103280000498801C04A90870FFE70298401C02A95A
:103290000870D8E706B080BD80B586B005AA10706A
:1032A00004A801700078002806D0FFE70120010281
:1032B0007C48FFF76DF805E0012001027948FEF730
:1032C00001FFFFE7012041027648FEF7FBFE05A85B
:1032D00001788548FFF728F9FFE78348FFF7D0F822
:1032E000002801D1FFE7F8E7FFE77F48FFF7BEF8C6
:1032F000002801D0FFE7F8E70520FEF711FE0120C6
:103300000190410267480290FFF742F80199029844
:103310000902FFF73DF806B080BDC04680B584B015
:103320000120009041025F48FFF732F864200190CD
:1033300000F004FC0098C10503915B480290FFF780
:1033400027F8019800F0FAFB02980399FEF7BAFEFD
:10335000019800F0F3FB02980399FFF719F804B005
:1033600080BDC04680B58CB00920FEF7CDFF0A2095
:10337000FEF7CAFF4B2005210291FEF7DDFF494809
:103380000B900421FEF70CFF02994D20FEF7D4FFAD
:103390000B981021FEF704FF1A2006210391FEF777
:1033A000CBFF03991B20FEF7B9FF0F200B210491DF
:1033B000FEF7C2FF04990E20FEF7BEFF3220FEF793
:1033C0006DFF5520FEF76AFF00230893009301204C
:1033D00005904204079256201946FEF77FFF079A90
:1033E000089B009316201946FEF778FF079A089B62
:1033F000009317201946FEF771FF079A089B009368
:1034000018201946FEF76AFF079A089B00931920B7
:103410001946FEF763FF0598079A08990091C304BF
:1034200006932F20FEF716FF069B079A0899009136
:103430003320FEF70FFF069B079A0899009137206B
:10344000FEF708FF069B079A089900913920FEF7BE
:1034500001FF079A089B00934E201946FEF73EFF96
:10346000079A089B00934C201946FEF737FFEF4858
:1034700009900E490A91FEF757FE09980A99FEF73E
:103480008FFE0B9803210902FEF74EFE0B982821B0
:10349000FEF7A6FF0B986521C900FEF781FE0CB070
:1034A00080BDC04600400A4000200A40C0038000A2
:1034B00080B582B00B49E1480190FFF70BF8019805
:1034C0000A49FEF7AFFF01980121FEF7F1FF0198CD
:1034D00010210222FFF710F80198FEF78DFF02B0CD
:1034E00080BDC04620650000008046402265000087
:1034F00080B588B007A9002002900870FFF71AF97C
:103500000298012211059204FFF71AF8029803901D
:10351000FFF7C0F9FFE7FFF7F3F800280CD1FFE74A
:103520002A48FEF7FDFC0398401C039003984228AC
:1035300001D3FFE700E0EEE7FFF7EAF8059001208E
:103540000105420400200190FEF7FAFF0198039064
:10355000FFF7A0F9FFE7FFF7D3F800280CD1FFE74A
:103560001A48FEF7DDFC0398401C0390039842289C
:1035700001D3FFE700E0EEE7FFF7CAF806900599F0
:103580007D20C00048430699FCF7B4FE04900498DF
:10359000FCF792FF00220E4B02F0E1FB00280FD156
:1035A000FFE70498FCF788FF0022D243094B02F0A2
:1035B000CBFB002804D1FFE707A901200870FFE733
:1035C00007A800780121084008B080BDD1030000A1
:1035D00000289F40FF579F4080B582B00020019097
:1035E000FFF79CF801204002FFF7B0F80198FFF7C1
:1035F00037F9FFF737F8FFF741F8019A0320000386
:103600000A21FFF7BFF81548FEF7ACFFFFE7FFF709
:103610006FFF00280FD1FFE7FFF730F8FFF756F8EC
:10362000FFE7FFF763F8012149020840884201D013
:10363000FFE7F6E7EBE71020FFF720F90920FFF797
:1036400093F8FFF733F8FFF739F801204002FFF74E
:10365000F7F80020FFF726F902B080BD2C650000C6
:1036600080B582B0764801900721FFF77FF9019875
:103670000321FFF769F9FFE77148FFF74FF90028C9
:1036800001D1FFE7F8E76E4800900421FFF730F919
:1036900000980321FFF776F902B080BD80B586B0AF
:1036A0001F4964480590FFF745FB05981D49FFF742
:1036B00093F905980023029319461A46FFF750FB29
:1036C000029B0598009319461A46FFF7FDFA029AE5
:1036D00005981146FFF78EFA029A05987D21C900D8
:1036E0000391FFF711FB029B0598012104910091C2
:1036F00019461A46FFF7E8FA0299049A0598FFF767
:1037000079FA0399049A0598FFF7FEFA0598FFF7EE
:103710004DF905980321FFF763FA06B080BDC04656
:10372000546500005865000080B582B010494248D9
:103730000190FFF7F1FB01980E49FFF777FB019825
:103740000021FFF7FBFB01982B211A22FFF7BEFB9C
:103750000198FFF753FB01982021FFF7FFFB019829
:103760000221FFF70DFC0198FFF73DFB02B080BD81
:10377000606500006265000080B500F01DF8FFF78D
:10378000F1FDFFF729FFFFF789FFFFF7CDFFFFF7F7
:103790008FFEFFF765FF0549B822002088540449D1
:1037A000242288540349087380BDC046F0002020BD
:1037B000B8002020E000202080B588B01A48019091
:1037C000FEF7DEFDDC480290FEF7DAFD18480390B4
:1037D000FEF7D6FD17480490FFF7F8F91648059054
:1037E000FFF768FB15480690FEF756FE1448079051
:1037F000FFF7A0F80198FEF7DFFC0298FEF7DCFC6B
:103800000398FEF7D9FC0498FFF7DAF80598FFF75C
:1038100001FB0698FEF7FAFD0798FFF775F81020F0
:10382000FEF77EFB08B080BD00000A4000200A4081
:1038300000400A4000008640002050400080464082
:103840000040444080B582B000F0F6FA014601A87D
:103850000170017801203529009007D0FFE701A809
:1038600000782A38414248410090FFE70098012142
:10387000084002B080BD000080B584B0024603A8B5
:103880000270029100780190042838D801988100D4
:1038900001A040588746C046FD380000AD38000002
:1038A000BF380000D5380000E93800000299002038
:1038B00001F028FD0299012001F024FD29E0029881
:1038C0004142002001F01EFD02984142012001F01A
:1038D00019FD1EE002984142002001F013FD0299FB
:1038E000012001F00FFD14E00299002001F00AFD13
:1038F00002984142012001F005FD0AE0FFE70021A6
:103900000091084601F0FEFC0099012001F0FAFC4C
:10391000FFE704B080BD000080B58CB00AAA10702B
:1039200009A80590017008A90020087002F050F85D
:1039300005980078C007002809D1FFE7022001F0B0
:1039400075FF02F0AFF90BA9002008708BE0FFF7BC
:1039500036FB474A002104910846FFF769FC0498AA
:10396000444A0121FFF764FCC820052100F0FEFC59
:10397000002809D0FFE7022001F058FF02F092F979
:103980000BA9002008706EE0CC49002008600AA84E
:10399000007801280ED1FFE7374800F0E5F801462E
:1039A00008A801700078002803D1FFE701F0CEFFDE
:1039B000FFE748E00AA80078022805D1FFE701F0F8
:1039C0009DFE08A908703DE00AA80078032805D0EC
:1039D000FFE70AA8007804282FD1FFE70AA801789A
:1039E000029101200429039001D1029803900398C9
:1039F00006A9087007A900200870FFE707A801784A
:103A000006A8027800209142019006DAFFE708A894
:103A10000078414248410190FFE70198C007002823
:103A20000AD0FFE701F0DEFD08A90870FFE707985C
:103A3000401C07A90870E1E703E008A9012008700D
:103A4000FFE7FFE7FFE701F0C3FF08A80090007859
:103A500001F0ECFE02F026F900980078414248415E
:103A60000BA90870FFE70BA800780CB080BDC0461A
:103A7000076700005E670000A565000080B586B09E
:103A800005A902910870FFF79AFA184A00210191DE
:103A90000846FFF7CDFB0198154A0121FFF7C8FB47
:103AA0000198144A0221FFF7C3FB0198124A03212F
:103AB000FFF7BEFB0198114A0421FFF7B9FB0298FA
:103AC0000078C1070E480F4A03920029049001D1E3
:103AD000039804900198049A0621FFF7A9FB019826
:103AE000094A0721FFF7A4FB06B080BD6F670000FD
:103AF0009465000090660000A16600007F660000EB
:103B0000E9650000C36600000B66000080B584B064
:103B100000230093312019461A46FEF7C9FB012005
:103B200081050391F7480290FEF750FC0298039933
:103B3000FEF72CFB04B080BD00200A4080B582B0A7
:103B4000019001997D20C000484300F002F802B0C6
:103B500080BD80B582B00190019950204843FEF7A6
:103B6000DFF902B080BD000080B590B00E90B14882
:103B7000009000680D9007A900200190087006A928
:103B8000087001F001FD00990E98096801F0A0FE8F
:103B9000019808A90880FFE708A8008840091828AC
:103BA00000D981E0FFF74EFE002806D0FFE701F0C4
:103BB0000FFF0FA9012008707CE00A2002F042F8F4
:103BC000002806D0FFE701F003FF0FA902200870CC
:103BD00070E009A800F098F900280FD5FFE70698D3
:103BE000411CC8B206AA1170052806D3FFE701F0F0
:103BF000EFFE0FA9032008705CE022E006A9002078
:103C0000087008A8008828280BD3FFE709A801F04E
:103C1000EDFE002805D0FFE70798401C07A90870B3
:103C200003E007A900200870FFE707A80078032831
:103C300006D3FFE701F0CCFE0FA90020087039E0A1
:103C4000FFE77C4800680D99401A059005986421AB
:103C5000FCF75AFB04900498DD2803DBFFE7DC2027
:103C60000490FFE70498DC21C943884204DCFFE7A5
:103C7000DB20C0430490FFE704996D4809180391C5
:103C80000499401A02900399002001F03BFB02992D
:103C9000012001F037FB0A20FFF750FFFFE70898EB
:103CA000401C08A9088077E701F092FE0FA90420C4
:103CB0000870FFE70FA8007810B080BD0002202038
:103CC00080B592B010900AA95948088009A90880C7
:103CD00008A900200490087007A9087006A90870B8
:103CE00000F04CFC10985349096801F0F1FD04986C
:103CF0000BA90880FFE70BA800888008E02800D9FE
:103D00008CE0FFF79FFD002806D0FFE701F060FE82
:103D100011A90120087087E00A2001F093FF002814
:103D200006D0FFE701F054FE11A9022008707BE0E5
:103D30000CA800F0E9F8002812D5FFE70698411C0E
:103D4000C8B206AA1170052806D3FFE701F040FEAD
:103D500011A90320087067E005A9002008700AE097
:103D600006A9002008700CA80AA909AA00F038FCCE
:103D700005A90870FFE705A80078C007002819D03A
:103D8000FFE708A80078FF2805D0FFE70898401C47
:103D900008A90870FFE707A90020039008700AA986
:103DA000095E01F0AFFA039909A8415E012001F014
:103DB000A9FA2AE008A8007803281BD3FFE7079890
:103DC000411CC8B207AA1170052806D3FFE701F00D
:103DD000FFFD11A90020087026E0002002900AA92A
:103DE000095E01F08FFA029909A8415E012001F0F5
:103DF00089FA09E000200E49019101F083FA019946
:103E0000012001F07FFAFFE7FFE70A20FFF796FEA7
:103E1000FFE70B98401C0BA908806CE701F0D8FD68
:103E200011A904200870FFE711A8007812B080BD26
:103E3000260200000002202080B584B000200290FD
:103E40000190FFE70198032833DCFFE70198810028
:103E5000264841582B48FEF73FF90520FEF760F849
:103E600000200090FFE70098032816DCFFE7009889
:103E700081001F4841582348FEF76CFA002807D1FB
:103E8000FFE70198800000994018401C0290FFE76E
:103E9000FFE70098401C0090E5E701988100134877
:103EA00041581848FEF77EFAFFE70198401C019040
:103EB000C8E70298002804D1FFE703A90020087092
:103EC0000DE00298411EC817800F0A180320824394
:103ED00005488018891A405C03A90870FFE703A809
:103EE000007804B080BDC0466C6500007C650000B1
:103EF0001065000080B5012081020248FEF732F90A
:103F000080BDC04600200A4080B586B00490FFE71F
:103F10007148FEF7B9FF002804D1FFE76E48FEF7AD
:103F2000BFFFF5E705200022114600F08BF824487A
:103F30001421244A00F048F803900398002804D57F
:103F4000FFE70020C043059037E01D4800785A285D
:103F50000AD1FFE71A484078052805D1FFE718483D
:103F60008078002804D0FFE70120C043059024E0BA
:103F700000200290FFE7029807281ADCFFE702986A
:103F800040000F4A8018007901A90870029840008B
:103F9000801840796A46107000980002097840182D
:103FA0000499029A52008852FFE70298401C02903E
:103FB000E1E70348C0780590FFE7059806B080BDAB
:103FC000D001202050C3000010B586B0059004A891
:103FD0000170039202A900200870FFE702A8007890
:103FE00004A9097888421ADAFFE73B48FEF74CFF3C
:103FF00000280AD1FFE73848FEF752FF059902ACC6
:104000002278531C2370885408E00398002801D1BB
:10401000FFE704E00398401E0390FFE7DEE702A8F5
:10402000007804A90978884204DBFFE702A8007839
:10403000019003E00020C0430190FFE7019806B023
:1040400010BDC04680B584B003AB1870029101A8C2
:104050000270FFE72048FEF70DFF002801D0FFE7C0
:10406000F8E71D48A521FEF79FFFFFE71A48FEF776
:1040700001FF002801D0FFE7F8E703A80178164800
:10408000FEF792FFFFE71448FEF7F4FE002801D088
:10409000FFE7F8E7694600200870FFE76846007808
:1040A00001A90978884215DAFFE70298694609787C
:1040B000415C0948FEF778FFFFE70748FEF7DAFEA4
:1040C000002801D0FFE7F8E7FFE70098401C6946A9
:1040D0000870E3E704B080BD0020504080B588B090
:1040E000079006A9002008709F480121FEF726F8D6
:1040F00007200590FFE7059800282DD4FFE7192039
:1041000000010390FDF70CFF974804900221FEF791
:1041100015F80398FDF704FF04980121FEF725F92F
:10412000002808D0FFE70598012181400698084340
:1041300006A90870FFE7FFE7ED4801900221029110
:10414000FDF7DEFF01980299FEF716F8FFE7FFE79B
:104150000598401E0590CEE7079800F005F806A8E0
:10416000007808B080BDC04680B586B0059005983F
:1041700000280DD0FFE7FFE7DD48039001210491FF
:10418000FDF7BEFF03980499FDF7F6FFFFE704E093
:10419000D7480121FDF7D2FFFFE719200001029067
:1041A000FDF7BEFED2480221FDF7C8FF0298FDF7D9
:1041B000B7FEFFE7CE48009002210191FDF7A0FF76
:1041C00000980199FDF7D8FFFFE719200001FDF7DE
:1041D000A7FEC7480121FDF7B1FF06B080BDC0466C
:1041E00080B586B0C24805900121FDF7A7FF05986C
:1041F0000221FDF7A3FF19200001FDF791FEFFE763
:10420000BB48039001210491FDF77AFF03980499BC
:10421000FDF7B2FFFFE719200001FDF781FEFFE780
:10422000B348019002210291FDF76AFF01980299BB
:10423000FDF7A2FFFFE706B080BDC04680B584B0A1
:10424000FFE7AB48029001210391FDF759FF029867
:104250000399FDF791FFFFE7192000010190FDF799
:104260005FFEA34800900221FDF768FF0198FDF76B
:1042700057FE00980121FDF761FF0198FDF750FE00
:1042800004B080BD80B586B09948039001210491A7
:10429000FDF754FF192000010290FDF741FE03983D
:1042A0000221FDF74BFF0298FDF73AFE03980499AF
:1042B000FEF75BF8411E88410590FFE78C480090AF
:1042C00002210191FDF71CFF00980199FDF754FFB1
:1042D000FFE719200001FDF723FE059806B080BD19
:1042E00080B588B007A9087007200690FFE70698F8
:1042F000002837D4FFE707A800780699C840C00710
:10430000002805D0FFE77A480121FDF717FF0CE0F0
:10431000FFE77748049001210591FDF7F1FE04982D
:104320000599FDF729FFFFE7FFE71920000103903A
:10433000FDF7F6FD6E480221FDF700FF0398FDF73B
:10434000EFFDFFE76A48019002210291FDF7D8FED8
:1043500001980299FDF710FFFFE7FFE70698401E5E
:104360000690C4E708B080BD00000A4080B586B062
:10437000024604A8028003AA11800021029100884D
:10438000002804D1FFE70020C04305902EE06946D5
:1043900000200880FFE76846008804A90988884251
:1043A0001ADAFFE701A800F0A7F8002804D0FFE719
:1043B0000020C043059019E0002101A8415E029849
:1043C0004018029003A80088FFF7B8FBFFE70098A9
:1043D000401C69460880DEE7029804A90988FBF7BB
:1043E00093FF4449088000200590FFE7059806B038
:1043F00080BDC04600213F48405E704780B588B010
:1044000006A80490002201920270009201200590FB
:10441000C304029310461146FDF7D8FE019A029B91
:10442000059800921146FDF7D1FE0599304803909A
:10443000FDF784FE03980221FDF780FE6420FFF75C
:104440007DFB0499059A752000F0FEFF002804D03A
:10445000FFE70020C043079047E006A800787128D6
:1044600004D0FFE70120C04307903EE06B2080218D
:1044700001F04EF8002804D0FFE70220C043079067
:1044800033E06420FFF75AFB6B20012101F040F874
:10449000002804D0FFE70220C043079025E01B203E
:1044A000002101F035F8002804D0FFE70220C043C6
:1044B00007901AE01A20032101F02AF8002804D0FE
:1044C000FFE70220C04307900FE01920092101F007
:1044D0001FF8002804D0FFE70220C043079004E043
:1044E0000449002008800790FFE7079808B080BDC6
:1044F00000000A40B401202080B584B002900298E8
:10450000002808D0FFE7472001A9022200F09CFF05
:10451000002804D0FFE70020C043039009E0019881
:10452000000201A9497840180299088000200390F0
:10453000FFE7039804B080BD80B50F2081010248D9
:10454000FDF730FF80BDC04600200A4017480068D4
:104550007047C046E44800887047C046E34800689A
:104560007047C046EA4800687047C046E7480068A0
:104570007047C046E44800687047C046DC490020E8
:104580000860E0490860D9490860D7490880D54AE1
:1045900001211170DA4908707047C04681B000905F
:1045A0000098DC49086001B07047C04648002020F0
:1045B00081B000900098D649086001B07047C046AD
:1045C00081B000900098D149086001B07047C046A2
:1045D00081B000900098CC49086001B07047C04697
:1045E00080B59AB018901791169215A9BC4808800A
:1045F00014A90020088013901290BA48007800286F
:1046000003D1FFE7FFF7BAFFFFE700201190FFE7B4
:104610001198072825DCFFE7189811994900405A9E
:1046200015A90988884207DAFFE718981199490007
:10463000405A15A90880FFE7189811994900405A77
:1046400014A90988884207DDFFE7189811994900E5
:10465000405A14A90880FFE7FFE71198401C119009
:10466000D6E714981599411A9F4801800088772849
:1046700010D8FFE79E4900200860A24908609B49C6
:1046800008609F490870179908801699088019A931
:10469000087021E100201190FFE71198072827DC1E
:1046A000FFE714981899119A5200895A411A10A8D4
:1046B0000C9001800088FCF72FF80A901199994816
:1046C0004056FCF721F801460A98139A0B9201F024
:1046D0009DFC0B9901F000FC01460C981391018898
:1046E000129840181290FFE71198401C1190D4E7DF
:1046F0001298002810D1FFE77D4900200860814909
:1047000008607A4908607E490870179908801699F0
:10471000088019A90870DFE0139807901298FBF73A
:10472000FBFF01460798FBF7F5FE0F900F986F49C6
:1047300008600F986E490991096808916D4901F068
:1047400065FC089901F0C8FB014609980160006802
:10475000694901F01CFB002804D1FFE76449664861
:104760000860FFE762480068644901F005FB002823
:1047700004D1FFE75E4961480860FFE700200E9022
:104780005F48007800280AD0FFE70F985D49096864
:1047900001F094FC5749FBF7BDFE0E9003E0584929
:1047A00001200870FFE70F985649086056480068D6
:1047B000FBF7AAFF03900F98029054480068FBF79C
:1047C000A3FF4B49096801F021FC029902460398B6
:1047D000049201F01BFC049901F07EFB05904C480B
:1047E0000068FBF791FF0E9901F010FC059901F0AC
:1047F00073FB0D900D98069046480068FBF784FF08
:104800000146069801F0C3FA002806D1FFE74148A7
:104810000068FBF779FF0D90FFE70D9801903D4888
:1048200000684042FBF770FF0146019801F0A4FACE
:10483000002807D1FFE7374800684042FBF764FFD4
:104840000D90FFE7334800900068FBF75DFF0D997E
:1048500001F034FCFBF70EFF01460098179A118017
:104860000068FBF751FF0D9901F036FBFBF702FFE3
:104870001699088017980021405E2749884205DB79
:10488000FFE717997D20C0000880FFE717980021F7
:10489000405E2249884204DCFFE7179920480880DF
:1048A000FFE716980021405E1B49884205DBFFE7C1
:1048B00016997D20C0000880FFE716980021405E11
:1048C0001649884204DCFFE7169915480880FFE77F
:1048D00019A901200870FFE719A800781AB080BD57
:1048E000FFFF0000B7012020E8012020EC0120207C
:1048F000B80120200AD7233C0000C8420000C8C2EB
:10490000B6012020BC0120204C002020B001202036
:10491000AC01202048002020E903000017FCFFFF25
:1049200018FC00008C65000010B5DAB0002027905C
:104930005990FEF721FF279857A90870FEF786FBCC
:10494000FEF73DFBFFF7F8FD00F0C2FCFFF7D2FADF
:10495000FFF7DCF8FFF752FD414248417B49087000
:104960007B48006800F01CFFFFE7FFF765FA58A9D5
:10497000087078480078C007002850D0FFE758A892
:10498000007800283DD0FFE758A8007857A909789B
:10499000884236D0FFE7589857A9087058A8007881
:1049A00031281ADBFFE758A80078342815DCFFE728
:1049B000589830386549269109780122259211408E
:1049C000C0B2FEF7A9FF2599269800780840FFF7A6
:1049D00055F857A90020087012E058A800782A2836
:1049E00005D0FFE758A80078352808D1FFE75949D6
:1049F000002008705648006800F0D2FEFFE7FFE78D
:104A000009E058A80078002804D1FFE757A9002042
:104A10000870FFE7FFE70A20FFF790F8A5E758A81E
:104A20000078002800D1FCE258A8007857A909783E
:104A3000884200D1F5E2589857A908704648007896
:104A4000C007002833D0FFE758A8007842282ED0AE
:104A5000FFE758A800782A2829D0FFE758A800784F
:104A6000312807DBFFE758A8017801203A29249074
:104A700007DBFFE758A800784138414248412490BD
:104A8000FFE724990120014056A801700078C00773
:104A900000280BD1FFE73048002101702F4801703A
:104AA0002F4801700846FEF7E7FEFFE7FFE758A82A
:104AB000007823382390202800D9B0E22398810081
:104AC00001A040588746C0464D4C00001F500000D2
:104AD0001F5000001F5000001F5000001F5000001A
:104AE0001F500000334E00001F5000001F500000F8
:104AF0001F5000001F5000001F500000BD4D00005F
:104B0000654B0000894C0000D74B0000054D0000AC
:104B1000814D0000434D0000D74D0000C74C000000
:104B2000D74D00001F5000001F5000001F50000014
:104B30001F5000001F5000001F5000001F500000B9
:104B4000514E0000374F0000F94F0000C4012020F3
:104B500050002020C0012020C5012020C6012020B7
:104B6000C1012020F9480078C00700280BD0FFE7DA
:104B7000FFF7FCFC55905598401EFFF721FDF449C6
:104B80000120087026E0F34801686439016000687C
:104B9000002804D5FFE7EF4900200860FFE7EE4852
:104BA0000078EC4920910968FEF766FE20980368BA
:104BB000FE4A50A821901121FBF77CFB219A00218D
:104BC00022910846FEF734FB2298F94A0621FEF7A7
:104BD0002FFBFFE724E2DD480078C00700280BD058
:104BE000FFE7FFF7C3FC4F904F98401CFFF7E8FC2E
:104BF000D7490120087028E0D64801686431016077
:104C00000068EC49884205DBFFE7D2497D20C000FF
:104C10000860FFE7D0480078CE491D910968FEF78B
:104C20002BFE1D980368E14A4AA81E901121FBF74C
:104C300041FB1E9A00211F910846FEF7F9FA1F98C2
:104C4000DD4A0621FEF7F4FAFFE7E9E1C1491A91CE
:104C50007D2080000860C04800780968FEF70CFEDF
:104C60001A980368D14A45A81B901121FBF722FB33
:104C70001B9A00211C910846FEF7DAFA1C98CF4ACD
:104C80000621FEF7D5FACBE1B0480078C00700282E
:104C90000BD0FFE7FFF766FC44904498401EFFF7F7
:104CA00087FCAB49012008700CE0AB49012008707B
:104CB000A8490968FEF7E0FDC14A00200621FEF779
:104CC000B7FAFFE7ACE1A1480078C00700280BD095
:104CD000FFE7FFF747FC43904398401CFFF768FC51
:104CE0009B49012008700CE09B49022008709949FB
:104CF0000968FEF7C1FDB34A00200621FEF798FAC5
:104D0000FFE78DE191480078C00700280BD0FFE74E
:104D1000FFF730FC429042980A38FFF759FC8C4963
:104D2000012008700CE08C4903200870894909684B
:104D3000FEF7A2FDA44A00200621FEF779FAFFE75C
:104D40006EE182480078C00700280BD0FFE7FFF72C
:104D500011FC419041980A30FFF73AFC7C49012050
:104D600008700CE07C49042008707A490968FEF755
:104D700083FD964A00200621FEF75AFAFFE74FE12D
:104D800072480078C00700280AD0FFE77248002167
:104D900001700846FEF770FD6D49012008700CE0B7
:104DA0006D480021199101700846FEF765FD1998BC
:104DB000874A0621FEF73CFAFFE731E16648002109
:104DC000189101700846FEF757FD1898814A062190
:104DD000FEF72EFA24E15D480078C007002827D0AE
:104DE000FFE7FFF7B3FB409058A80078372804D1BD
:104DF000FFE740983238409003E0409832304090CE
:104E0000FFE74098002803D5FFE700204090FFE728
:104E100040986849884204DBFFE77D20C00040904D
:104E2000FFE74098FFF7BAFB494901200870FFE708
:104E3000F6E046480021017045480170464801707F
:104E40000846FEF719FD4348006800F0A9FCE7E0BA
:104E50003E480078C007002806D0FFE73C490A78A2
:104E600001209043087065E03CA8FFF74DF83690AC
:104E70003698002842D4FFE73CA814900388408865
:104E80000090554A37A8169011211591FBF712FA98
:104E9000169A002117910846FEF7CAF9149A159937
:104EA00016989388D2880092FA4AFBF703FA169A6A
:104EB00017980121FEF7BCF9149A159916981389D1
:104EC00052890092F44AFBF7F5F9169A17980221D5
:104ED000FEF7AEF9149A159916989389D289009223
:104EE000EE4AFBF7E7F9169A17980321FEF7A0F9A7
:104EF0001798EB4A0521FEF79BF91AE0E14A0021D9
:104F000011910846FEF794F93698411CDE48DF4AB5
:104F100012920029139001D0129813901198139AAD
:104F20000121FEF785F91198D94A0321FEF780F98E
:104F3000FFE7FFE774E0CA4802780121914301705E
:104F40000078C007002849D008E0C046C5012020ED
:104F5000C601202050002020C1012020C14800218E
:104F600010910170C04801700846FEF785FCFFF7FC
:104F700005FB1099BD4A0846FEF75AF91098BC4A3D
:104F80000121FEF755F91098BA4A0221FEF750F9AF
:104F90001098B94A0321FEF74BF91098B74A04213B
:104FA000FEF746F91098B649088024E080680000B2
:104FB0001A680000E903000009680000B6690000F3
:104FC00092670000A36700003C6800006F68000063
:104FD00081670000A5690000A1680000A1480021C8
:104FE0000170A14801700846FEF746FC9A48006827
:104FF00000F0D6FBFFE713E09948002101709948C3
:105000000170994801700846FEF736FC934801216B
:105010000170904800780840FEF730FD00E0FFE79F
:1050200009E058A80078002804D1FFE757A900201C
:105030000870FFE7FFE78A480078C007002800D122
:1050400002E131A900200F90088030A9088032A821
:10505000FEF75AFF01460F982F912EA908702F983E
:10506000002808D4FFE732A831A930AAFFF7B8FA20
:105070002EA90870FFE72EA80078C00700280DD0E1
:10508000FFE700200E9031A9095E00F03BF90E9970
:1050900030A8415E012000F035F90BE00021084600
:1050A000FEF7EAFB2F98002803D5FFE7FFF766FA23
:1050B000FFE7FFE772490888401C088080B2052896
:1050C00000DABDE06E49002008802F9800280CD53A
:1050D000FFE77E4A00210D910846FEF7A9F80D98DA
:1050E000644A0121FEF7A4F8A9E02EA80078C007C1
:1050F00000281AD1FFE76B4A00210C910846FEF701
:1051000097F8FFF727FA0346674A28A80B9018215B
:10511000FBF7D0F80B9A0C980121FEF789F80C9850
:10512000544A0221FEF784F888E04E480078C00710
:10513000002847D0FFE75F4A00210A910846FEF7A2
:1051400077F8FFF717FA03465B4A28A80990182159
:105150000891FBF7AFF8099A0A980121FEF768F861
:10516000FFF704FA089903460998544AFBF7A2F896
:10517000099A0A980221FEF75BF8FFF7F3F90899FC
:10518000034609984E4AFBF795F8099A0A980321B5
:10519000FEF74EF8FFF7DAF9089903460998494AED
:1051A000FBF788F8099A0A980421FEF741F80A9853
:1051B000314A0521FEF73CF80A98434A0621FEF7DA
:1051C00037F83AE0294A0024079420462146FEF7A2
:1051D0002FF8FFF7C3F9FBF773F904900391FFF77A
:1051E000B9F90399024604980292019100902F4A5E
:1051F00028A8069018210591FBF75CF8069A012172
:105200002046FEF715F80599069831AA135F30AAD3
:10521000125F0092264AFBF74DF8069A0798022182
:10522000FEF706F80798144A0321FEF701F80798DD
:10523000124A0421FDF7FCFFFFE7FFE7FFE7FFE766
:105240000A20FEF77BFC03E00A20FEF777FCFFE76D
:10525000FFF78BFBC401202050002020C00120203C
:10526000C5012020C6012020C10120201B6A0000AA
:10527000836900001F690000516900009168000007
:10528000C2012020E9690000B46700005E680000E8
:10529000C7690000B0680000BF680000CE68000069
:1052A000616900004D680000DD6800000B6A0000C5
:1052B0000F6900002C6A0000E7670000D667000055
:1052C000C56700002B68000041690000D869000034
:1052D00080B584B059480190594902910022FDF7E8
:1052E00013FD019802990122FDF70EFD5548039028
:1052F0000821FCF7FBFE03982021FCF7F7FE04B021
:1053000080BDC04680B586B005AA1070049104988F
:105310004649884204DBFFE77D20C0000490FFE798
:1053200004984349884203DCFFE742480490FFE7C2
:10533000049905A8027893003F4AD15000780028CC
:1053400039D1FFE7049801281BDBFFE704987D2192
:10535000C900884203DBFFE70020019005E00499C3
:105360007D20C000401A0190FFE701980390039947
:1053700032480022FDF7C8FC32480821FCF7B6FE8F
:1053800018E0049800280AD5FFE72C482C49002291
:10539000FDF7BAFC2B480821FDF70EF809E0274875
:1053A00027490022FDF7B0FC26480821FCF79EFEA5
:1053B000FFE7FFE738E0049801281BDBFFE70498CC
:1053C0007D21C900884203DBFFE70020009005E053
:1053D00004997D20C000401A0090FFE700980290D9
:1053E000029916480122FDF78FFC16482021FCF790
:1053F0007DFE18E0049800280AD5FFE70F48104901
:105400000122FDF781FC0F482021FCF7D5FF09E0C0
:105410000A480B490122FDF777FC0A482021FCF7D6
:1054200065FEFFE7FFE7FFE706B080BDE903000088
:1054300017FCFFFF18FCFFFFC8012020000086407A
:10544000E703000000400A4080B588B006AB187042
:10545000059104A80270FEF7C3FED020FEF740FFBE
:10546000FEF710FF002806D0FFE7FEF7E7FE00205A
:10547000C043079049E006A80078FEF731FFFEF729
:1054800001FF002806D0FFE7FEF7D8FE0020C0434A
:1054900007903AE0FEF7A4FED120FEF721FFFEF7C9
:1054A000F1FE002806D0FFE7FEF7C8FE0020C0434B
:1054B00007902AE003A900200870FFE703A80078FE
:1054C00004A9097888421BDAFFE703A80090007856
:1054D000411C04A80278012000230193914202900C
:1054E00001D3019802900298FEF7F8FD009A059901
:1054F00012788854FFE70398401C03A90870DDE781
:10550000FEF79CFE00200790FFE7079808B080BDDB
:1055100080B584B002AA107001A80170FEF760FE89
:10552000D020FEF7DDFEFEF7ADFE002806D0FFE737
:10553000FEF784FE0020C043039022E002A800781A
:10554000FEF7CEFEFEF79EFE002806D0FFE7FEF730
:1055500075FE0020C043039013E001A80078FEF719
:10556000BFFEFEF78FFE002806D0FFE7FEF766FEBF
:105570000020C043039004E0FEF760FE002003908B
:10558000FFE7039804B080BD81B069460020087031
:10559000FFE76846007807280CDCFFE768460078DC
:1055A0004200054900208852FFE70098401C6946E8
:1055B0000870EEE701B07047F001202080B582B09E
:1055C00001200190C1060648FCF7C2FD01980021A8
:1055D00000914204C3043920FCF71AFE02B080BDDA
:1055E00000200A4080B582B03F4800F091FA0146A1
:1055F000684601700078002804D0FFE7009801A9F0
:1056000008706DE03948FEF7AFFA01466846017050
:105610000078002804D0FFE7009801A908705FE037
:1056200000F094F9324800F073FA014668460170C0
:105630000078002804D0FFE7009801A908704FE027
:105640002C48FEF73DFB01466846017000780028B3
:1056500004D0FFE7009801A9087041E000F076F956
:10566000234800F055FA014668460170007800288A
:1056700004D0FFE7009801A9087031E01E48FEF74A
:1056800073FA0146684601700078002804D0FFE7ED
:10569000009801A9087023E000F058F9124800F0C2
:1056A00037FA0146684601700078002804D0FFE709
:1056B000009801A9087013E03848FEF701FB014685
:1056C000684601700078002804D0FFE7009801A91F
:1056D000087005E000F03AF901A900200870FFE722
:1056E00001A8007802B080BDFC68FFFFB66500002D
:1056F000049700003D660000C765000080B582B0D9
:105700002348FEF731FA0146684601700078002808
:1057100004D0FFE7009801A9087035E000F016F901
:105720001C48FEF7CDFA0146684601700078002853
:1057300004D0FFE7009801A9087025E000F006F901
:105740001548FEF711FA01466846017000780028F6
:1057500004D0FFE7009801A9087015E000F0F6F802
:105760000E48FEF7ADFA0146684601700078002841
:1057700004D0FFE7009801A9087005E000F0E6F802
:1057800001A900200870FFE701A8007802B080BDE1
:10579000A56500004D660000D86500002D6600007C
:1057A00080B588B00790079B184A02A80090112185
:1057B000FAF780FD009A002101910846FDF738FDB7
:1057C0000198134A0121FDF733FD0198114A022186
:1057D000FDF72EFD0198104A0321FDF729FD0198E0
:1057E0000E4A0421FDF724FD01980D4A0521FDF71D
:1057F0001FFD01980B4A0621FDF71AFD01980A4A80
:105800000721FDF715FD08B080BDC0468068000087
:10581000FE680000FA69000030690000726900004B
:1058200094690000ED680000F867000080B584B05E
:1058300003A901910870FDF7C2FB1E4A002108462A
:10584000FDF7F6FC019800780290032824D802980E
:10585000810001A040588746695800007558000033
:10586000815800008D580000164A00200221FDF7E3
:10587000DFFC17E0124A00200221FDF7D9FC11E0FD
:105880000E4A00200221FDF7D3FC0BE00A4A00205B
:105890000221FDF7CDFC05E00B4A00200221FDF7B7
:1058A000C7FCFFE7094A00200721FDF7C1FC04B04F
:1058B00080BDC046296700004D6700006E6600008D
:1058C0001C6600005D660000E5660000F6660000EC
:1058D00080B58EB00D900C91194A002105910846B3
:1058E000FDF7A6FC05980D9A0121FDF7A1FC0C9887
:1058F000014602917D21C9000191FAF705FD019948
:10590000024602980392C2175040801AFAF7FCFC34
:1059100008466421FAF7F8FC039B0090094A06A8A0
:1059200004901621FAF7C6FC049A05980221FDF7A7
:105930007FFC0598044A0721FDF77AFC0EB080BD74
:105940003B67000018670000FA65000080B588B06A
:105950000120049081051D480590FCF7DBFB002326
:1059600006930093392019461A46FCF7A1FC0499C6
:105970000598C906FCF70AFC069807A90880FFE706
:1059800007A80088632818D8FFE70120C106029104
:105990000E480190FCF71AFDFA200390FEF7D9F8A3
:1059A00001980299FCF7B6FB0398FEF7D2F8FFE7DF
:1059B0000798401C07A90880E2E7FFF7FFFD0120D8
:1059C00081050248FCF702FD08B080BD00200A40B6
:1059D00080B582B0002101910846FFF793FC019940
:1059E0000120FFF78FFC02B080BD00008AB0099053
:1059F00008A94548088007A90020088006A9088052
:105A000005A90870FFE705A80078072860DCFFE714
:105A1000099805A909784A00805A3C49895A884260
:105A200008DDFFE7099805A909784A00805A374937
:105A30008852FFE705A8007842003448805A099947
:105A4000895A88420ADDFFE705A8007842002F48FE
:105A5000805A0999895A401A039002E00020039065
:105A6000FFE7039904A80180008806A909888842F5
:105A700004DDFFE7049806A90880FFE7099805A957
:105A800009784900405A08A90988884208DAFFE7DE
:105A9000099805A909784900405A08A90880FFE734
:105AA000099805A909784900405A07A90988884238
:105AB00008DDFFE7099805A909784900405A07A9B8
:105AC0000880FFE7FFE70598401C05A908709AE7E2
:105AD00006A801880020DC2902900FD3FFE7079871
